{
  "_format": "hh-sol-artifact-1",
  "contractName": "EscrowService",
  "sourceName": "contracts/Exchange.sol",
  "abi": [
    {
      "inputs": [],
      "stateMutability": "nonpayable",
      "type": "constructor"
    },
    {
      "anonymous": false,
      "inputs": [
        {
          "indexed": false,
          "internalType": "uint256",
          "name": "transactionId",
          "type": "uint256"
        },
        {
          "indexed": false,
          "internalType": "address",
          "name": "buyer",
          "type": "address"
        },
        {
          "indexed": false,
          "internalType": "address",
          "name": "arbitrator",
          "type": "address"
        },
        {
          "indexed": false,
          "internalType": "address",
          "name": "seller",
          "type": "address"
        }
      ],
      "name": "TransactionCreated",
      "type": "event"
    },
    {
      "anonymous": false,
      "inputs": [
        {
          "indexed": false,
          "internalType": "uint256",
          "name": "amount",
          "type": "uint256"
        }
      ],
      "name": "arbitratorPaid",
      "type": "event"
    },
    {
      "anonymous": false,
      "inputs": [
        {
          "indexed": true,
          "internalType": "address",
          "name": "buyer",
          "type": "address"
        },
        {
          "indexed": true,
          "internalType": "uint256",
          "name": "amountPaid",
          "type": "uint256"
        }
      ],
      "name": "buyerPaid",
      "type": "event"
    },
    {
      "anonymous": false,
      "inputs": [
        {
          "indexed": true,
          "internalType": "address",
          "name": "from",
          "type": "address"
        },
        {
          "indexed": true,
          "internalType": "uint256",
          "name": "amountPaid",
          "type": "uint256"
        }
      ],
      "name": "contractReceivesCash",
      "type": "event"
    },
    {
      "anonymous": false,
      "inputs": [
        {
          "indexed": true,
          "internalType": "address",
          "name": "from",
          "type": "address"
        },
        {
          "indexed": true,
          "internalType": "uint256",
          "name": "amountPaid",
          "type": "uint256"
        },
        {
          "indexed": true,
          "internalType": "address",
          "name": "to",
          "type": "address"
        }
      ],
      "name": "contractTransactionInitiated",
      "type": "event"
    },
    {
      "anonymous": false,
      "inputs": [
        {
          "indexed": true,
          "internalType": "address",
          "name": "buyer",
          "type": "address"
        },
        {
          "indexed": true,
          "internalType": "uint256",
          "name": "amountSent",
          "type": "uint256"
        }
      ],
      "name": "sellerGetsFundsAfterBuyerConfirmsDelivery",
      "type": "event"
    },
    {
      "anonymous": false,
      "inputs": [
        {
          "indexed": false,
          "internalType": "uint256",
          "name": "amount",
          "type": "uint256"
        }
      ],
      "name": "sellerPaid",
      "type": "event"
    },
    {
      "inputs": [
        {
          "internalType": "uint256",
          "name": "_transaction",
          "type": "uint256"
        }
      ],
      "name": "confirmDelivery",
      "outputs": [],
      "stateMutability": "nonpayable",
      "type": "function"
    },
    {
      "inputs": [
        {
          "internalType": "address payable",
          "name": "_buyer",
          "type": "address"
        },
        {
          "internalType": "address payable",
          "name": "_arbitrator",
          "type": "address"
        },
        {
          "internalType": "address payable",
          "name": "_seller",
          "type": "address"
        },
        {
          "internalType": "uint256",
          "name": "_itemPrice",
          "type": "uint256"
        },
        {
          "internalType": "uint256",
          "name": "_transaction",
          "type": "uint256"
        }
      ],
      "name": "createTransaction",
      "outputs": [],
      "stateMutability": "nonpayable",
      "type": "function"
    },
    {
      "inputs": [
        {
          "internalType": "uint256",
          "name": "_transaction",
          "type": "uint256"
        }
      ],
      "name": "depositToThisContract",
      "outputs": [],
      "stateMutability": "payable",
      "type": "function"
    },
    {
      "inputs": [],
      "name": "getAllTransactions",
      "outputs": [
        {
          "components": [
            {
              "internalType": "uint256",
              "name": "transactionId",
              "type": "uint256"
            },
            {
              "internalType": "address payable",
              "name": "buyer",
              "type": "address"
            },
            {
              "internalType": "address payable",
              "name": "arbitrator",
              "type": "address"
            },
            {
              "internalType": "address payable",
              "name": "seller",
              "type": "address"
            },
            {
              "internalType": "uint256",
              "name": "itemPrice",
              "type": "uint256"
            },
            {
              "internalType": "uint256",
              "name": "arbitratorFees",
              "type": "uint256"
            },
            {
              "internalType": "uint256",
              "name": "finalPrice",
              "type": "uint256"
            },
            {
              "internalType": "enum EscrowService.State",
              "name": "currentState",
              "type": "uint8"
            }
          ],
          "internalType": "struct EscrowService.Transaction[]",
          "name": "allTransactions",
          "type": "tuple[]"
        }
      ],
      "stateMutability": "view",
      "type": "function"
    },
    {
      "inputs": [
        {
          "internalType": "uint256",
          "name": "_transaction",
          "type": "uint256"
        }
      ],
      "name": "getTransactionDetails",
      "outputs": [
        {
          "components": [
            {
              "internalType": "uint256",
              "name": "transactionId",
              "type": "uint256"
            },
            {
              "internalType": "address payable",
              "name": "buyer",
              "type": "address"
            },
            {
              "internalType": "address payable",
              "name": "arbitrator",
              "type": "address"
            },
            {
              "internalType": "address payable",
              "name": "seller",
              "type": "address"
            },
            {
              "internalType": "uint256",
              "name": "itemPrice",
              "type": "uint256"
            },
            {
              "internalType": "uint256",
              "name": "arbitratorFees",
              "type": "uint256"
            },
            {
              "internalType": "uint256",
              "name": "finalPrice",
              "type": "uint256"
            },
            {
              "internalType": "enum EscrowService.State",
              "name": "currentState",
              "type": "uint8"
            }
          ],
          "internalType": "struct EscrowService.Transaction",
          "name": "",
          "type": "tuple"
        }
      ],
      "stateMutability": "view",
      "type": "function"
    },
    {
      "inputs": [
        {
          "internalType": "uint256",
          "name": "",
          "type": "uint256"
        }
      ],
      "name": "transactionIds",
      "outputs": [
        {
          "internalType": "uint256",
          "name": "",
          "type": "uint256"
        }
      ],
      "stateMutability": "view",
      "type": "function"
    },
    {
      "inputs": [
        {
          "internalType": "uint256",
          "name": "",
          "type": "uint256"
        }
      ],
      "name": "transactions",
      "outputs": [
        {
          "internalType": "uint256",
          "name": "transactionId",
          "type": "uint256"
        },
        {
          "internalType": "address payable",
          "name": "buyer",
          "type": "address"
        },
        {
          "internalType": "address payable",
          "name": "arbitrator",
          "type": "address"
        },
        {
          "internalType": "address payable",
          "name": "seller",
          "type": "address"
        },
        {
          "internalType": "uint256",
          "name": "itemPrice",
          "type": "uint256"
        },
        {
          "internalType": "uint256",
          "name": "arbitratorFees",
          "type": "uint256"
        },
        {
          "internalType": "uint256",
          "name": "finalPrice",
          "type": "uint256"
        },
        {
          "internalType": "enum EscrowService.State",
          "name": "currentState",
          "type": "uint8"
        }
      ],
      "stateMutability": "view",
      "type": "function"
    },
    {
      "inputs": [
        {
          "internalType": "uint256",
          "name": "",
          "type": "uint256"
        }
      ],
      "name": "usedTransactionIDs",
      "outputs": [
        {
          "internalType": "bool",
          "name": "",
          "type": "bool"
        }
      ],
      "stateMutability": "view",
      "type": "function"
    },
    {
      "inputs": [
        {
          "internalType": "uint256",
          "name": "_transaction",
          "type": "uint256"
        }
      ],
      "name": "withdrawToArbitrator",
      "outputs": [],
      "stateMutability": "nonpayable",
      "type": "function"
    }
  ],
  "bytecode": "0x608060405234801561001057600080fd5b50336000806101000a81548173ffffffffffffffffffffffffffffffffffffffff021916908373ffffffffffffffffffffffffffffffffffffffff160217905550611e2e806100606000396000f3fe6080604052600436106100865760003560e01c806365714f631161005957806365714f63146101455780639ace38c214610161578063cfbeedbb146101a5578063e36f8dc5146101e2578063fd84cb971461021f57610086565b80630b98912b1461008b5780630fa683d3146100b457806327506f53146100f157806351b534231461011c575b600080fd5b34801561009757600080fd5b506100b260048036038101906100ad919061127d565b610248565b005b3480156100c057600080fd5b506100db60048036038101906100d691906112f8565b610600565b6040516100e8919061145c565b60405180910390f35b3480156100fd57600080fd5b50610106610793565b60405161011391906115ca565b60405180910390f35b34801561012857600080fd5b50610143600480360381019061013e91906112f8565b6109e3565b005b61015f600480360381019061015a91906112f8565b610c06565b005b34801561016d57600080fd5b50610188600480360381019061018391906112f8565b610d50565b60405161019c989796959493929190611619565b60405180910390f35b3480156101b157600080fd5b506101cc60048036038101906101c791906112f8565b610e05565b6040516101d991906116b2565b60405180910390f35b3480156101ee57600080fd5b50610209600480360381019061020491906112f8565b610e25565b60405161021691906116cd565b60405180910390f35b34801561022b57600080fd5b50610246600480360381019061024191906112f8565b610e49565b005b3273ffffffffffffffffffffffffffffffffffffffff163373ffffffffffffffffffffffffffffffffffffffff16036102b6576040517f08c379a00000000000000000000000000000000000000000000000000000000081526004016102ad9061176b565b60405180910390fd5b60008054906101000a900473ffffffffffffffffffffffffffffffffffffffff1673ffffffffffffffffffffffffffffffffffffffff168473ffffffffffffffffffffffffffffffffffffffff1614610344576040517f08c379a000000000000000000000000000000000000000000000000000000000815260040161033b906117d7565b60405180910390fd5b6003600082815260200190815260200160002060009054906101000a900460ff16156103a5576040517f08c379a000000000000000000000000000000000000000000000000000000000815260040161039c90611869565b60405180910390fd5b32945060006001600083815260200190815260200160002090508373ffffffffffffffffffffffffffffffffffffffff16833273ffffffffffffffffffffffffffffffffffffffff167f52d980971cfdd582c671acef7d86dc7af41cd583707c3950b2a057c688b015e560405160405180910390a4858160010160006101000a81548173ffffffffffffffffffffffffffffffffffffffff021916908373ffffffffffffffffffffffffffffffffffffffff160217905550848160020160006101000a81548173ffffffffffffffffffffffffffffffffffffffff021916908373ffffffffffffffffffffffffffffffffffffffff160217905550838160030160006101000a81548173ffffffffffffffffffffffffffffffffffffffff021916908373ffffffffffffffffffffffffffffffffffffffff16021790555082816004018190555060646004846104fb91906118b8565b6105059190611929565b8160050181905550606460048461051c91906118b8565b6105269190611929565b83610531919061195a565b816006018190555060008160070160006101000a81548160ff0219169083600281111561056157610560611343565b5b0217905550600282908060018154018082558091505060019003906000526020600020016000909190919091505560016003600084815260200190815260200160002060006101000a81548160ff0219169083151502179055507fadbe1d417ea08e246cdc4fabd90b42aac916654870ce2adf40af374c2fddc323828787876040516105f094939291906119ed565b60405180910390a1505050505050565b61060861114b565b6001600083815260200190815260200160002060405180610100016040529081600082015481526020016001820160009054906101000a900473ffffffffffffffffffffffffffffffffffffffff1673ffffffffffffffffffffffffffffffffffffffff1673ffffffffffffffffffffffffffffffffffffffff1681526020016002820160009054906101000a900473ffffffffffffffffffffffffffffffffffffffff1673ffffffffffffffffffffffffffffffffffffffff1673ffffffffffffffffffffffffffffffffffffffff1681526020016003820160009054906101000a900473ffffffffffffffffffffffffffffffffffffffff1673ffffffffffffffffffffffffffffffffffffffff1673ffffffffffffffffffffffffffffffffffffffff1681526020016004820154815260200160058201548152602001600682015481526020016007820160009054906101000a900460ff16600281111561077657610775611343565b5b600281111561078857610787611343565b5b815250509050919050565b606060028054905067ffffffffffffffff8111156107b4576107b3611a32565b5b6040519080825280602002602001820160405280156107ed57816020015b6107da61114b565b8152602001906001900390816107d25790505b50905060005b6002805490508110156109df5760006002828154811061081657610815611a61565b5b9060005260206000200154905060006001600083815260200190815260200160002090508060405180610100016040529081600082015481526020016001820160009054906101000a900473ffffffffffffffffffffffffffffffffffffffff1673ffffffffffffffffffffffffffffffffffffffff1673ffffffffffffffffffffffffffffffffffffffff1681526020016002820160009054906101000a900473ffffffffffffffffffffffffffffffffffffffff1673ffffffffffffffffffffffffffffffffffffffff1673ffffffffffffffffffffffffffffffffffffffff1681526020016003820160009054906101000a900473ffffffffffffffffffffffffffffffffffffffff1673ffffffffffffffffffffffffffffffffffffffff1673ffffffffffffffffffffffffffffffffffffffff1681526020016004820154815260200160058201548152602001600682015481526020016007820160009054906101000a900460ff16600281111561099657610995611343565b5b60028111156109a8576109a7611343565b5b815250508484815181106109bf576109be611a61565b5b6020026020010181905250505080806109d790611a90565b9150506107f3565b5090565b6001600082815260200190815260200160002060020160009054906101000a900473ffffffffffffffffffffffffffffffffffffffff1673ffffffffffffffffffffffffffffffffffffffff163373ffffffffffffffffffffffffffffffffffffffff1614610a87576040517f08c379a0000000000000000000000000000000000000000000000000000000008152600401610a7e90611b4a565b60405180910390fd5b600280811115610a9a57610a99611343565b5b6001600083815260200190815260200160002060070160009054906101000a900460ff166002811115610ad057610acf611343565b5b14610b10576040517f08c379a0000000000000000000000000000000000000000000000000000000008152600401610b0790611bdc565b60405180910390fd5b7f2b7abb5f31f2c519b24191b6cdc9c31c4b3ffbb0d1326476c841f46a7abe7a076001600083815260200190815260200160002060050154604051610b5591906116cd565b60405180910390a16001600082815260200190815260200160002060020160009054906101000a900473ffffffffffffffffffffffffffffffffffffffff1673ffffffffffffffffffffffffffffffffffffffff166108fc670de0b6b3a76400006001600085815260200190815260200160002060050154610bd79190611929565b9081150290604051600060405180830381858888f19350505050158015610c02573d6000803e3d6000fd5b5050565b600060016000838152602001908152602001600020905060006002811115610c3157610c30611343565b5b8160070160009054906101000a900460ff166002811115610c5557610c54611343565b5b14610c95576040517f08c379a0000000000000000000000000000000000000000000000000000000008152600401610c8c90611c48565b60405180910390fd5b80600401543414610cdb576040517f08c379a0000000000000000000000000000000000000000000000000000000008152600401610cd290611cb4565b60405180910390fd5b343373ffffffffffffffffffffffffffffffffffffffff167f79dd404333f53df80e447b7206ac3eb731dae6b18eafb1b20f921236a925dadb60405160405180910390a360018160070160006101000a81548160ff02191690836002811115610d4757610d46611343565b5b02179055505050565b60016020528060005260406000206000915090508060000154908060010160009054906101000a900473ffffffffffffffffffffffffffffffffffffffff16908060020160009054906101000a900473ffffffffffffffffffffffffffffffffffffffff16908060030160009054906101000a900473ffffffffffffffffffffffffffffffffffffffff16908060040154908060050154908060060154908060070160009054906101000a900460ff16905088565b60036020528060005260406000206000915054906101000a900460ff1681565b60028181548110610e3557600080fd5b906000526020600020016000915090505481565b806001600082815260200190815260200160002060010160009054906101000a900473ffffffffffffffffffffffffffffffffffffffff1673ffffffffffffffffffffffffffffffffffffffff163373ffffffffffffffffffffffffffffffffffffffff1614610eee576040517f08c379a0000000000000000000000000000000000000000000000000000000008152600401610ee590611d46565b60405180910390fd5b600060016000848152602001908152602001600020905060016002811115610f1957610f18611343565b5b8160070160009054906101000a900460ff166002811115610f3d57610f3c611343565b5b14610f7d576040517f08c379a0000000000000000000000000000000000000000000000000000000008152600401610f7490611dd8565b60405180910390fd5b80600601543373ffffffffffffffffffffffffffffffffffffffff167f4f45ff71cc926567de0e512390ab55261ebe53656b7e65dbc0d36cdbfbd1db9160405160405180910390a37fb7bfee38fec7e6a347cf07cbadc25c4b6f53478abf96920f9146b4186768a1c18160060154604051610ff891906116cd565b60405180910390a18060030160009054906101000a900473ffffffffffffffffffffffffffffffffffffffff1673ffffffffffffffffffffffffffffffffffffffff166108fc82600601549081150290604051600060405180830381858888f1935050505015801561106e573d6000803e3d6000fd5b507f2b7abb5f31f2c519b24191b6cdc9c31c4b3ffbb0d1326476c841f46a7abe7a0781600501546040516110a291906116cd565b60405180910390a18060020160009054906101000a900473ffffffffffffffffffffffffffffffffffffffff1673ffffffffffffffffffffffffffffffffffffffff166108fc82600501549081150290604051600060405180830381858888f19350505050158015611118573d6000803e3d6000fd5b5060028160070160006101000a81548160ff0219169083600281111561114157611140611343565b5b0217905550505050565b60405180610100016040528060008152602001600073ffffffffffffffffffffffffffffffffffffffff168152602001600073ffffffffffffffffffffffffffffffffffffffff168152602001600073ffffffffffffffffffffffffffffffffffffffff168152602001600081526020016000815260200160008152602001600060028111156111de576111dd611343565b5b81525090565b600080fd5b600073ffffffffffffffffffffffffffffffffffffffff82169050919050565b6000611214826111e9565b9050919050565b61122481611209565b811461122f57600080fd5b50565b6000813590506112418161121b565b92915050565b6000819050919050565b61125a81611247565b811461126557600080fd5b50565b60008135905061127781611251565b92915050565b600080600080600060a08688031215611299576112986111e4565b5b60006112a788828901611232565b95505060206112b888828901611232565b94505060406112c988828901611232565b93505060606112da88828901611268565b92505060806112eb88828901611268565b9150509295509295909350565b60006020828403121561130e5761130d6111e4565b5b600061131c84828501611268565b91505092915050565b61132e81611247565b82525050565b61133d81611209565b82525050565b7f4e487b7100000000000000000000000000000000000000000000000000000000600052602160045260246000fd5b6003811061138357611382611343565b5b50565b600081905061139482611372565b919050565b60006113a482611386565b9050919050565b6113b481611399565b82525050565b610100820160008201516113d16000850182611325565b5060208201516113e46020850182611334565b5060408201516113f76040850182611334565b50606082015161140a6060850182611334565b50608082015161141d6080850182611325565b5060a082015161143060a0850182611325565b5060c082015161144360c0850182611325565b5060e082015161145660e08501826113ab565b50505050565b60006101008201905061147260008301846113ba565b92915050565b600081519050919050565b600082825260208201905092915050565b6000819050602082019050919050565b610100820160008201516114bb6000850182611325565b5060208201516114ce6020850182611334565b5060408201516114e16040850182611334565b5060608201516114f46060850182611334565b5060808201516115076080850182611325565b5060a082015161151a60a0850182611325565b5060c082015161152d60c0850182611325565b5060e082015161154060e08501826113ab565b50505050565b600061155283836114a4565b6101008301905092915050565b6000602082019050919050565b600061157782611478565b6115818185611483565b935061158c83611494565b8060005b838110156115bd5781516115a48882611546565b97506115af8361155f565b925050600181019050611590565b5085935050505092915050565b600060208201905081810360008301526115e4818461156c565b905092915050565b6115f581611247565b82525050565b61160481611209565b82525050565b61161381611399565b82525050565b60006101008201905061162f600083018b6115ec565b61163c602083018a6115fb565b61164960408301896115fb565b61165660608301886115fb565b61166360808301876115ec565b61167060a08301866115ec565b61167d60c08301856115ec565b61168a60e083018461160a565b9998505050505050505050565b60008115159050919050565b6116ac81611697565b82525050565b60006020820190506116c760008301846116a3565b92915050565b60006020820190506116e260008301846115ec565b92915050565b600082825260208201905092915050565b7f46756e6374696f6e206d7573742062652063616c6c65642066726f6d2061206360008201527f6f6e747261637400000000000000000000000000000000000000000000000000602082015250565b60006117556027836116e8565b9150611760826116f9565b604082019050919050565b6000602082019050818103600083015261178481611748565b9050919050565b7f416374696f6e206e6f74207065726d6974746564000000000000000000000000600082015250565b60006117c16014836116e8565b91506117cc8261178b565b602082019050919050565b600060208201905081810360008301526117f0816117b4565b9050919050565b7f5472616e73616374696f6e2077697468207468652073616d652049442065786960008201527f7374730000000000000000000000000000000000000000000000000000000000602082015250565b60006118536023836116e8565b915061185e826117f7565b604082019050919050565b6000602082019050818103600083015261188281611846565b9050919050565b7f4e487b7100000000000000000000000000000000000000000000000000000000600052601160045260246000fd5b60006118c382611247565b91506118ce83611247565b92508282026118dc81611247565b915082820484148315176118f3576118f2611889565b5b5092915050565b7f4e487b7100000000000000000000000000000000000000000000000000000000600052601260045260246000fd5b600061193482611247565b915061193f83611247565b92508261194f5761194e6118fa565b5b828204905092915050565b600061196582611247565b915061197083611247565b925082820390508181111561198857611987611889565b5b92915050565b6000819050919050565b60006119b36119ae6119a9846111e9565b61198e565b6111e9565b9050919050565b60006119c582611998565b9050919050565b60006119d7826119ba565b9050919050565b6119e7816119cc565b82525050565b6000608082019050611a0260008301876115ec565b611a0f60208301866119de565b611a1c60408301856119de565b611a2960608301846119de565b95945050505050565b7f4e487b7100000000000000000000000000000000000000000000000000000000600052604160045260246000fd5b7f4e487b7100000000000000000000000000000000000000000000000000000000600052603260045260246000fd5b6000611a9b82611247565b91507fffffffffffffffffffffffffffffffffffffffffffffffffffffffffffffffff8203611acd57611acc611889565b5b600182019050919050565b7f4164647265737320636f6e6669726d696e67206973206e6f742061726269747260008201527f61746f7200000000000000000000000000000000000000000000000000000000602082015250565b6000611b346024836116e8565b9150611b3f82611ad8565b604082019050919050565b60006020820190508181036000830152611b6381611b27565b9050919050565b7f5472616e73616374696f6e206973206f6e676f696e672e20427579657220796560008201527f7420746f20636f6e6669726d2064656c69766572790000000000000000000000602082015250565b6000611bc66035836116e8565b9150611bd182611b6a565b604082019050919050565b60006020820190508181036000830152611bf581611bb9565b9050919050565b7f42757965722068617320616c7265616479207061696400000000000000000000600082015250565b6000611c326016836116e8565b9150611c3d82611bfc565b602082019050919050565b60006020820190508181036000830152611c6181611c25565b9050919050565b7f496e636f727265637420616d6f756e742073656e740000000000000000000000600082015250565b6000611c9e6015836116e8565b9150611ca982611c68565b602082019050919050565b60006020820190508181036000830152611ccd81611c91565b9050919050565b7f4f6e6c792062757965722063616e2063616c6c20746869732066756e6374696f60008201527f6e00000000000000000000000000000000000000000000000000000000000000602082015250565b6000611d306021836116e8565b9150611d3b82611cd4565b604082019050919050565b60006020820190508181036000830152611d5f81611d23565b9050919050565b7f5472616e73616374696f6e206973206e6f7420696e20636f727265637420737460008201527f6174650000000000000000000000000000000000000000000000000000000000602082015250565b6000611dc26023836116e8565b9150611dcd82611d66565b604082019050919050565b60006020820190508181036000830152611df181611db5565b905091905056fea2646970667358221220b31c6968e42b071d06e6db2a0c6495dbfa561a0ea579c7d2fc8194e6745ab61764736f6c63430008140033",
  "linkReferences": {},
  "deployedLinkReferences": {}
}