{
  "_format": "hh-sol-artifact-1",
  "contractName": "EscrowService",
  "sourceName": "contracts/Exchange.sol",
  "abi": [
    {
      "inputs": [],
      "stateMutability": "nonpayable",
      "type": "constructor"
    },
    {
      "anonymous": false,
      "inputs": [
        {
          "indexed": false,
          "internalType": "uint256",
          "name": "transactionId",
          "type": "uint256"
        },
        {
          "indexed": false,
          "internalType": "address",
          "name": "buyer",
          "type": "address"
        },
        {
          "indexed": false,
          "internalType": "address",
          "name": "arbitrator",
          "type": "address"
        },
        {
          "indexed": false,
          "internalType": "address",
          "name": "seller",
          "type": "address"
        }
      ],
      "name": "TransactionCreated",
      "type": "event"
    },
    {
      "anonymous": false,
      "inputs": [
        {
          "indexed": false,
          "internalType": "uint256",
          "name": "amount",
          "type": "uint256"
        }
      ],
      "name": "arbitratorPaid",
      "type": "event"
    },
    {
      "anonymous": false,
      "inputs": [
        {
          "indexed": true,
          "internalType": "address",
          "name": "buyer",
          "type": "address"
        },
        {
          "indexed": true,
          "internalType": "uint256",
          "name": "amountPaid",
          "type": "uint256"
        }
      ],
      "name": "buyerPaid",
      "type": "event"
    },
    {
      "anonymous": false,
      "inputs": [
        {
          "indexed": true,
          "internalType": "address",
          "name": "from",
          "type": "address"
        },
        {
          "indexed": true,
          "internalType": "uint256",
          "name": "amountPaid",
          "type": "uint256"
        }
      ],
      "name": "contractReceivesCash",
      "type": "event"
    },
    {
      "anonymous": false,
      "inputs": [
        {
          "indexed": true,
          "internalType": "address",
          "name": "from",
          "type": "address"
        },
        {
          "indexed": true,
          "internalType": "uint256",
          "name": "amountPaid",
          "type": "uint256"
        },
        {
          "indexed": true,
          "internalType": "address",
          "name": "to",
          "type": "address"
        }
      ],
      "name": "contractTransactionInitiated",
      "type": "event"
    },
    {
      "anonymous": false,
      "inputs": [
        {
          "indexed": true,
          "internalType": "address",
          "name": "buyer",
          "type": "address"
        },
        {
          "indexed": true,
          "internalType": "uint256",
          "name": "amountSent",
          "type": "uint256"
        }
      ],
      "name": "sellerGetsFundsAfterBuyerConfirmsDelivery",
      "type": "event"
    },
    {
      "anonymous": false,
      "inputs": [
        {
          "indexed": false,
          "internalType": "uint256",
          "name": "amount",
          "type": "uint256"
        }
      ],
      "name": "sellerPaid",
      "type": "event"
    },
    {
      "inputs": [
        {
          "internalType": "uint256",
          "name": "_transaction",
          "type": "uint256"
        }
      ],
      "name": "confirmDelivery",
      "outputs": [],
      "stateMutability": "nonpayable",
      "type": "function"
    },
    {
      "inputs": [
        {
          "internalType": "address payable",
          "name": "_buyer",
          "type": "address"
        },
        {
          "internalType": "address payable",
          "name": "_arbitrator",
          "type": "address"
        },
        {
          "internalType": "address payable",
          "name": "_seller",
          "type": "address"
        },
        {
          "internalType": "uint256",
          "name": "_itemPrice",
          "type": "uint256"
        },
        {
          "internalType": "uint256",
          "name": "_transaction",
          "type": "uint256"
        }
      ],
      "name": "createTransaction",
      "outputs": [],
      "stateMutability": "nonpayable",
      "type": "function"
    },
    {
      "inputs": [
        {
          "internalType": "uint256",
          "name": "_transaction",
          "type": "uint256"
        }
      ],
      "name": "depositToThisContract",
      "outputs": [],
      "stateMutability": "payable",
      "type": "function"
    },
    {
      "inputs": [],
      "name": "getAllTransactions",
      "outputs": [
        {
          "components": [
            {
              "internalType": "uint256",
              "name": "transactionId",
              "type": "uint256"
            },
            {
              "internalType": "address payable",
              "name": "buyer",
              "type": "address"
            },
            {
              "internalType": "address payable",
              "name": "arbitrator",
              "type": "address"
            },
            {
              "internalType": "address payable",
              "name": "seller",
              "type": "address"
            },
            {
              "internalType": "uint256",
              "name": "itemPrice",
              "type": "uint256"
            },
            {
              "internalType": "uint256",
              "name": "arbitratorFees",
              "type": "uint256"
            },
            {
              "internalType": "uint256",
              "name": "finalPrice",
              "type": "uint256"
            },
            {
              "internalType": "enum EscrowService.State",
              "name": "currentState",
              "type": "uint8"
            }
          ],
          "internalType": "struct EscrowService.Transaction[]",
          "name": "allTransactions",
          "type": "tuple[]"
        }
      ],
      "stateMutability": "view",
      "type": "function"
    },
    {
      "inputs": [
        {
          "internalType": "uint256",
          "name": "_transaction",
          "type": "uint256"
        }
      ],
      "name": "getTransactionDetails",
      "outputs": [
        {
          "components": [
            {
              "internalType": "uint256",
              "name": "transactionId",
              "type": "uint256"
            },
            {
              "internalType": "address payable",
              "name": "buyer",
              "type": "address"
            },
            {
              "internalType": "address payable",
              "name": "arbitrator",
              "type": "address"
            },
            {
              "internalType": "address payable",
              "name": "seller",
              "type": "address"
            },
            {
              "internalType": "uint256",
              "name": "itemPrice",
              "type": "uint256"
            },
            {
              "internalType": "uint256",
              "name": "arbitratorFees",
              "type": "uint256"
            },
            {
              "internalType": "uint256",
              "name": "finalPrice",
              "type": "uint256"
            },
            {
              "internalType": "enum EscrowService.State",
              "name": "currentState",
              "type": "uint8"
            }
          ],
          "internalType": "struct EscrowService.Transaction",
          "name": "",
          "type": "tuple"
        }
      ],
      "stateMutability": "view",
      "type": "function"
    },
    {
      "inputs": [
        {
          "internalType": "uint256",
          "name": "",
          "type": "uint256"
        }
      ],
      "name": "transactionIds",
      "outputs": [
        {
          "internalType": "uint256",
          "name": "",
          "type": "uint256"
        }
      ],
      "stateMutability": "view",
      "type": "function"
    },
    {
      "inputs": [
        {
          "internalType": "uint256",
          "name": "",
          "type": "uint256"
        }
      ],
      "name": "transactions",
      "outputs": [
        {
          "internalType": "uint256",
          "name": "transactionId",
          "type": "uint256"
        },
        {
          "internalType": "address payable",
          "name": "buyer",
          "type": "address"
        },
        {
          "internalType": "address payable",
          "name": "arbitrator",
          "type": "address"
        },
        {
          "internalType": "address payable",
          "name": "seller",
          "type": "address"
        },
        {
          "internalType": "uint256",
          "name": "itemPrice",
          "type": "uint256"
        },
        {
          "internalType": "uint256",
          "name": "arbitratorFees",
          "type": "uint256"
        },
        {
          "internalType": "uint256",
          "name": "finalPrice",
          "type": "uint256"
        },
        {
          "internalType": "enum EscrowService.State",
          "name": "currentState",
          "type": "uint8"
        }
      ],
      "stateMutability": "view",
      "type": "function"
    },
    {
      "inputs": [
        {
          "internalType": "uint256",
          "name": "",
          "type": "uint256"
        }
      ],
      "name": "usedTransactionIDs",
      "outputs": [
        {
          "internalType": "bool",
          "name": "",
          "type": "bool"
        }
      ],
      "stateMutability": "view",
      "type": "function"
    },
    {
      "inputs": [
        {
          "internalType": "uint256",
          "name": "_transaction",
          "type": "uint256"
        }
      ],
      "name": "withdrawToArbitrator",
      "outputs": [],
      "stateMutability": "nonpayable",
      "type": "function"
    }
  ],
  "bytecode": "0x608060405234801561001057600080fd5b50336000806101000a81548173ffffffffffffffffffffffffffffffffffffffff021916908373ffffffffffffffffffffffffffffffffffffffff160217905550611e37806100606000396000f3fe6080604052600436106100865760003560e01c806365714f631161005957806365714f63146101455780639ace38c214610161578063cfbeedbb146101a5578063e36f8dc5146101e2578063fd84cb971461021f57610086565b80630b98912b1461008b5780630fa683d3146100b457806327506f53146100f157806351b534231461011c575b600080fd5b34801561009757600080fd5b506100b260048036038101906100ad9190611286565b610248565b005b3480156100c057600080fd5b506100db60048036038101906100d69190611301565b610609565b6040516100e89190611465565b60405180910390f35b3480156100fd57600080fd5b5061010661079c565b60405161011391906115d3565b60405180910390f35b34801561012857600080fd5b50610143600480360381019061013e9190611301565b6109ec565b005b61015f600480360381019061015a9190611301565b610c0f565b005b34801561016d57600080fd5b5061018860048036038101906101839190611301565b610d59565b60405161019c989796959493929190611622565b60405180910390f35b3480156101b157600080fd5b506101cc60048036038101906101c79190611301565b610e0e565b6040516101d991906116bb565b60405180910390f35b3480156101ee57600080fd5b5061020960048036038101906102049190611301565b610e2e565b60405161021691906116d6565b60405180910390f35b34801561022b57600080fd5b5061024660048036038101906102419190611301565b610e52565b005b3273ffffffffffffffffffffffffffffffffffffffff163373ffffffffffffffffffffffffffffffffffffffff16036102b6576040517f08c379a00000000000000000000000000000000000000000000000000000000081526004016102ad90611774565b60405180910390fd5b60008054906101000a900473ffffffffffffffffffffffffffffffffffffffff1673ffffffffffffffffffffffffffffffffffffffff168473ffffffffffffffffffffffffffffffffffffffff1614610344576040517f08c379a000000000000000000000000000000000000000000000000000000000815260040161033b906117e0565b60405180910390fd5b6003600082815260200190815260200160002060009054906101000a900460ff16156103a5576040517f08c379a000000000000000000000000000000000000000000000000000000000815260040161039c90611872565b60405180910390fd5b32945060006001600083815260200190815260200160002090508373ffffffffffffffffffffffffffffffffffffffff16833273ffffffffffffffffffffffffffffffffffffffff167f52d980971cfdd582c671acef7d86dc7af41cd583707c3950b2a057c688b015e560405160405180910390a4818160000181905550858160010160006101000a81548173ffffffffffffffffffffffffffffffffffffffff021916908373ffffffffffffffffffffffffffffffffffffffff160217905550848160020160006101000a81548173ffffffffffffffffffffffffffffffffffffffff021916908373ffffffffffffffffffffffffffffffffffffffff160217905550838160030160006101000a81548173ffffffffffffffffffffffffffffffffffffffff021916908373ffffffffffffffffffffffffffffffffffffffff160217905550828160040181905550606460048461050491906118c1565b61050e9190611932565b8160050181905550606460048461052591906118c1565b61052f9190611932565b8361053a9190611963565b816006018190555060008160070160006101000a81548160ff0219169083600281111561056a5761056961134c565b5b0217905550600282908060018154018082558091505060019003906000526020600020016000909190919091505560016003600084815260200190815260200160002060006101000a81548160ff0219169083151502179055507fadbe1d417ea08e246cdc4fabd90b42aac916654870ce2adf40af374c2fddc323828787876040516105f994939291906119f6565b60405180910390a1505050505050565b610611611154565b6001600083815260200190815260200160002060405180610100016040529081600082015481526020016001820160009054906101000a900473ffffffffffffffffffffffffffffffffffffffff1673ffffffffffffffffffffffffffffffffffffffff1673ffffffffffffffffffffffffffffffffffffffff1681526020016002820160009054906101000a900473ffffffffffffffffffffffffffffffffffffffff1673ffffffffffffffffffffffffffffffffffffffff1673ffffffffffffffffffffffffffffffffffffffff1681526020016003820160009054906101000a900473ffffffffffffffffffffffffffffffffffffffff1673ffffffffffffffffffffffffffffffffffffffff1673ffffffffffffffffffffffffffffffffffffffff1681526020016004820154815260200160058201548152602001600682015481526020016007820160009054906101000a900460ff16600281111561077f5761077e61134c565b5b60028111156107915761079061134c565b5b815250509050919050565b606060028054905067ffffffffffffffff8111156107bd576107bc611a3b565b5b6040519080825280602002602001820160405280156107f657816020015b6107e3611154565b8152602001906001900390816107db5790505b50905060005b6002805490508110156109e85760006002828154811061081f5761081e611a6a565b5b9060005260206000200154905060006001600083815260200190815260200160002090508060405180610100016040529081600082015481526020016001820160009054906101000a900473ffffffffffffffffffffffffffffffffffffffff1673ffffffffffffffffffffffffffffffffffffffff1673ffffffffffffffffffffffffffffffffffffffff1681526020016002820160009054906101000a900473ffffffffffffffffffffffffffffffffffffffff1673ffffffffffffffffffffffffffffffffffffffff1673ffffffffffffffffffffffffffffffffffffffff1681526020016003820160009054906101000a900473ffffffffffffffffffffffffffffffffffffffff1673ffffffffffffffffffffffffffffffffffffffff1673ffffffffffffffffffffffffffffffffffffffff1681526020016004820154815260200160058201548152602001600682015481526020016007820160009054906101000a900460ff16600281111561099f5761099e61134c565b5b60028111156109b1576109b061134c565b5b815250508484815181106109c8576109c7611a6a565b5b6020026020010181905250505080806109e090611a99565b9150506107fc565b5090565b6001600082815260200190815260200160002060020160009054906101000a900473ffffffffffffffffffffffffffffffffffffffff1673ffffffffffffffffffffffffffffffffffffffff163373ffffffffffffffffffffffffffffffffffffffff1614610a90576040517f08c379a0000000000000000000000000000000000000000000000000000000008152600401610a8790611b53565b60405180910390fd5b600280811115610aa357610aa261134c565b5b6001600083815260200190815260200160002060070160009054906101000a900460ff166002811115610ad957610ad861134c565b5b14610b19576040517f08c379a0000000000000000000000000000000000000000000000000000000008152600401610b1090611be5565b60405180910390fd5b7f2b7abb5f31f2c519b24191b6cdc9c31c4b3ffbb0d1326476c841f46a7abe7a076001600083815260200190815260200160002060050154604051610b5e91906116d6565b60405180910390a16001600082815260200190815260200160002060020160009054906101000a900473ffffffffffffffffffffffffffffffffffffffff1673ffffffffffffffffffffffffffffffffffffffff166108fc670de0b6b3a76400006001600085815260200190815260200160002060050154610be09190611932565b9081150290604051600060405180830381858888f19350505050158015610c0b573d6000803e3d6000fd5b5050565b600060016000838152602001908152602001600020905060006002811115610c3a57610c3961134c565b5b8160070160009054906101000a900460ff166002811115610c5e57610c5d61134c565b5b14610c9e576040517f08c379a0000000000000000000000000000000000000000000000000000000008152600401610c9590611c51565b60405180910390fd5b80600401543414610ce4576040517f08c379a0000000000000000000000000000000000000000000000000000000008152600401610cdb90611cbd565b60405180910390fd5b343373ffffffffffffffffffffffffffffffffffffffff167f79dd404333f53df80e447b7206ac3eb731dae6b18eafb1b20f921236a925dadb60405160405180910390a360018160070160006101000a81548160ff02191690836002811115610d5057610d4f61134c565b5b02179055505050565b60016020528060005260406000206000915090508060000154908060010160009054906101000a900473ffffffffffffffffffffffffffffffffffffffff16908060020160009054906101000a900473ffffffffffffffffffffffffffffffffffffffff16908060030160009054906101000a900473ffffffffffffffffffffffffffffffffffffffff16908060040154908060050154908060060154908060070160009054906101000a900460ff16905088565b60036020528060005260406000206000915054906101000a900460ff1681565b60028181548110610e3e57600080fd5b906000526020600020016000915090505481565b806001600082815260200190815260200160002060010160009054906101000a900473ffffffffffffffffffffffffffffffffffffffff1673ffffffffffffffffffffffffffffffffffffffff163373ffffffffffffffffffffffffffffffffffffffff1614610ef7576040517f08c379a0000000000000000000000000000000000000000000000000000000008152600401610eee90611d4f565b60405180910390fd5b600060016000848152602001908152602001600020905060016002811115610f2257610f2161134c565b5b8160070160009054906101000a900460ff166002811115610f4657610f4561134c565b5b14610f86576040517f08c379a0000000000000000000000000000000000000000000000000000000008152600401610f7d90611de1565b60405180910390fd5b80600601543373ffffffffffffffffffffffffffffffffffffffff167f4f45ff71cc926567de0e512390ab55261ebe53656b7e65dbc0d36cdbfbd1db9160405160405180910390a37fb7bfee38fec7e6a347cf07cbadc25c4b6f53478abf96920f9146b4186768a1c1816006015460405161100191906116d6565b60405180910390a18060030160009054906101000a900473ffffffffffffffffffffffffffffffffffffffff1673ffffffffffffffffffffffffffffffffffffffff166108fc82600601549081150290604051600060405180830381858888f19350505050158015611077573d6000803e3d6000fd5b507f2b7abb5f31f2c519b24191b6cdc9c31c4b3ffbb0d1326476c841f46a7abe7a0781600501546040516110ab91906116d6565b60405180910390a18060020160009054906101000a900473ffffffffffffffffffffffffffffffffffffffff1673ffffffffffffffffffffffffffffffffffffffff166108fc82600501549081150290604051600060405180830381858888f19350505050158015611121573d6000803e3d6000fd5b5060028160070160006101000a81548160ff0219169083600281111561114a5761114961134c565b5b0217905550505050565b60405180610100016040528060008152602001600073ffffffffffffffffffffffffffffffffffffffff168152602001600073ffffffffffffffffffffffffffffffffffffffff168152602001600073ffffffffffffffffffffffffffffffffffffffff168152602001600081526020016000815260200160008152602001600060028111156111e7576111e661134c565b5b81525090565b600080fd5b600073ffffffffffffffffffffffffffffffffffffffff82169050919050565b600061121d826111f2565b9050919050565b61122d81611212565b811461123857600080fd5b50565b60008135905061124a81611224565b92915050565b6000819050919050565b61126381611250565b811461126e57600080fd5b50565b6000813590506112808161125a565b92915050565b600080600080600060a086880312156112a2576112a16111ed565b5b60006112b08882890161123b565b95505060206112c18882890161123b565b94505060406112d28882890161123b565b93505060606112e388828901611271565b92505060806112f488828901611271565b9150509295509295909350565b600060208284031215611317576113166111ed565b5b600061132584828501611271565b91505092915050565b61133781611250565b82525050565b61134681611212565b82525050565b7f4e487b7100000000000000000000000000000000000000000000000000000000600052602160045260246000fd5b6003811061138c5761138b61134c565b5b50565b600081905061139d8261137b565b919050565b60006113ad8261138f565b9050919050565b6113bd816113a2565b82525050565b610100820160008201516113da600085018261132e565b5060208201516113ed602085018261133d565b506040820151611400604085018261133d565b506060820151611413606085018261133d565b506080820151611426608085018261132e565b5060a082015161143960a085018261132e565b5060c082015161144c60c085018261132e565b5060e082015161145f60e08501826113b4565b50505050565b60006101008201905061147b60008301846113c3565b92915050565b600081519050919050565b600082825260208201905092915050565b6000819050602082019050919050565b610100820160008201516114c4600085018261132e565b5060208201516114d7602085018261133d565b5060408201516114ea604085018261133d565b5060608201516114fd606085018261133d565b506080820151611510608085018261132e565b5060a082015161152360a085018261132e565b5060c082015161153660c085018261132e565b5060e082015161154960e08501826113b4565b50505050565b600061155b83836114ad565b6101008301905092915050565b6000602082019050919050565b600061158082611481565b61158a818561148c565b93506115958361149d565b8060005b838110156115c65781516115ad888261154f565b97506115b883611568565b925050600181019050611599565b5085935050505092915050565b600060208201905081810360008301526115ed8184611575565b905092915050565b6115fe81611250565b82525050565b61160d81611212565b82525050565b61161c816113a2565b82525050565b600061010082019050611638600083018b6115f5565b611645602083018a611604565b6116526040830189611604565b61165f6060830188611604565b61166c60808301876115f5565b61167960a08301866115f5565b61168660c08301856115f5565b61169360e0830184611613565b9998505050505050505050565b60008115159050919050565b6116b5816116a0565b82525050565b60006020820190506116d060008301846116ac565b92915050565b60006020820190506116eb60008301846115f5565b92915050565b600082825260208201905092915050565b7f46756e6374696f6e206d7573742062652063616c6c65642066726f6d2061206360008201527f6f6e747261637400000000000000000000000000000000000000000000000000602082015250565b600061175e6027836116f1565b915061176982611702565b604082019050919050565b6000602082019050818103600083015261178d81611751565b9050919050565b7f416374696f6e206e6f74207065726d6974746564000000000000000000000000600082015250565b60006117ca6014836116f1565b91506117d582611794565b602082019050919050565b600060208201905081810360008301526117f9816117bd565b9050919050565b7f5472616e73616374696f6e2077697468207468652073616d652049442065786960008201527f7374730000000000000000000000000000000000000000000000000000000000602082015250565b600061185c6023836116f1565b915061186782611800565b604082019050919050565b6000602082019050818103600083015261188b8161184f565b9050919050565b7f4e487b7100000000000000000000000000000000000000000000000000000000600052601160045260246000fd5b60006118cc82611250565b91506118d783611250565b92508282026118e581611250565b915082820484148315176118fc576118fb611892565b5b5092915050565b7f4e487b7100000000000000000000000000000000000000000000000000000000600052601260045260246000fd5b600061193d82611250565b915061194883611250565b92508261195857611957611903565b5b828204905092915050565b600061196e82611250565b915061197983611250565b925082820390508181111561199157611990611892565b5b92915050565b6000819050919050565b60006119bc6119b76119b2846111f2565b611997565b6111f2565b9050919050565b60006119ce826119a1565b9050919050565b60006119e0826119c3565b9050919050565b6119f0816119d5565b82525050565b6000608082019050611a0b60008301876115f5565b611a1860208301866119e7565b611a2560408301856119e7565b611a3260608301846119e7565b95945050505050565b7f4e487b7100000000000000000000000000000000000000000000000000000000600052604160045260246000fd5b7f4e487b7100000000000000000000000000000000000000000000000000000000600052603260045260246000fd5b6000611aa482611250565b91507fffffffffffffffffffffffffffffffffffffffffffffffffffffffffffffffff8203611ad657611ad5611892565b5b600182019050919050565b7f4164647265737320636f6e6669726d696e67206973206e6f742061726269747260008201527f61746f7200000000000000000000000000000000000000000000000000000000602082015250565b6000611b3d6024836116f1565b9150611b4882611ae1565b604082019050919050565b60006020820190508181036000830152611b6c81611b30565b9050919050565b7f5472616e73616374696f6e206973206f6e676f696e672e20427579657220796560008201527f7420746f20636f6e6669726d2064656c69766572790000000000000000000000602082015250565b6000611bcf6035836116f1565b9150611bda82611b73565b604082019050919050565b60006020820190508181036000830152611bfe81611bc2565b9050919050565b7f42757965722068617320616c7265616479207061696400000000000000000000600082015250565b6000611c3b6016836116f1565b9150611c4682611c05565b602082019050919050565b60006020820190508181036000830152611c6a81611c2e565b9050919050565b7f496e636f727265637420616d6f756e742073656e740000000000000000000000600082015250565b6000611ca76015836116f1565b9150611cb282611c71565b602082019050919050565b60006020820190508181036000830152611cd681611c9a565b9050919050565b7f4f6e6c792062757965722063616e2063616c6c20746869732066756e6374696f60008201527f6e00000000000000000000000000000000000000000000000000000000000000602082015250565b6000611d396021836116f1565b9150611d4482611cdd565b604082019050919050565b60006020820190508181036000830152611d6881611d2c565b9050919050565b7f5472616e73616374696f6e206973206e6f7420696e20636f727265637420737460008201527f6174650000000000000000000000000000000000000000000000000000000000602082015250565b6000611dcb6023836116f1565b9150611dd682611d6f565b604082019050919050565b60006020820190508181036000830152611dfa81611dbe565b905091905056fea2646970667358221220dea55d7ed9ab874536e66ca215e5b8b6084adea59bdbe0a874238c5863dc724d64736f6c63430008140033",
  "linkReferences": {},
  "deployedLinkReferences": {}
}