{
  "_format": "hh-sol-artifact-1",
  "contractName": "ExchangeSite",
  "sourceName": "contracts/Exchange.sol",
  "abi": [
    {
      "inputs": [
        {
          "internalType": "address",
          "name": "_escrow",
          "type": "address"
        }
      ],
      "stateMutability": "nonpayable",
      "type": "constructor"
    },
    {
      "inputs": [],
      "name": "ReentrancyGuardReentrantCall",
      "type": "error"
    },
    {
      "inputs": [],
      "name": "itemDoesntExist",
      "type": "error"
    },
    {
      "inputs": [],
      "name": "itemNotListed",
      "type": "error"
    },
    {
      "inputs": [],
      "name": "notOwner",
      "type": "error"
    },
    {
      "inputs": [],
      "name": "shopDoesntExist",
      "type": "error"
    },
    {
      "anonymous": false,
      "inputs": [
        {
          "indexed": false,
          "internalType": "address",
          "name": "buyer",
          "type": "address"
        },
        {
          "indexed": false,
          "internalType": "uint256",
          "name": "value",
          "type": "uint256"
        }
      ],
      "name": "buyerBought",
      "type": "event"
    },
    {
      "anonymous": false,
      "inputs": [
        {
          "indexed": true,
          "internalType": "uint256",
          "name": "shopID",
          "type": "uint256"
        },
        {
          "indexed": false,
          "internalType": "string",
          "name": "name",
          "type": "string"
        },
        {
          "indexed": false,
          "internalType": "string",
          "name": "description",
          "type": "string"
        },
        {
          "indexed": false,
          "internalType": "uint256",
          "name": "price",
          "type": "uint256"
        }
      ],
      "name": "itemAdded",
      "type": "event"
    },
    {
      "anonymous": false,
      "inputs": [
        {
          "indexed": false,
          "internalType": "uint256",
          "name": "itemID",
          "type": "uint256"
        }
      ],
      "name": "itemDeleted",
      "type": "event"
    },
    {
      "anonymous": false,
      "inputs": [
        {
          "indexed": false,
          "internalType": "uint256",
          "name": "itemID",
          "type": "uint256"
        }
      ],
      "name": "itemUnlisted",
      "type": "event"
    },
    {
      "anonymous": false,
      "inputs": [],
      "name": "ownerClosedShop",
      "type": "event"
    },
    {
      "anonymous": false,
      "inputs": [
        {
          "indexed": false,
          "internalType": "uint256",
          "name": "_shopID",
          "type": "uint256"
        }
      ],
      "name": "ownerForeverClosedShop",
      "type": "event"
    },
    {
      "anonymous": false,
      "inputs": [
        {
          "indexed": false,
          "internalType": "uint256",
          "name": "newShopID",
          "type": "uint256"
        },
        {
          "indexed": false,
          "internalType": "string",
          "name": "name",
          "type": "string"
        }
      ],
      "name": "ownerOpenedShop",
      "type": "event"
    },
    {
      "inputs": [
        {
          "internalType": "uint256",
          "name": "_shopID",
          "type": "uint256"
        },
        {
          "internalType": "string",
          "name": "_name",
          "type": "string"
        },
        {
          "internalType": "string",
          "name": "_description",
          "type": "string"
        },
        {
          "internalType": "string",
          "name": "_item_im",
          "type": "string"
        },
        {
          "internalType": "uint256",
          "name": "_price",
          "type": "uint256"
        }
      ],
      "name": "addItem",
      "outputs": [],
      "stateMutability": "nonpayable",
      "type": "function"
    },
    {
      "inputs": [
        {
          "internalType": "address",
          "name": "",
          "type": "address"
        },
        {
          "internalType": "uint256",
          "name": "",
          "type": "uint256"
        }
      ],
      "name": "addressToShopIds",
      "outputs": [
        {
          "internalType": "uint256",
          "name": "",
          "type": "uint256"
        }
      ],
      "stateMutability": "view",
      "type": "function"
    },
    {
      "inputs": [
        {
          "internalType": "uint256",
          "name": "_itemID",
          "type": "uint256"
        },
        {
          "internalType": "uint256",
          "name": "_shopID",
          "type": "uint256"
        }
      ],
      "name": "buyItem",
      "outputs": [],
      "stateMutability": "payable",
      "type": "function"
    },
    {
      "inputs": [
        {
          "internalType": "uint256",
          "name": "_shopID",
          "type": "uint256"
        }
      ],
      "name": "closeShop",
      "outputs": [],
      "stateMutability": "nonpayable",
      "type": "function"
    },
    {
      "inputs": [
        {
          "internalType": "uint256",
          "name": "_shopID",
          "type": "uint256"
        },
        {
          "internalType": "uint256",
          "name": "_itemID",
          "type": "uint256"
        }
      ],
      "name": "deleteItem",
      "outputs": [],
      "stateMutability": "nonpayable",
      "type": "function"
    },
    {
      "inputs": [
        {
          "internalType": "uint256",
          "name": "_shopID",
          "type": "uint256"
        }
      ],
      "name": "foreverCloseShop",
      "outputs": [],
      "stateMutability": "nonpayable",
      "type": "function"
    },
    {
      "inputs": [],
      "name": "getAllItems",
      "outputs": [
        {
          "components": [
            {
              "internalType": "string",
              "name": "name",
              "type": "string"
            },
            {
              "internalType": "uint256",
              "name": "itemID",
              "type": "uint256"
            },
            {
              "internalType": "uint256",
              "name": "shopId",
              "type": "uint256"
            },
            {
              "internalType": "string",
              "name": "description",
              "type": "string"
            },
            {
              "internalType": "string",
              "name": "item_im",
              "type": "string"
            },
            {
              "internalType": "uint256",
              "name": "price",
              "type": "uint256"
            },
            {
              "internalType": "bool",
              "name": "listed",
              "type": "bool"
            }
          ],
          "internalType": "struct ExchangeSite.Item[]",
          "name": "",
          "type": "tuple[]"
        }
      ],
      "stateMutability": "view",
      "type": "function"
    },
    {
      "inputs": [],
      "name": "getAllShops",
      "outputs": [
        {
          "components": [
            {
              "internalType": "address payable",
              "name": "shopAddress",
              "type": "address"
            },
            {
              "internalType": "string",
              "name": "name",
              "type": "string"
            },
            {
              "internalType": "string",
              "name": "shop_profile",
              "type": "string"
            },
            {
              "internalType": "uint256",
              "name": "shopID",
              "type": "uint256"
            },
            {
              "internalType": "bool",
              "name": "isOpen",
              "type": "bool"
            }
          ],
          "internalType": "struct ExchangeSite.Shop[]",
          "name": "",
          "type": "tuple[]"
        }
      ],
      "stateMutability": "view",
      "type": "function"
    },
    {
      "inputs": [
        {
          "internalType": "uint256",
          "name": "_itemID",
          "type": "uint256"
        }
      ],
      "name": "getItemByID",
      "outputs": [
        {
          "components": [
            {
              "internalType": "string",
              "name": "name",
              "type": "string"
            },
            {
              "internalType": "uint256",
              "name": "itemID",
              "type": "uint256"
            },
            {
              "internalType": "uint256",
              "name": "shopId",
              "type": "uint256"
            },
            {
              "internalType": "string",
              "name": "description",
              "type": "string"
            },
            {
              "internalType": "string",
              "name": "item_im",
              "type": "string"
            },
            {
              "internalType": "uint256",
              "name": "price",
              "type": "uint256"
            },
            {
              "internalType": "bool",
              "name": "listed",
              "type": "bool"
            }
          ],
          "internalType": "struct ExchangeSite.Item",
          "name": "",
          "type": "tuple"
        }
      ],
      "stateMutability": "view",
      "type": "function"
    },
    {
      "inputs": [
        {
          "internalType": "string",
          "name": "_itemName",
          "type": "string"
        }
      ],
      "name": "getItemByName",
      "outputs": [
        {
          "components": [
            {
              "internalType": "string",
              "name": "name",
              "type": "string"
            },
            {
              "internalType": "uint256",
              "name": "itemID",
              "type": "uint256"
            },
            {
              "internalType": "uint256",
              "name": "shopId",
              "type": "uint256"
            },
            {
              "internalType": "string",
              "name": "description",
              "type": "string"
            },
            {
              "internalType": "string",
              "name": "item_im",
              "type": "string"
            },
            {
              "internalType": "uint256",
              "name": "price",
              "type": "uint256"
            },
            {
              "internalType": "bool",
              "name": "listed",
              "type": "bool"
            }
          ],
          "internalType": "struct ExchangeSite.Item",
          "name": "",
          "type": "tuple"
        }
      ],
      "stateMutability": "view",
      "type": "function"
    },
    {
      "inputs": [
        {
          "internalType": "uint256",
          "name": "_shopID",
          "type": "uint256"
        },
        {
          "internalType": "uint256",
          "name": "_itemID",
          "type": "uint256"
        }
      ],
      "name": "getItemIndex",
      "outputs": [
        {
          "internalType": "uint256",
          "name": "",
          "type": "uint256"
        }
      ],
      "stateMutability": "view",
      "type": "function"
    },
    {
      "inputs": [
        {
          "internalType": "uint256",
          "name": "_shopID",
          "type": "uint256"
        }
      ],
      "name": "getItemsForShop",
      "outputs": [
        {
          "components": [
            {
              "internalType": "string",
              "name": "name",
              "type": "string"
            },
            {
              "internalType": "uint256",
              "name": "itemID",
              "type": "uint256"
            },
            {
              "internalType": "uint256",
              "name": "shopId",
              "type": "uint256"
            },
            {
              "internalType": "string",
              "name": "description",
              "type": "string"
            },
            {
              "internalType": "string",
              "name": "item_im",
              "type": "string"
            },
            {
              "internalType": "uint256",
              "name": "price",
              "type": "uint256"
            },
            {
              "internalType": "bool",
              "name": "listed",
              "type": "bool"
            }
          ],
          "internalType": "struct ExchangeSite.Item[]",
          "name": "",
          "type": "tuple[]"
        }
      ],
      "stateMutability": "view",
      "type": "function"
    },
    {
      "inputs": [
        {
          "internalType": "address",
          "name": "_shopAddress",
          "type": "address"
        }
      ],
      "name": "getShopDetails",
      "outputs": [
        {
          "internalType": "address",
          "name": "",
          "type": "address"
        },
        {
          "internalType": "string",
          "name": "",
          "type": "string"
        },
        {
          "internalType": "string",
          "name": "",
          "type": "string"
        },
        {
          "internalType": "uint256",
          "name": "",
          "type": "uint256"
        },
        {
          "internalType": "bool",
          "name": "",
          "type": "bool"
        }
      ],
      "stateMutability": "view",
      "type": "function"
    },
    {
      "inputs": [
        {
          "internalType": "address",
          "name": "_owner",
          "type": "address"
        }
      ],
      "name": "getShopIDs",
      "outputs": [
        {
          "internalType": "uint256[]",
          "name": "",
          "type": "uint256[]"
        }
      ],
      "stateMutability": "view",
      "type": "function"
    },
    {
      "inputs": [
        {
          "internalType": "uint256",
          "name": "",
          "type": "uint256"
        }
      ],
      "name": "itemIds",
      "outputs": [
        {
          "internalType": "uint256",
          "name": "",
          "type": "uint256"
        }
      ],
      "stateMutability": "view",
      "type": "function"
    },
    {
      "inputs": [
        {
          "internalType": "string",
          "name": "",
          "type": "string"
        }
      ],
      "name": "itemNames",
      "outputs": [
        {
          "internalType": "string",
          "name": "name",
          "type": "string"
        },
        {
          "internalType": "uint256",
          "name": "itemID",
          "type": "uint256"
        },
        {
          "internalType": "uint256",
          "name": "shopId",
          "type": "uint256"
        },
        {
          "internalType": "string",
          "name": "description",
          "type": "string"
        },
        {
          "internalType": "string",
          "name": "item_im",
          "type": "string"
        },
        {
          "internalType": "uint256",
          "name": "price",
          "type": "uint256"
        },
        {
          "internalType": "bool",
          "name": "listed",
          "type": "bool"
        }
      ],
      "stateMutability": "view",
      "type": "function"
    },
    {
      "inputs": [
        {
          "internalType": "uint256",
          "name": "",
          "type": "uint256"
        }
      ],
      "name": "items",
      "outputs": [
        {
          "internalType": "string",
          "name": "name",
          "type": "string"
        },
        {
          "internalType": "uint256",
          "name": "itemID",
          "type": "uint256"
        },
        {
          "internalType": "uint256",
          "name": "shopId",
          "type": "uint256"
        },
        {
          "internalType": "string",
          "name": "description",
          "type": "string"
        },
        {
          "internalType": "string",
          "name": "item_im",
          "type": "string"
        },
        {
          "internalType": "uint256",
          "name": "price",
          "type": "uint256"
        },
        {
          "internalType": "bool",
          "name": "listed",
          "type": "bool"
        }
      ],
      "stateMutability": "view",
      "type": "function"
    },
    {
      "inputs": [
        {
          "internalType": "uint256",
          "name": "",
          "type": "uint256"
        },
        {
          "internalType": "uint256",
          "name": "",
          "type": "uint256"
        }
      ],
      "name": "itemsIndex",
      "outputs": [
        {
          "internalType": "uint256",
          "name": "",
          "type": "uint256"
        }
      ],
      "stateMutability": "view",
      "type": "function"
    },
    {
      "inputs": [],
      "name": "newShopID",
      "outputs": [
        {
          "internalType": "uint256",
          "name": "",
          "type": "uint256"
        }
      ],
      "stateMutability": "view",
      "type": "function"
    },
    {
      "inputs": [
        {
          "internalType": "string",
          "name": "_name",
          "type": "string"
        },
        {
          "internalType": "string",
          "name": "_shop_profile",
          "type": "string"
        }
      ],
      "name": "openShop",
      "outputs": [],
      "stateMutability": "nonpayable",
      "type": "function"
    },
    {
      "inputs": [
        {
          "internalType": "uint256",
          "name": "",
          "type": "uint256"
        }
      ],
      "name": "s_availableShopIDs",
      "outputs": [
        {
          "internalType": "bool",
          "name": "",
          "type": "bool"
        }
      ],
      "stateMutability": "view",
      "type": "function"
    },
    {
      "inputs": [
        {
          "internalType": "address",
          "name": "",
          "type": "address"
        }
      ],
      "name": "s_availableShops",
      "outputs": [
        {
          "internalType": "address payable",
          "name": "shopAddress",
          "type": "address"
        },
        {
          "internalType": "string",
          "name": "name",
          "type": "string"
        },
        {
          "internalType": "string",
          "name": "shop_profile",
          "type": "string"
        },
        {
          "internalType": "uint256",
          "name": "shopID",
          "type": "uint256"
        },
        {
          "internalType": "bool",
          "name": "isOpen",
          "type": "bool"
        }
      ],
      "stateMutability": "view",
      "type": "function"
    },
    {
      "inputs": [],
      "name": "s_isOpen",
      "outputs": [
        {
          "internalType": "bool",
          "name": "",
          "type": "bool"
        }
      ],
      "stateMutability": "view",
      "type": "function"
    },
    {
      "inputs": [],
      "name": "s_itemID",
      "outputs": [
        {
          "internalType": "uint256",
          "name": "",
          "type": "uint256"
        }
      ],
      "stateMutability": "view",
      "type": "function"
    },
    {
      "inputs": [
        {
          "internalType": "uint256",
          "name": "",
          "type": "uint256"
        }
      ],
      "name": "s_shops",
      "outputs": [
        {
          "internalType": "address payable",
          "name": "shopAddress",
          "type": "address"
        },
        {
          "internalType": "string",
          "name": "name",
          "type": "string"
        },
        {
          "internalType": "string",
          "name": "shop_profile",
          "type": "string"
        },
        {
          "internalType": "uint256",
          "name": "shopID",
          "type": "uint256"
        },
        {
          "internalType": "bool",
          "name": "isOpen",
          "type": "bool"
        }
      ],
      "stateMutability": "view",
      "type": "function"
    },
    {
      "inputs": [],
      "name": "shopID",
      "outputs": [
        {
          "internalType": "uint256",
          "name": "",
          "type": "uint256"
        }
      ],
      "stateMutability": "view",
      "type": "function"
    },
    {
      "inputs": [
        {
          "internalType": "uint256",
          "name": "",
          "type": "uint256"
        },
        {
          "internalType": "uint256",
          "name": "",
          "type": "uint256"
        }
      ],
      "name": "shopIDToItems",
      "outputs": [
        {
          "internalType": "string",
          "name": "name",
          "type": "string"
        },
        {
          "internalType": "uint256",
          "name": "itemID",
          "type": "uint256"
        },
        {
          "internalType": "uint256",
          "name": "shopId",
          "type": "uint256"
        },
        {
          "internalType": "string",
          "name": "description",
          "type": "string"
        },
        {
          "internalType": "string",
          "name": "item_im",
          "type": "string"
        },
        {
          "internalType": "uint256",
          "name": "price",
          "type": "uint256"
        },
        {
          "internalType": "bool",
          "name": "listed",
          "type": "bool"
        }
      ],
      "stateMutability": "view",
      "type": "function"
    },
    {
      "inputs": [
        {
          "internalType": "uint256",
          "name": "",
          "type": "uint256"
        }
      ],
      "name": "shopIds",
      "outputs": [
        {
          "internalType": "uint256",
          "name": "",
          "type": "uint256"
        }
      ],
      "stateMutability": "view",
      "type": "function"
    },
    {
      "inputs": [
        {
          "internalType": "uint256",
          "name": "",
          "type": "uint256"
        }
      ],
      "name": "shops",
      "outputs": [
        {
          "internalType": "address payable",
          "name": "shopAddress",
          "type": "address"
        },
        {
          "internalType": "string",
          "name": "name",
          "type": "string"
        },
        {
          "internalType": "string",
          "name": "shop_profile",
          "type": "string"
        },
        {
          "internalType": "uint256",
          "name": "shopID",
          "type": "uint256"
        },
        {
          "internalType": "bool",
          "name": "isOpen",
          "type": "bool"
        }
      ],
      "stateMutability": "view",
      "type": "function"
    },
    {
      "inputs": [
        {
          "internalType": "uint256",
          "name": "_shopID",
          "type": "uint256"
        },
        {
          "internalType": "uint256",
          "name": "_itemID",
          "type": "uint256"
        }
      ],
      "name": "unlistItem",
      "outputs": [],
      "stateMutability": "nonpayable",
      "type": "function"
    },
    {
      "inputs": [
        {
          "internalType": "uint256",
          "name": "",
          "type": "uint256"
        }
      ],
      "name": "usedItemIDs",
      "outputs": [
        {
          "internalType": "bool",
          "name": "",
          "type": "bool"
        }
      ],
      "stateMutability": "view",
      "type": "function"
    },
    {
      "inputs": [
        {
          "internalType": "uint256",
          "name": "",
          "type": "uint256"
        }
      ],
      "name": "usedShopIDs",
      "outputs": [
        {
          "internalType": "bool",
          "name": "",
          "type": "bool"
        }
      ],
      "stateMutability": "view",
      "type": "function"
    }
  ],
  "bytecode": "0x60806040523480156200001157600080fd5b50604051620053ea380380620053ea833981810160405281019062000037919062000132565b600160008190555033600260006101000a81548173ffffffffffffffffffffffffffffffffffffffff021916908373ffffffffffffffffffffffffffffffffffffffff16021790555080600160006101000a81548173ffffffffffffffffffffffffffffffffffffffff021916908373ffffffffffffffffffffffffffffffffffffffff1602179055505062000164565b600080fd5b600073ffffffffffffffffffffffffffffffffffffffff82169050919050565b6000620000fa82620000cd565b9050919050565b6200010c81620000ed565b81146200011857600080fd5b50565b6000815190506200012c8162000101565b92915050565b6000602082840312156200014b576200014a620000c8565b5b60006200015b848285016200011b565b91505092915050565b61527680620001746000396000f3fe6080604052600436106101e35760003560e01c806391e03cd811610102578063c8c87f3411610095578063e55d06bd11610064578063e55d06bd146107d5578063e653ae14146107fe578063f120dfe81461083f578063f7d85c0514610868576101e3565b8063c8c87f3414610715578063cae227a81461073e578063d5c9b23914610769578063d74679de14610794576101e3565b8063ac5941d9116100d1578063ac5941d91461062d578063b066bc661461066a578063b3dc00fe14610695578063bfb231d2146106d2576101e3565b806391e03cd814610550578063994d08e31461058d5780639979c009146105ce578063a6bddea4146105ea576101e3565b80635b22c7671161017a57806372cb14461161014957806372cb1446146104825780637aa6d13f146104bf578063849a6f6e146104fc57806388c40b1c14610525576101e3565b80635b22c76714610398578063618a7e1d146103db5780636733db9b14610404578063713aca7414610441576101e3565b8063433ea747116101b6578063433ea747146102c85780634ba1d6aa146103055780634c92e881146103305780635473240c1461036d576101e3565b8063224e632e146101e85780633970d3eb146102255780633aa4a4ff1461024e5780633aaaa7811461028b575b600080fd5b3480156101f457600080fd5b5061020f600480360381019061020a9190613e3b565b6108a5565b60405161021c9190613e8a565b60405180910390f35b34801561023157600080fd5b5061024c60048036038101906102479190613feb565b6108ca565b005b34801561025a57600080fd5b5061027560048036038101906102709190614063565b610caf565b60405161028291906140ab565b60405180910390f35b34801561029757600080fd5b506102b260048036038101906102ad9190613e3b565b610ccf565b6040516102bf9190613e8a565b60405180910390f35b3480156102d457600080fd5b506102ef60048036038101906102ea9190614063565b610cfe565b6040516102fc919061420d565b60405180910390f35b34801561031157600080fd5b5061031a610f1a565b604051610327919061439b565b60405180910390f35b34801561033c57600080fd5b5061035760048036038101906103529190614063565b6111ed565b60405161036491906140ab565b60405180910390f35b34801561037957600080fd5b5061038261120d565b60405161038f9190613e8a565b60405180910390f35b3480156103a457600080fd5b506103bf60048036038101906103ba9190613e3b565b611213565b6040516103d29796959493929190614407565b60405180910390f35b3480156103e757600080fd5b5061040260048036038101906103fd9190613e3b565b611417565b005b34801561041057600080fd5b5061042b60048036038101906104269190614063565b611a26565b60405161043891906140ab565b60405180910390f35b34801561044d57600080fd5b5061046860048036038101906104639190614063565b611a46565b6040516104799594939291906144cc565b60405180910390f35b34801561048e57600080fd5b506104a960048036038101906104a4919061456b565b611bb9565b6040516104b69190614647565b60405180910390f35b3480156104cb57600080fd5b506104e660048036038101906104e19190614669565b611c50565b6040516104f39190613e8a565b60405180910390f35b34801561050857600080fd5b50610523600480360381019061051e91906146a9565b611c81565b005b34801561053157600080fd5b5061053a61217b565b6040516105479190613e8a565b60405180910390f35b34801561055c57600080fd5b5061057760048036038101906105729190614063565b612181565b604051610584919061439b565b60405180910390f35b34801561059957600080fd5b506105b460048036038101906105af919061456b565b6123e2565b6040516105c59594939291906144cc565b60405180910390f35b6105e860048036038101906105e39190613e3b565b612555565b005b3480156105f657600080fd5b50610611600480360381019061060c9190614778565b6129b1565b6040516106249796959493929190614407565b60405180910390f35b34801561063957600080fd5b50610654600480360381019061064f9190614063565b612bae565b6040516106619190613e8a565b60405180910390f35b34801561067657600080fd5b5061067f612bd2565b60405161068c9190613e8a565b60405180910390f35b3480156106a157600080fd5b506106bc60048036038101906106b79190614063565b612bd8565b6040516106c99190613e8a565b60405180910390f35b3480156106de57600080fd5b506106f960048036038101906106f49190614063565b612bfc565b60405161070c9796959493929190614407565b60405180910390f35b34801561072157600080fd5b5061073c60048036038101906107379190614063565b612de3565b005b34801561074a57600080fd5b50610753613027565b60405161076091906140ab565b60405180910390f35b34801561077557600080fd5b5061077e61303a565b60405161078b919061490f565b60405180910390f35b3480156107a057600080fd5b506107bb60048036038101906107b69190614063565b6132bd565b6040516107cc9594939291906144cc565b60405180910390f35b3480156107e157600080fd5b506107fc60048036038101906107f79190613e3b565b613440565b005b34801561080a57600080fd5b506108256004803603810190610820919061456b565b61360f565b604051610836959493929190614940565b60405180910390f35b34801561084b57600080fd5b5061086660048036038101906108619190614063565b613831565b005b34801561087457600080fd5b5061088f600480360381019061088a9190614778565b613a97565b60405161089c919061420d565b60405180910390f35b600d602052816000526040600020602052806000526040600020600091509150505481565b6108d2613cbe565b6000600960003373ffffffffffffffffffffffffffffffffffffffff1673ffffffffffffffffffffffffffffffffffffffff1681526020019081526020016000206003015414610957576040517f08c379a000000000000000000000000000000000000000000000000000000000815260040161094e90614a13565b60405180910390fd5b60016005546109669190614a62565b6006819055506005600081548092919061097f90614a96565b91905055505b600a6000600654815260200190815260200160002060009054906101000a900460ff16156109ca57600660008154809291906109c090614a96565b9190505550610985565b7f4c54c5cfb62c09c63a793214270d1b3d37f5c9093d3a033d1e9144d94e2904a1600654836040516109fd929190614ade565b60405180910390a160006040518060a001604052803373ffffffffffffffffffffffffffffffffffffffff168152602001848152602001838152602001600654815260200160011515815250905080600960003373ffffffffffffffffffffffffffffffffffffffff1673ffffffffffffffffffffffffffffffffffffffff16815260200190815260200160002060008201518160000160006101000a81548173ffffffffffffffffffffffffffffffffffffffff021916908373ffffffffffffffffffffffffffffffffffffffff1602179055506020820151816001019081610ae79190614d1a565b506040820151816002019081610afd9190614d1a565b506060820151816003015560808201518160040160006101000a81548160ff0219169083151502179055509050508060106000600654815260200190815260200160002060008201518160000160006101000a81548173ffffffffffffffffffffffffffffffffffffffff021916908373ffffffffffffffffffffffffffffffffffffffff1602179055506020820151816001019081610b9d9190614d1a565b506040820151816002019081610bb39190614d1a565b506060820151816003015560808201518160040160006101000a81548160ff021916908315150217905550905050600b60003373ffffffffffffffffffffffffffffffffffffffff1673ffffffffffffffffffffffffffffffffffffffff168152602001908152602001600020600654908060018154018082558091505060019003906000526020600020016000909190919091505560116006549080600181540180825580915050600190039060005260206000200160009091909190915055600160146000600654815260200190815260200160002060006101000a81548160ff02191690831515021790555050610cab613d04565b5050565b60136020528060005260406000206000915054906101000a900460ff1681565b6000600d6000848152602001908152602001600020600083815260200190815260200160002054905092915050565b610d06613d0e565b600e60008381526020019081526020016000206040518060e0016040529081600082018054610d3490614b3d565b80601f0160208091040260200160405190810160405280929190818152602001828054610d6090614b3d565b8015610dad5780601f10610d8257610100808354040283529160200191610dad565b820191906000526020600020905b815481529060010190602001808311610d9057829003601f168201915b505050505081526020016001820154815260200160028201548152602001600382018054610dda90614b3d565b80601f0160208091040260200160405190810160405280929190818152602001828054610e0690614b3d565b8015610e535780601f10610e2857610100808354040283529160200191610e53565b820191906000526020600020905b815481529060010190602001808311610e3657829003601f168201915b50505050508152602001600482018054610e6c90614b3d565b80601f0160208091040260200160405190810160405280929190818152602001828054610e9890614b3d565b8015610ee55780601f10610eba57610100808354040283529160200191610ee5565b820191906000526020600020905b815481529060010190602001808311610ec857829003601f168201915b50505050508152602001600582015481526020016006820160009054906101000a900460ff1615151515815250509050919050565b6060600060128054905067ffffffffffffffff811115610f3d57610f3c613ec0565b5b604051908082528060200260200182016040528015610f7657816020015b610f63613d0e565b815260200190600190039081610f5b5790505b50905060005b6012805490508110156111e557600e600060128381548110610fa157610fa0614dec565b5b906000526020600020015481526020019081526020016000206040518060e0016040529081600082018054610fd590614b3d565b80601f016020809104026020016040519081016040528092919081815260200182805461100190614b3d565b801561104e5780601f106110235761010080835404028352916020019161104e565b820191906000526020600020905b81548152906001019060200180831161103157829003601f168201915b50505050508152602001600182015481526020016002820154815260200160038201805461107b90614b3d565b80601f01602080910402602001604051908101604052809291908181526020018280546110a790614b3d565b80156110f45780601f106110c9576101008083540402835291602001916110f4565b820191906000526020600020905b8154815290600101906020018083116110d757829003601f168201915b5050505050815260200160048201805461110d90614b3d565b80601f016020809104026020016040519081016040528092919081815260200182805461113990614b3d565b80156111865780601f1061115b57610100808354040283529160200191611186565b820191906000526020600020905b81548152906001019060200180831161116957829003601f168201915b50505050508152602001600582015481526020016006820160009054906101000a900460ff1615151515815250508282815181106111c7576111c6614dec565b5b602002602001018190525080806111dd90614a96565b915050610f7c565b508091505090565b60146020528060005260406000206000915054906101000a900460ff1681565b60055481565b600c602052816000526040600020818154811061122f57600080fd5b90600052602060002090600702016000915091505080600001805461125390614b3d565b80601f016020809104026020016040519081016040528092919081815260200182805461127f90614b3d565b80156112cc5780601f106112a1576101008083540402835291602001916112cc565b820191906000526020600020905b8154815290600101906020018083116112af57829003601f168201915b5050505050908060010154908060020154908060030180546112ed90614b3d565b80601f016020809104026020016040519081016040528092919081815260200182805461131990614b3d565b80156113665780601f1061133b57610100808354040283529160200191611366565b820191906000526020600020905b81548152906001019060200180831161134957829003601f168201915b50505050509080600401805461137b90614b3d565b80601f01602080910402602001604051908101604052809291908181526020018280546113a790614b3d565b80156113f45780601f106113c9576101008083540402835291602001916113f4565b820191906000526020600020905b8154815290600101906020018083116113d757829003601f168201915b5050505050908060050154908060060160009054906101000a900460ff16905087565b816010600082815260200190815260200160002060000160009054906101000a900473ffffffffffffffffffffffffffffffffffffffff1673ffffffffffffffffffffffffffffffffffffffff163373ffffffffffffffffffffffffffffffffffffffff16146114b3576040517f251c9d6300000000000000000000000000000000000000000000000000000000815260040160405180910390fd5b600073ffffffffffffffffffffffffffffffffffffffff163373ffffffffffffffffffffffffffffffffffffffff1603611519576040517f251c9d6300000000000000000000000000000000000000000000000000000000815260040160405180910390fd5b816000600e6000838152602001908152602001600020600501540361156a576040517f14a9b56c00000000000000000000000000000000000000000000000000000000815260040160405180910390fd5b611572613cbe565b7fe204ab41a209a3ddaa6602f52d300a3adf8b7f1baf8d7c36564d7000af556567836040516115a19190613e8a565b60405180910390a1600e6000848152602001908152602001600020600080820160006115cd9190613d4d565b600182016000905560028201600090556003820160006115ed9190613d4d565b6004820160006115fd9190613d4d565b60058201600090556006820160006101000a81549060ff021916905550506000600d6000868152602001908152602001600020600085815260200190815260200160002054905060006001600c6000888152602001908152602001600020805490506116699190614e1b565b90506000600c6000888152602001908152602001600020828154811061169257611691614dec565b5b90600052602060002090600702016040518060e00160405290816000820180546116bb90614b3d565b80601f01602080910402602001604051908101604052809291908181526020018280546116e790614b3d565b80156117345780601f1061170957610100808354040283529160200191611734565b820191906000526020600020905b81548152906001019060200180831161171757829003601f168201915b50505050508152602001600182015481526020016002820154815260200160038201805461176190614b3d565b80601f016020809104026020016040519081016040528092919081815260200182805461178d90614b3d565b80156117da5780601f106117af576101008083540402835291602001916117da565b820191906000526020600020905b8154815290600101906020018083116117bd57829003601f168201915b505050505081526020016004820180546117f390614b3d565b80601f016020809104026020016040519081016040528092919081815260200182805461181f90614b3d565b801561186c5780601f106118415761010080835404028352916020019161186c565b820191906000526020600020905b81548152906001019060200180831161184f57829003601f168201915b50505050508152602001600582015481526020016006820160009054906101000a900460ff161515151581525050905080600c600089815260200190815260200160002084815481106118c2576118c1614dec565b5b906000526020600020906007020160008201518160000190816118e59190614d1a565b506020820151816001015560408201518160020155606082015181600301908161190f9190614d1a565b5060808201518160040190816119259190614d1a565b5060a0820151816005015560c08201518160060160006101000a81548160ff021916908315150217905550905050600c600088815260200190815260200160002080548061197657611975614e4f565b5b60019003818190600052602060002090600702016000808201600061199b9190613d4d565b600182016000905560028201600090556003820160006119bb9190613d4d565b6004820160006119cb9190613d4d565b60058201600090556006820160006101000a81549060ff0219169055505090556000600d6000898152602001908152602001600020600088815260200190815260200160002081905550505050611a20613d04565b50505050565b600a6020528060005260406000206000915054906101000a900460ff1681565b60106020528060005260406000206000915090508060000160009054906101000a900473ffffffffffffffffffffffffffffffffffffffff1690806001018054611a8f90614b3d565b80601f0160208091040260200160405190810160405280929190818152602001828054611abb90614b3d565b8015611b085780601f10611add57610100808354040283529160200191611b08565b820191906000526020600020905b815481529060010190602001808311611aeb57829003601f168201915b505050505090806002018054611b1d90614b3d565b80601f0160208091040260200160405190810160405280929190818152602001828054611b4990614b3d565b8015611b965780601f10611b6b57610100808354040283529160200191611b96565b820191906000526020600020905b815481529060010190602001808311611b7957829003601f168201915b5050505050908060030154908060040160009054906101000a900460ff16905085565b6060600b60008373ffffffffffffffffffffffffffffffffffffffff1673ffffffffffffffffffffffffffffffffffffffff168152602001908152602001600020805480602002602001604051908101604052809291908181526020018280548015611c4457602002820191906000526020600020905b815481526020019060010190808311611c30575b50505050509050919050565b600b6020528160005260406000208181548110611c6c57600080fd5b90600052602060002001600091509150505481565b846010600082815260200190815260200160002060000160009054906101000a900473ffffffffffffffffffffffffffffffffffffffff1673ffffffffffffffffffffffffffffffffffffffff163373ffffffffffffffffffffffffffffffffffffffff1614611d1d576040517f251c9d6300000000000000000000000000000000000000000000000000000000815260040160405180910390fd5b600073ffffffffffffffffffffffffffffffffffffffff163373ffffffffffffffffffffffffffffffffffffffff1603611d83576040517f251c9d6300000000000000000000000000000000000000000000000000000000815260040160405180910390fd5b611d8b613cbe565b85600073ffffffffffffffffffffffffffffffffffffffff166010600083815260200190815260200160002060000160009054906101000a900473ffffffffffffffffffffffffffffffffffffffff1673ffffffffffffffffffffffffffffffffffffffff1603611e31576040517f08c379a0000000000000000000000000000000000000000000000000000000008152600401611e2890614eca565b60405180910390fd5b60008311611e74576040517f08c379a0000000000000000000000000000000000000000000000000000000008152600401611e6b90614f36565b60405180910390fd5b60076000815480929190611e8790614a96565b919050555060136000600754815260200190815260200160002060009054906101000a900460ff1615611eef576040517f08c379a0000000000000000000000000000000000000000000000000000000008152600401611ee690614fa2565b60405180910390fd5b6007547fd0cd45effc79c4ce29820a43a252c040616d6be251e8f1448fb7f2d9cc26adc7878786604051611f2593929190614fc2565b60405180910390a260006040518060e001604052808881526020016007548152602001600554815260200187815260200186815260200185815260200160011515815250905080600e600060075481526020019081526020016000206000820151816000019081611f969190614d1a565b5060208201518160010155604082015181600201556060820151816003019081611fc09190614d1a565b506080820151816004019081611fd69190614d1a565b5060a0820151816005015560c08201518160060160006101000a81548160ff021916908315150217905550905050600160136000600754815260200190815260200160002060006101000a81548160ff02191690831515021790555060126007549080600181540180825580915050600190039060005260206000200160009091909190915055600c600089815260200190815260200160002081908060018154018082558091505060019003906000526020600020906007020160009091909190915060008201518160000190816120af9190614d1a565b50602082015181600101556040820151816002015560608201518160030190816120d99190614d1a565b5060808201518160040190816120ef9190614d1a565b5060a0820151816005015560c08201518160060160006101000a81548160ff02191690831515021790555050506001600c60008a81526020019081526020016000208054905061213f9190614e1b565b600d60008a815260200190815260200160002060006007548152602001908152602001600020819055505050612173613d04565b505050505050565b60075481565b6060600c6000838152602001908152602001600020805480602002602001604051908101604052809291908181526020016000905b828210156123d757838290600052602060002090600702016040518060e00160405290816000820180546121e990614b3d565b80601f016020809104026020016040519081016040528092919081815260200182805461221590614b3d565b80156122625780601f1061223757610100808354040283529160200191612262565b820191906000526020600020905b81548152906001019060200180831161224557829003601f168201915b50505050508152602001600182015481526020016002820154815260200160038201805461228f90614b3d565b80601f01602080910402602001604051908101604052809291908181526020018280546122bb90614b3d565b80156123085780601f106122dd57610100808354040283529160200191612308565b820191906000526020600020905b8154815290600101906020018083116122eb57829003601f168201915b5050505050815260200160048201805461232190614b3d565b80601f016020809104026020016040519081016040528092919081815260200182805461234d90614b3d565b801561239a5780601f1061236f5761010080835404028352916020019161239a565b820191906000526020600020905b81548152906001019060200180831161237d57829003601f168201915b50505050508152602001600582015481526020016006820160009054906101000a900460ff161515151581525050815260200190600101906121b6565b505050509050919050565b60096020528060005260406000206000915090508060000160009054906101000a900473ffffffffffffffffffffffffffffffffffffffff169080600101805461242b90614b3d565b80601f016020809104026020016040519081016040528092919081815260200182805461245790614b3d565b80156124a45780601f10612479576101008083540402835291602001916124a4565b820191906000526020600020905b81548152906001019060200180831161248757829003601f168201915b5050505050908060020180546124b990614b3d565b80601f01602080910402602001604051908101604052809291908181526020018280546124e590614b3d565b80156125325780601f1061250757610100808354040283529160200191612532565b820191906000526020600020905b81548152906001019060200180831161251557829003601f168201915b5050505050908060030154908060040160009054906101000a900460ff16905085565b8160001515600e600083815260200190815260200160002060060160009054906101000a900460ff161515036125b7576040517feaa7e69800000000000000000000000000000000000000000000000000000000815260040160405180910390fd5b81600115156010600083815260200190815260200160002060040160009054906101000a900460ff16151514612622576040517f08c379a000000000000000000000000000000000000000000000000000000000815260040161261990615053565b60405180910390fd5b82600073ffffffffffffffffffffffffffffffffffffffff166010600083815260200190815260200160002060000160009054906101000a900473ffffffffffffffffffffffffffffffffffffffff1673ffffffffffffffffffffffffffffffffffffffff16036126c8576040517f08c379a00000000000000000000000000000000000000000000000000000000081526004016126bf90614eca565b60405180910390fd5b600e6000868152602001908152602001600020600501543414612720576040517f08c379a0000000000000000000000000000000000000000000000000000000008152600401612717906150bf565b60405180910390fd5b6010600085815260200190815260200160002060000160009054906101000a900473ffffffffffffffffffffffffffffffffffffffff1673ffffffffffffffffffffffffffffffffffffffff163373ffffffffffffffffffffffffffffffffffffffff16036127c4576040517f08c379a00000000000000000000000000000000000000000000000000000000081526004016127bb90615151565b60405180910390fd5b600860008154809291906127d790614a96565b91905055507f1965d406518972c927ab5b9b0814c8f4a9c364ec5b149ed3dcba9db02eae0082333460405161280d929190615171565b60405180910390a1600160009054906101000a900473ffffffffffffffffffffffffffffffffffffffff1673ffffffffffffffffffffffffffffffffffffffff16630b98912b33600260009054906101000a900473ffffffffffffffffffffffffffffffffffffffff166010600089815260200190815260200160002060000160009054906101000a900473ffffffffffffffffffffffffffffffffffffffff16600e60008b8152602001908152602001600020600501546008546040518663ffffffff1660e01b81526004016128e895949392919061519a565b600060405180830381600087803b15801561290257600080fd5b505af1158015612916573d6000803e3d6000fd5b50505050600160009054906101000a900473ffffffffffffffffffffffffffffffffffffffff1673ffffffffffffffffffffffffffffffffffffffff166365714f63346008546040518363ffffffff1660e01b81526004016129789190613e8a565b6000604051808303818588803b15801561299157600080fd5b505af11580156129a5573d6000803e3d6000fd5b50505050505050505050565b600f818051602081018201805184825260208301602085012081835280955050505050506000915090508060000180546129ea90614b3d565b80601f0160208091040260200160405190810160405280929190818152602001828054612a1690614b3d565b8015612a635780601f10612a3857610100808354040283529160200191612a63565b820191906000526020600020905b815481529060010190602001808311612a4657829003601f168201915b505050505090806001015490806002015490806003018054612a8490614b3d565b80601f0160208091040260200160405190810160405280929190818152602001828054612ab090614b3d565b8015612afd5780601f10612ad257610100808354040283529160200191612afd565b820191906000526020600020905b815481529060010190602001808311612ae057829003601f168201915b505050505090806004018054612b1290614b3d565b80601f0160208091040260200160405190810160405280929190818152602001828054612b3e90614b3d565b8015612b8b5780601f10612b6057610100808354040283529160200191612b8b565b820191906000526020600020905b815481529060010190602001808311612b6e57829003601f168201915b5050505050908060050154908060060160009054906101000a900460ff16905087565b60118181548110612bbe57600080fd5b906000526020600020016000915090505481565b60065481565b60128181548110612be857600080fd5b906000526020600020016000915090505481565b600e602052806000526040600020600091509050806000018054612c1f90614b3d565b80601f0160208091040260200160405190810160405280929190818152602001828054612c4b90614b3d565b8015612c985780601f10612c6d57610100808354040283529160200191612c98565b820191906000526020600020905b815481529060010190602001808311612c7b57829003601f168201915b505050505090806001015490806002015490806003018054612cb990614b3d565b80601f0160208091040260200160405190810160405280929190818152602001828054612ce590614b3d565b8015612d325780601f10612d0757610100808354040283529160200191612d32565b820191906000526020600020905b815481529060010190602001808311612d1557829003601f168201915b505050505090806004018054612d4790614b3d565b80601f0160208091040260200160405190810160405280929190818152602001828054612d7390614b3d565b8015612dc05780601f10612d9557610100808354040283529160200191612dc0565b820191906000526020600020905b815481529060010190602001808311612da357829003601f168201915b5050505050908060050154908060060160009054906101000a900460ff16905087565b806010600082815260200190815260200160002060000160009054906101000a900473ffffffffffffffffffffffffffffffffffffffff1673ffffffffffffffffffffffffffffffffffffffff163373ffffffffffffffffffffffffffffffffffffffff1614612e7f576040517f251c9d6300000000000000000000000000000000000000000000000000000000815260040160405180910390fd5b600073ffffffffffffffffffffffffffffffffffffffff163373ffffffffffffffffffffffffffffffffffffffff1603612ee5576040517f251c9d6300000000000000000000000000000000000000000000000000000000815260040160405180910390fd5b81600073ffffffffffffffffffffffffffffffffffffffff166010600083815260200190815260200160002060000160009054906101000a900473ffffffffffffffffffffffffffffffffffffffff1673ffffffffffffffffffffffffffffffffffffffff1603612f8b576040517f08c379a0000000000000000000000000000000000000000000000000000000008152600401612f8290614eca565b60405180910390fd5b612f93613cbe565b7f21ba22a4b53fc10d2239528ac0be6d1ce58d46d91c5e41cef202787629c8206760405160405180910390a16000600960003373ffffffffffffffffffffffffffffffffffffffff1673ffffffffffffffffffffffffffffffffffffffff16815260200190815260200160002060040160006101000a81548160ff021916908315150217905550613022613d04565b505050565b600460009054906101000a900460ff1681565b6060600060118054905067ffffffffffffffff81111561305d5761305c613ec0565b5b60405190808252806020026020018201604052801561309657816020015b613083613d8d565b81526020019060019003908161307b5790505b50905060005b6011805490508110156132b55760106000601183815481106130c1576130c0614dec565b5b906000526020600020015481526020019081526020016000206040518060a00160405290816000820160009054906101000a900473ffffffffffffffffffffffffffffffffffffffff1673ffffffffffffffffffffffffffffffffffffffff1673ffffffffffffffffffffffffffffffffffffffff16815260200160018201805461314b90614b3d565b80601f016020809104026020016040519081016040528092919081815260200182805461317790614b3d565b80156131c45780601f10613199576101008083540402835291602001916131c4565b820191906000526020600020905b8154815290600101906020018083116131a757829003601f168201915b505050505081526020016002820180546131dd90614b3d565b80601f016020809104026020016040519081016040528092919081815260200182805461320990614b3d565b80156132565780601f1061322b57610100808354040283529160200191613256565b820191906000526020600020905b81548152906001019060200180831161323957829003601f168201915b50505050508152602001600382015481526020016004820160009054906101000a900460ff16151515158152505082828151811061329757613296614dec565b5b602002602001018190525080806132ad90614a96565b91505061309c565b508091505090565b600381815481106132cd57600080fd5b90600052602060002090600502016000915090508060000160009054906101000a900473ffffffffffffffffffffffffffffffffffffffff169080600101805461331690614b3d565b80601f016020809104026020016040519081016040528092919081815260200182805461334290614b3d565b801561338f5780601f106133645761010080835404028352916020019161338f565b820191906000526020600020905b81548152906001019060200180831161337257829003601f168201915b5050505050908060020180546133a490614b3d565b80601f01602080910402602001604051908101604052809291908181526020018280546133d090614b3d565b801561341d5780601f106133f25761010080835404028352916020019161341d565b820191906000526020600020905b81548152906001019060200180831161340057829003601f168201915b5050505050908060030154908060040160009054906101000a900460ff16905085565b816010600082815260200190815260200160002060000160009054906101000a900473ffffffffffffffffffffffffffffffffffffffff1673ffffffffffffffffffffffffffffffffffffffff163373ffffffffffffffffffffffffffffffffffffffff16146134dc576040517f251c9d6300000000000000000000000000000000000000000000000000000000815260040160405180910390fd5b600073ffffffffffffffffffffffffffffffffffffffff163373ffffffffffffffffffffffffffffffffffffffff1603613542576040517f251c9d6300000000000000000000000000000000000000000000000000000000815260040160405180910390fd5b816000600e60008381526020019081526020016000206005015403613593576040517f14a9b56c00000000000000000000000000000000000000000000000000000000815260040160405180910390fd5b61359b613cbe565b7f4d40977c6efde61c6064e8c4679d77fb9b6116f3fb24fa090522f6e263f0fa34836040516135ca9190613e8a565b60405180910390a16000600e600085815260200190815260200160002060060160006101000a81548160ff021916908315150217905550613609613d04565b50505050565b60006060806000806000600960008873ffffffffffffffffffffffffffffffffffffffff1673ffffffffffffffffffffffffffffffffffffffff1681526020019081526020016000206040518060a00160405290816000820160009054906101000a900473ffffffffffffffffffffffffffffffffffffffff1673ffffffffffffffffffffffffffffffffffffffff1673ffffffffffffffffffffffffffffffffffffffff1681526020016001820180546136c990614b3d565b80601f01602080910402602001604051908101604052809291908181526020018280546136f590614b3d565b80156137425780601f1061371757610100808354040283529160200191613742565b820191906000526020600020905b81548152906001019060200180831161372557829003601f168201915b5050505050815260200160028201805461375b90614b3d565b80601f016020809104026020016040519081016040528092919081815260200182805461378790614b3d565b80156137d45780601f106137a9576101008083540402835291602001916137d4565b820191906000526020600020905b8154815290600101906020018083116137b757829003601f168201915b50505050508152602001600382015481526020016004820160009054906101000a900460ff161515151581525050905080600001518160200151826040015183606001518460800151955095509550955095505091939590929450565b806010600082815260200190815260200160002060000160009054906101000a900473ffffffffffffffffffffffffffffffffffffffff1673ffffffffffffffffffffffffffffffffffffffff163373ffffffffffffffffffffffffffffffffffffffff16146138cd576040517f251c9d6300000000000000000000000000000000000000000000000000000000815260040160405180910390fd5b600073ffffffffffffffffffffffffffffffffffffffff163373ffffffffffffffffffffffffffffffffffffffff1603613933576040517f251c9d6300000000000000000000000000000000000000000000000000000000815260040160405180910390fd5b81600073ffffffffffffffffffffffffffffffffffffffff166010600083815260200190815260200160002060000160009054906101000a900473ffffffffffffffffffffffffffffffffffffffff1673ffffffffffffffffffffffffffffffffffffffff16036139d9576040517f08c379a00000000000000000000000000000000000000000000000000000000081526004016139d090614eca565b60405180910390fd5b7fc83ae5a4794989f3b7101d3e8f1ddf5f3b51f5e4904f42575c17e424b2da1b3283604051613a089190613e8a565b60405180910390a1600a600084815260200190815260200160002060006101000a81549060ff0219169055600b60003373ffffffffffffffffffffffffffffffffffffffff1673ffffffffffffffffffffffffffffffffffffffff1681526020019081526020016000208381548110613a8457613a83614dec565b5b9060005260206000200160009055505050565b613a9f613d0e565b600f82604051613aaf9190615229565b90815260200160405180910390206040518060e0016040529081600082018054613ad890614b3d565b80601f0160208091040260200160405190810160405280929190818152602001828054613b0490614b3d565b8015613b515780601f10613b2657610100808354040283529160200191613b51565b820191906000526020600020905b815481529060010190602001808311613b3457829003601f168201915b505050505081526020016001820154815260200160028201548152602001600382018054613b7e90614b3d565b80601f0160208091040260200160405190810160405280929190818152602001828054613baa90614b3d565b8015613bf75780601f10613bcc57610100808354040283529160200191613bf7565b820191906000526020600020905b815481529060010190602001808311613bda57829003601f168201915b50505050508152602001600482018054613c1090614b3d565b80601f0160208091040260200160405190810160405280929190818152602001828054613c3c90614b3d565b8015613c895780601f10613c5e57610100808354040283529160200191613c89565b820191906000526020600020905b815481529060010190602001808311613c6c57829003601f168201915b50505050508152602001600582015481526020016006820160009054906101000a900460ff1615151515815250509050919050565b600260005403613cfa576040517f3ee5aeb500000000000000000000000000000000000000000000000000000000815260040160405180910390fd5b6002600081905550565b6001600081905550565b6040518060e001604052806060815260200160008152602001600081526020016060815260200160608152602001600081526020016000151581525090565b508054613d5990614b3d565b6000825580601f10613d6b5750613d8a565b601f016020900490600052602060002090810190613d899190613dd4565b5b50565b6040518060a00160405280600073ffffffffffffffffffffffffffffffffffffffff1681526020016060815260200160608152602001600081526020016000151581525090565b5b80821115613ded576000816000905550600101613dd5565b5090565b6000604051905090565b600080fd5b600080fd5b6000819050919050565b613e1881613e05565b8114613e2357600080fd5b50565b600081359050613e3581613e0f565b92915050565b60008060408385031215613e5257613e51613dfb565b5b6000613e6085828601613e26565b9250506020613e7185828601613e26565b9150509250929050565b613e8481613e05565b82525050565b6000602082019050613e9f6000830184613e7b565b92915050565b600080fd5b600080fd5b6000601f19601f8301169050919050565b7f4e487b7100000000000000000000000000000000000000000000000000000000600052604160045260246000fd5b613ef882613eaf565b810181811067ffffffffffffffff82111715613f1757613f16613ec0565b5b80604052505050565b6000613f2a613df1565b9050613f368282613eef565b919050565b600067ffffffffffffffff821115613f5657613f55613ec0565b5b613f5f82613eaf565b9050602081019050919050565b82818337600083830152505050565b6000613f8e613f8984613f3b565b613f20565b905082815260208101848484011115613faa57613fa9613eaa565b5b613fb5848285613f6c565b509392505050565b600082601f830112613fd257613fd1613ea5565b5b8135613fe2848260208601613f7b565b91505092915050565b6000806040838503121561400257614001613dfb565b5b600083013567ffffffffffffffff8111156140205761401f613e00565b5b61402c85828601613fbd565b925050602083013567ffffffffffffffff81111561404d5761404c613e00565b5b61405985828601613fbd565b9150509250929050565b60006020828403121561407957614078613dfb565b5b600061408784828501613e26565b91505092915050565b60008115159050919050565b6140a581614090565b82525050565b60006020820190506140c0600083018461409c565b92915050565b600081519050919050565b600082825260208201905092915050565b60005b838110156141005780820151818401526020810190506140e5565b60008484015250505050565b6000614117826140c6565b61412181856140d1565b93506141318185602086016140e2565b61413a81613eaf565b840191505092915050565b61414e81613e05565b82525050565b61415d81614090565b82525050565b600060e0830160008301518482036000860152614180828261410c565b91505060208301516141956020860182614145565b5060408301516141a86040860182614145565b50606083015184820360608601526141c0828261410c565b915050608083015184820360808601526141da828261410c565b91505060a08301516141ef60a0860182614145565b5060c083015161420260c0860182614154565b508091505092915050565b600060208201905081810360008301526142278184614163565b905092915050565b600081519050919050565b600082825260208201905092915050565b6000819050602082019050919050565b600060e0830160008301518482036000860152614278828261410c565b915050602083015161428d6020860182614145565b5060408301516142a06040860182614145565b50606083015184820360608601526142b8828261410c565b915050608083015184820360808601526142d2828261410c565b91505060a08301516142e760a0860182614145565b5060c08301516142fa60c0860182614154565b508091505092915050565b6000614311838361425b565b905092915050565b6000602082019050919050565b60006143318261422f565b61433b818561423a565b93508360208202850161434d8561424b565b8060005b85811015614389578484038952815161436a8582614305565b945061437583614319565b925060208a01995050600181019050614351565b50829750879550505050505092915050565b600060208201905081810360008301526143b58184614326565b905092915050565b600082825260208201905092915050565b60006143d9826140c6565b6143e381856143bd565b93506143f38185602086016140e2565b6143fc81613eaf565b840191505092915050565b600060e0820190508181036000830152614421818a6143ce565b90506144306020830189613e7b565b61443d6040830188613e7b565b818103606083015261444f81876143ce565b9050818103608083015261446381866143ce565b905061447260a0830185613e7b565b61447f60c083018461409c565b98975050505050505050565b600073ffffffffffffffffffffffffffffffffffffffff82169050919050565b60006144b68261448b565b9050919050565b6144c6816144ab565b82525050565b600060a0820190506144e160008301886144bd565b81810360208301526144f381876143ce565b9050818103604083015261450781866143ce565b90506145166060830185613e7b565b614523608083018461409c565b9695505050505050565b60006145388261448b565b9050919050565b6145488161452d565b811461455357600080fd5b50565b6000813590506145658161453f565b92915050565b60006020828403121561458157614580613dfb565b5b600061458f84828501614556565b91505092915050565b600081519050919050565b600082825260208201905092915050565b6000819050602082019050919050565b60006145d08383614145565b60208301905092915050565b6000602082019050919050565b60006145f482614598565b6145fe81856145a3565b9350614609836145b4565b8060005b8381101561463a57815161462188826145c4565b975061462c836145dc565b92505060018101905061460d565b5085935050505092915050565b6000602082019050818103600083015261466181846145e9565b905092915050565b600080604083850312156146805761467f613dfb565b5b600061468e85828601614556565b925050602061469f85828601613e26565b9150509250929050565b600080600080600060a086880312156146c5576146c4613dfb565b5b60006146d388828901613e26565b955050602086013567ffffffffffffffff8111156146f4576146f3613e00565b5b61470088828901613fbd565b945050604086013567ffffffffffffffff81111561472157614720613e00565b5b61472d88828901613fbd565b935050606086013567ffffffffffffffff81111561474e5761474d613e00565b5b61475a88828901613fbd565b925050608061476b88828901613e26565b9150509295509295909350565b60006020828403121561478e5761478d613dfb565b5b600082013567ffffffffffffffff8111156147ac576147ab613e00565b5b6147b884828501613fbd565b91505092915050565b600081519050919050565b600082825260208201905092915050565b6000819050602082019050919050565b6147f6816144ab565b82525050565b600060a08301600083015161481460008601826147ed565b506020830151848203602086015261482c828261410c565b91505060408301518482036040860152614846828261410c565b915050606083015161485b6060860182614145565b50608083015161486e6080860182614154565b508091505092915050565b600061488583836147fc565b905092915050565b6000602082019050919050565b60006148a5826147c1565b6148af81856147cc565b9350836020820285016148c1856147dd565b8060005b858110156148fd57848403895281516148de8582614879565b94506148e98361488d565b925060208a019950506001810190506148c5565b50829750879550505050505092915050565b60006020820190508181036000830152614929818461489a565b905092915050565b61493a8161452d565b82525050565b600060a0820190506149556000830188614931565b818103602083015261496781876143ce565b9050818103604083015261497b81866143ce565b905061498a6060830185613e7b565b614997608083018461409c565b9695505050505050565b7f53686f7020616c72656164792065786973747320666f722074686973206f776e60008201527f6572000000000000000000000000000000000000000000000000000000000000602082015250565b60006149fd6022836143bd565b9150614a08826149a1565b604082019050919050565b60006020820190508181036000830152614a2c816149f0565b9050919050565b7f4e487b7100000000000000000000000000000000000000000000000000000000600052601160045260246000fd5b6000614a6d82613e05565b9150614a7883613e05565b9250828201905080821115614a9057614a8f614a33565b5b92915050565b6000614aa182613e05565b91507fffffffffffffffffffffffffffffffffffffffffffffffffffffffffffffffff8203614ad357614ad2614a33565b5b600182019050919050565b6000604082019050614af36000830185613e7b565b8181036020830152614b0581846143ce565b90509392505050565b7f4e487b7100000000000000000000000000000000000000000000000000000000600052602260045260246000fd5b60006002820490506001821680614b5557607f821691505b602082108103614b6857614b67614b0e565b5b50919050565b60008190508160005260206000209050919050565b60006020601f8301049050919050565b600082821b905092915050565b600060088302614bd07fffffffffffffffffffffffffffffffffffffffffffffffffffffffffffffffff82614b93565b614bda8683614b93565b95508019841693508086168417925050509392505050565b6000819050919050565b6000614c17614c12614c0d84613e05565b614bf2565b613e05565b9050919050565b6000819050919050565b614c3183614bfc565b614c45614c3d82614c1e565b848454614ba0565b825550505050565b600090565b614c5a614c4d565b614c65818484614c28565b505050565b5b81811015614c8957614c7e600082614c52565b600181019050614c6b565b5050565b601f821115614cce57614c9f81614b6e565b614ca884614b83565b81016020851015614cb7578190505b614ccb614cc385614b83565b830182614c6a565b50505b505050565b600082821c905092915050565b6000614cf160001984600802614cd3565b1980831691505092915050565b6000614d0a8383614ce0565b9150826002028217905092915050565b614d23826140c6565b67ffffffffffffffff811115614d3c57614d3b613ec0565b5b614d468254614b3d565b614d51828285614c8d565b600060209050601f831160018114614d845760008415614d72578287015190505b614d7c8582614cfe565b865550614de4565b601f198416614d9286614b6e565b60005b82811015614dba57848901518255600182019150602085019450602081019050614d95565b86831015614dd75784890151614dd3601f891682614ce0565b8355505b6001600288020188555050505b505050505050565b7f4e487b7100000000000000000000000000000000000000000000000000000000600052603260045260246000fd5b6000614e2682613e05565b9150614e3183613e05565b9250828203905081811115614e4957614e48614a33565b5b92915050565b7f4e487b7100000000000000000000000000000000000000000000000000000000600052603160045260246000fd5b7f53686f7020646f65736e27742065786973740000000000000000000000000000600082015250565b6000614eb46012836143bd565b9150614ebf82614e7e565b602082019050919050565b60006020820190508181036000830152614ee381614ea7565b9050919050565b7f536574206974656d207072696365000000000000000000000000000000000000600082015250565b6000614f20600e836143bd565b9150614f2b82614eea565b602082019050919050565b60006020820190508181036000830152614f4f81614f13565b9050919050565b7f4974656d2077697468207468652073616d65206974656d494420657869737473600082015250565b6000614f8c6020836143bd565b9150614f9782614f56565b602082019050919050565b60006020820190508181036000830152614fbb81614f7f565b9050919050565b60006060820190508181036000830152614fdc81866143ce565b90508181036020830152614ff081856143ce565b9050614fff6040830184613e7b565b949350505050565b7f53686f7020697320636c6f736564000000000000000000000000000000000000600082015250565b600061503d600e836143bd565b915061504882615007565b602082019050919050565b6000602082019050818103600083015261506c81615030565b9050919050565b7f496e73756666696369656e742066756e64730000000000000000000000000000600082015250565b60006150a96012836143bd565b91506150b482615073565b602082019050919050565b600060208201905081810360008301526150d88161509c565b9050919050565b7f53686f70206f776e65722063616e6e6f7420627579207468656972206f776e2060008201527f6974656d00000000000000000000000000000000000000000000000000000000602082015250565b600061513b6024836143bd565b9150615146826150df565b604082019050919050565b6000602082019050818103600083015261516a8161512e565b9050919050565b60006040820190506151866000830185614931565b6151936020830184613e7b565b9392505050565b600060a0820190506151af60008301886144bd565b6151bc60208301876144bd565b6151c960408301866144bd565b6151d66060830185613e7b565b6151e36080830184613e7b565b9695505050505050565b600081905092915050565b6000615203826140c6565b61520d81856151ed565b935061521d8185602086016140e2565b80840191505092915050565b600061523582846151f8565b91508190509291505056fea2646970667358221220d956a5d4a9a354e5261c0e5f564f21093f36c5a1992e2c1a2f0734035a0606f464736f6c63430008140033",
  "linkReferences": {},
  "deployedLinkReferences": {}
}