{
  "_format": "hh-sol-artifact-1",
  "contractName": "ExchangeSite",
  "sourceName": "contracts/Exchange.sol",
  "abi": [
    {
      "inputs": [
        {
          "internalType": "address",
          "name": "_escrow",
          "type": "address"
        }
      ],
      "stateMutability": "nonpayable",
      "type": "constructor"
    },
    {
      "inputs": [],
      "name": "ReentrancyGuardReentrantCall",
      "type": "error"
    },
    {
      "inputs": [],
      "name": "itemDoesntExist",
      "type": "error"
    },
    {
      "inputs": [],
      "name": "itemNotListed",
      "type": "error"
    },
    {
      "inputs": [],
      "name": "notOwner",
      "type": "error"
    },
    {
      "inputs": [],
      "name": "shopDoesntExist",
      "type": "error"
    },
    {
      "anonymous": false,
      "inputs": [
        {
          "indexed": false,
          "internalType": "address",
          "name": "buyer",
          "type": "address"
        },
        {
          "indexed": false,
          "internalType": "uint256",
          "name": "value",
          "type": "uint256"
        }
      ],
      "name": "buyerBought",
      "type": "event"
    },
    {
      "anonymous": false,
      "inputs": [
        {
          "indexed": true,
          "internalType": "uint256",
          "name": "shopID",
          "type": "uint256"
        },
        {
          "indexed": false,
          "internalType": "string",
          "name": "name",
          "type": "string"
        },
        {
          "indexed": false,
          "internalType": "string",
          "name": "description",
          "type": "string"
        },
        {
          "indexed": false,
          "internalType": "uint256",
          "name": "price",
          "type": "uint256"
        }
      ],
      "name": "itemAdded",
      "type": "event"
    },
    {
      "anonymous": false,
      "inputs": [
        {
          "indexed": false,
          "internalType": "uint256",
          "name": "itemID",
          "type": "uint256"
        }
      ],
      "name": "itemDeleted",
      "type": "event"
    },
    {
      "anonymous": false,
      "inputs": [
        {
          "indexed": false,
          "internalType": "uint256",
          "name": "itemID",
          "type": "uint256"
        }
      ],
      "name": "itemUnlisted",
      "type": "event"
    },
    {
      "anonymous": false,
      "inputs": [],
      "name": "ownerClosedShop",
      "type": "event"
    },
    {
      "anonymous": false,
      "inputs": [
        {
          "indexed": false,
          "internalType": "uint256",
          "name": "_shopID",
          "type": "uint256"
        }
      ],
      "name": "ownerForeverClosedShop",
      "type": "event"
    },
    {
      "anonymous": false,
      "inputs": [
        {
          "indexed": false,
          "internalType": "uint256",
          "name": "newShopID",
          "type": "uint256"
        },
        {
          "indexed": false,
          "internalType": "string",
          "name": "name",
          "type": "string"
        }
      ],
      "name": "ownerOpenedShop",
      "type": "event"
    },
    {
      "inputs": [
        {
          "internalType": "uint256",
          "name": "_shopID",
          "type": "uint256"
        },
        {
          "internalType": "string",
          "name": "_name",
          "type": "string"
        },
        {
          "internalType": "string",
          "name": "_description",
          "type": "string"
        },
        {
          "internalType": "string",
          "name": "_item_im",
          "type": "string"
        },
        {
          "internalType": "uint256",
          "name": "_price",
          "type": "uint256"
        }
      ],
      "name": "addItem",
      "outputs": [],
      "stateMutability": "nonpayable",
      "type": "function"
    },
    {
      "inputs": [
        {
          "internalType": "address",
          "name": "",
          "type": "address"
        },
        {
          "internalType": "uint256",
          "name": "",
          "type": "uint256"
        }
      ],
      "name": "addressToShopIds",
      "outputs": [
        {
          "internalType": "uint256",
          "name": "",
          "type": "uint256"
        }
      ],
      "stateMutability": "view",
      "type": "function"
    },
    {
      "inputs": [
        {
          "internalType": "uint256",
          "name": "_itemID",
          "type": "uint256"
        },
        {
          "internalType": "uint256",
          "name": "_shopID",
          "type": "uint256"
        }
      ],
      "name": "buyItem",
      "outputs": [],
      "stateMutability": "payable",
      "type": "function"
    },
    {
      "inputs": [
        {
          "internalType": "uint256",
          "name": "_shopID",
          "type": "uint256"
        }
      ],
      "name": "closeShop",
      "outputs": [],
      "stateMutability": "nonpayable",
      "type": "function"
    },
    {
      "inputs": [
        {
          "internalType": "uint256",
          "name": "_shopID",
          "type": "uint256"
        },
        {
          "internalType": "uint256",
          "name": "_itemID",
          "type": "uint256"
        }
      ],
      "name": "deleteItem",
      "outputs": [],
      "stateMutability": "nonpayable",
      "type": "function"
    },
    {
      "inputs": [
        {
          "internalType": "uint256",
          "name": "_shopID",
          "type": "uint256"
        }
      ],
      "name": "foreverCloseShop",
      "outputs": [],
      "stateMutability": "nonpayable",
      "type": "function"
    },
    {
      "inputs": [],
      "name": "getAllItems",
      "outputs": [
        {
          "components": [
            {
              "internalType": "string",
              "name": "name",
              "type": "string"
            },
            {
              "internalType": "uint256",
              "name": "itemID",
              "type": "uint256"
            },
            {
              "internalType": "string",
              "name": "description",
              "type": "string"
            },
            {
              "internalType": "string",
              "name": "item_im",
              "type": "string"
            },
            {
              "internalType": "uint256",
              "name": "price",
              "type": "uint256"
            },
            {
              "internalType": "bool",
              "name": "listed",
              "type": "bool"
            }
          ],
          "internalType": "struct ExchangeSite.Item[]",
          "name": "",
          "type": "tuple[]"
        }
      ],
      "stateMutability": "view",
      "type": "function"
    },
    {
      "inputs": [],
      "name": "getAllShops",
      "outputs": [
        {
          "components": [
            {
              "internalType": "address payable",
              "name": "shopAddress",
              "type": "address"
            },
            {
              "internalType": "string",
              "name": "name",
              "type": "string"
            },
            {
              "internalType": "string",
              "name": "shop_profile",
              "type": "string"
            },
            {
              "internalType": "uint256",
              "name": "shopID",
              "type": "uint256"
            },
            {
              "internalType": "bool",
              "name": "isOpen",
              "type": "bool"
            }
          ],
          "internalType": "struct ExchangeSite.Shop[]",
          "name": "",
          "type": "tuple[]"
        }
      ],
      "stateMutability": "view",
      "type": "function"
    },
    {
      "inputs": [
        {
          "internalType": "uint256",
          "name": "_itemID",
          "type": "uint256"
        }
      ],
      "name": "getItemByID",
      "outputs": [
        {
          "components": [
            {
              "internalType": "string",
              "name": "name",
              "type": "string"
            },
            {
              "internalType": "uint256",
              "name": "itemID",
              "type": "uint256"
            },
            {
              "internalType": "string",
              "name": "description",
              "type": "string"
            },
            {
              "internalType": "string",
              "name": "item_im",
              "type": "string"
            },
            {
              "internalType": "uint256",
              "name": "price",
              "type": "uint256"
            },
            {
              "internalType": "bool",
              "name": "listed",
              "type": "bool"
            }
          ],
          "internalType": "struct ExchangeSite.Item",
          "name": "",
          "type": "tuple"
        }
      ],
      "stateMutability": "view",
      "type": "function"
    },
    {
      "inputs": [
        {
          "internalType": "string",
          "name": "_itemName",
          "type": "string"
        }
      ],
      "name": "getItemByName",
      "outputs": [
        {
          "components": [
            {
              "internalType": "string",
              "name": "name",
              "type": "string"
            },
            {
              "internalType": "uint256",
              "name": "itemID",
              "type": "uint256"
            },
            {
              "internalType": "string",
              "name": "description",
              "type": "string"
            },
            {
              "internalType": "string",
              "name": "item_im",
              "type": "string"
            },
            {
              "internalType": "uint256",
              "name": "price",
              "type": "uint256"
            },
            {
              "internalType": "bool",
              "name": "listed",
              "type": "bool"
            }
          ],
          "internalType": "struct ExchangeSite.Item",
          "name": "",
          "type": "tuple"
        }
      ],
      "stateMutability": "view",
      "type": "function"
    },
    {
      "inputs": [
        {
          "internalType": "uint256",
          "name": "_shopID",
          "type": "uint256"
        },
        {
          "internalType": "uint256",
          "name": "_itemID",
          "type": "uint256"
        }
      ],
      "name": "getItemIndex",
      "outputs": [
        {
          "internalType": "uint256",
          "name": "",
          "type": "uint256"
        }
      ],
      "stateMutability": "view",
      "type": "function"
    },
    {
      "inputs": [
        {
          "internalType": "uint256",
          "name": "_shopID",
          "type": "uint256"
        }
      ],
      "name": "getItemsForShop",
      "outputs": [
        {
          "components": [
            {
              "internalType": "string",
              "name": "name",
              "type": "string"
            },
            {
              "internalType": "uint256",
              "name": "itemID",
              "type": "uint256"
            },
            {
              "internalType": "string",
              "name": "description",
              "type": "string"
            },
            {
              "internalType": "string",
              "name": "item_im",
              "type": "string"
            },
            {
              "internalType": "uint256",
              "name": "price",
              "type": "uint256"
            },
            {
              "internalType": "bool",
              "name": "listed",
              "type": "bool"
            }
          ],
          "internalType": "struct ExchangeSite.Item[]",
          "name": "",
          "type": "tuple[]"
        }
      ],
      "stateMutability": "view",
      "type": "function"
    },
    {
      "inputs": [
        {
          "internalType": "address",
          "name": "_shopAddress",
          "type": "address"
        }
      ],
      "name": "getShopDetails",
      "outputs": [
        {
          "internalType": "address",
          "name": "",
          "type": "address"
        },
        {
          "internalType": "string",
          "name": "",
          "type": "string"
        },
        {
          "internalType": "uint256",
          "name": "",
          "type": "uint256"
        },
        {
          "internalType": "bool",
          "name": "",
          "type": "bool"
        }
      ],
      "stateMutability": "view",
      "type": "function"
    },
    {
      "inputs": [
        {
          "internalType": "address",
          "name": "_owner",
          "type": "address"
        }
      ],
      "name": "getShopIDs",
      "outputs": [
        {
          "internalType": "uint256[]",
          "name": "",
          "type": "uint256[]"
        }
      ],
      "stateMutability": "view",
      "type": "function"
    },
    {
      "inputs": [
        {
          "internalType": "uint256",
          "name": "",
          "type": "uint256"
        }
      ],
      "name": "itemIds",
      "outputs": [
        {
          "internalType": "uint256",
          "name": "",
          "type": "uint256"
        }
      ],
      "stateMutability": "view",
      "type": "function"
    },
    {
      "inputs": [
        {
          "internalType": "string",
          "name": "",
          "type": "string"
        }
      ],
      "name": "itemNames",
      "outputs": [
        {
          "internalType": "string",
          "name": "name",
          "type": "string"
        },
        {
          "internalType": "uint256",
          "name": "itemID",
          "type": "uint256"
        },
        {
          "internalType": "string",
          "name": "description",
          "type": "string"
        },
        {
          "internalType": "string",
          "name": "item_im",
          "type": "string"
        },
        {
          "internalType": "uint256",
          "name": "price",
          "type": "uint256"
        },
        {
          "internalType": "bool",
          "name": "listed",
          "type": "bool"
        }
      ],
      "stateMutability": "view",
      "type": "function"
    },
    {
      "inputs": [
        {
          "internalType": "uint256",
          "name": "",
          "type": "uint256"
        }
      ],
      "name": "items",
      "outputs": [
        {
          "internalType": "string",
          "name": "name",
          "type": "string"
        },
        {
          "internalType": "uint256",
          "name": "itemID",
          "type": "uint256"
        },
        {
          "internalType": "string",
          "name": "description",
          "type": "string"
        },
        {
          "internalType": "string",
          "name": "item_im",
          "type": "string"
        },
        {
          "internalType": "uint256",
          "name": "price",
          "type": "uint256"
        },
        {
          "internalType": "bool",
          "name": "listed",
          "type": "bool"
        }
      ],
      "stateMutability": "view",
      "type": "function"
    },
    {
      "inputs": [
        {
          "internalType": "uint256",
          "name": "",
          "type": "uint256"
        },
        {
          "internalType": "uint256",
          "name": "",
          "type": "uint256"
        }
      ],
      "name": "itemsIndex",
      "outputs": [
        {
          "internalType": "uint256",
          "name": "",
          "type": "uint256"
        }
      ],
      "stateMutability": "view",
      "type": "function"
    },
    {
      "inputs": [],
      "name": "newShopID",
      "outputs": [
        {
          "internalType": "uint256",
          "name": "",
          "type": "uint256"
        }
      ],
      "stateMutability": "view",
      "type": "function"
    },
    {
      "inputs": [
        {
          "internalType": "string",
          "name": "_name",
          "type": "string"
        },
        {
          "internalType": "string",
          "name": "_shop_profile",
          "type": "string"
        }
      ],
      "name": "openShop",
      "outputs": [],
      "stateMutability": "nonpayable",
      "type": "function"
    },
    {
      "inputs": [
        {
          "internalType": "uint256",
          "name": "",
          "type": "uint256"
        }
      ],
      "name": "s_availableShopIDs",
      "outputs": [
        {
          "internalType": "bool",
          "name": "",
          "type": "bool"
        }
      ],
      "stateMutability": "view",
      "type": "function"
    },
    {
      "inputs": [
        {
          "internalType": "address",
          "name": "",
          "type": "address"
        }
      ],
      "name": "s_availableShops",
      "outputs": [
        {
          "internalType": "address payable",
          "name": "shopAddress",
          "type": "address"
        },
        {
          "internalType": "string",
          "name": "name",
          "type": "string"
        },
        {
          "internalType": "string",
          "name": "shop_profile",
          "type": "string"
        },
        {
          "internalType": "uint256",
          "name": "shopID",
          "type": "uint256"
        },
        {
          "internalType": "bool",
          "name": "isOpen",
          "type": "bool"
        }
      ],
      "stateMutability": "view",
      "type": "function"
    },
    {
      "inputs": [],
      "name": "s_isOpen",
      "outputs": [
        {
          "internalType": "bool",
          "name": "",
          "type": "bool"
        }
      ],
      "stateMutability": "view",
      "type": "function"
    },
    {
      "inputs": [],
      "name": "s_itemID",
      "outputs": [
        {
          "internalType": "uint256",
          "name": "",
          "type": "uint256"
        }
      ],
      "stateMutability": "view",
      "type": "function"
    },
    {
      "inputs": [
        {
          "internalType": "uint256",
          "name": "",
          "type": "uint256"
        }
      ],
      "name": "s_shops",
      "outputs": [
        {
          "internalType": "address payable",
          "name": "shopAddress",
          "type": "address"
        },
        {
          "internalType": "string",
          "name": "name",
          "type": "string"
        },
        {
          "internalType": "string",
          "name": "shop_profile",
          "type": "string"
        },
        {
          "internalType": "uint256",
          "name": "shopID",
          "type": "uint256"
        },
        {
          "internalType": "bool",
          "name": "isOpen",
          "type": "bool"
        }
      ],
      "stateMutability": "view",
      "type": "function"
    },
    {
      "inputs": [],
      "name": "shopID",
      "outputs": [
        {
          "internalType": "uint256",
          "name": "",
          "type": "uint256"
        }
      ],
      "stateMutability": "view",
      "type": "function"
    },
    {
      "inputs": [
        {
          "internalType": "uint256",
          "name": "",
          "type": "uint256"
        },
        {
          "internalType": "uint256",
          "name": "",
          "type": "uint256"
        }
      ],
      "name": "shopIDToItems",
      "outputs": [
        {
          "internalType": "string",
          "name": "name",
          "type": "string"
        },
        {
          "internalType": "uint256",
          "name": "itemID",
          "type": "uint256"
        },
        {
          "internalType": "string",
          "name": "description",
          "type": "string"
        },
        {
          "internalType": "string",
          "name": "item_im",
          "type": "string"
        },
        {
          "internalType": "uint256",
          "name": "price",
          "type": "uint256"
        },
        {
          "internalType": "bool",
          "name": "listed",
          "type": "bool"
        }
      ],
      "stateMutability": "view",
      "type": "function"
    },
    {
      "inputs": [
        {
          "internalType": "uint256",
          "name": "",
          "type": "uint256"
        }
      ],
      "name": "shopIds",
      "outputs": [
        {
          "internalType": "uint256",
          "name": "",
          "type": "uint256"
        }
      ],
      "stateMutability": "view",
      "type": "function"
    },
    {
      "inputs": [
        {
          "internalType": "uint256",
          "name": "",
          "type": "uint256"
        }
      ],
      "name": "shops",
      "outputs": [
        {
          "internalType": "address payable",
          "name": "shopAddress",
          "type": "address"
        },
        {
          "internalType": "string",
          "name": "name",
          "type": "string"
        },
        {
          "internalType": "string",
          "name": "shop_profile",
          "type": "string"
        },
        {
          "internalType": "uint256",
          "name": "shopID",
          "type": "uint256"
        },
        {
          "internalType": "bool",
          "name": "isOpen",
          "type": "bool"
        }
      ],
      "stateMutability": "view",
      "type": "function"
    },
    {
      "inputs": [
        {
          "internalType": "uint256",
          "name": "_shopID",
          "type": "uint256"
        },
        {
          "internalType": "uint256",
          "name": "_itemID",
          "type": "uint256"
        }
      ],
      "name": "unlistItem",
      "outputs": [],
      "stateMutability": "nonpayable",
      "type": "function"
    },
    {
      "inputs": [
        {
          "internalType": "uint256",
          "name": "",
          "type": "uint256"
        }
      ],
      "name": "usedItemIDs",
      "outputs": [
        {
          "internalType": "bool",
          "name": "",
          "type": "bool"
        }
      ],
      "stateMutability": "view",
      "type": "function"
    },
    {
      "inputs": [
        {
          "internalType": "uint256",
          "name": "",
          "type": "uint256"
        }
      ],
      "name": "usedShopIDs",
      "outputs": [
        {
          "internalType": "bool",
          "name": "",
          "type": "bool"
        }
      ],
      "stateMutability": "view",
      "type": "function"
    }
  ],
  "bytecode": "0x60806040523480156200001157600080fd5b506040516200531238038062005312833981810160405281019062000037919062000132565b600160008190555033600260006101000a81548173ffffffffffffffffffffffffffffffffffffffff021916908373ffffffffffffffffffffffffffffffffffffffff16021790555080600160006101000a81548173ffffffffffffffffffffffffffffffffffffffff021916908373ffffffffffffffffffffffffffffffffffffffff1602179055505062000164565b600080fd5b600073ffffffffffffffffffffffffffffffffffffffff82169050919050565b6000620000fa82620000cd565b9050919050565b6200010c81620000ed565b81146200011857600080fd5b50565b6000815190506200012c8162000101565b92915050565b6000602082840312156200014b576200014a620000c8565b5b60006200015b848285016200011b565b91505092915050565b61519e80620001746000396000f3fe6080604052600436106101e35760003560e01c806391e03cd811610102578063c8c87f3411610095578063e55d06bd11610064578063e55d06bd146107d2578063e653ae14146107fb578063f120dfe81461083b578063f7d85c0514610864576101e3565b8063c8c87f3414610712578063cae227a81461073b578063d5c9b23914610766578063d74679de14610791576101e3565b8063ac5941d9116100d1578063ac5941d91461062b578063b066bc6614610668578063b3dc00fe14610693578063bfb231d2146106d0576101e3565b806391e03cd81461054f578063994d08e31461058c5780639979c009146105cd578063a6bddea4146105e9576101e3565b80635b22c7671161017a57806372cb14461161014957806372cb1446146104815780637aa6d13f146104be578063849a6f6e146104fb57806388c40b1c14610524576101e3565b80635b22c76714610398578063618a7e1d146103da5780636733db9b14610403578063713aca7414610440576101e3565b8063433ea747116101b6578063433ea747146102c85780634ba1d6aa146103055780634c92e881146103305780635473240c1461036d576101e3565b8063224e632e146101e85780633970d3eb146102255780633aa4a4ff1461024e5780633aaaa7811461028b575b600080fd5b3480156101f457600080fd5b5061020f600480360381019061020a9190613dac565b6108a1565b60405161021c9190613dfb565b60405180910390f35b34801561023157600080fd5b5061024c60048036038101906102479190613f5c565b6108c6565b005b34801561025a57600080fd5b5061027560048036038101906102709190613fd4565b610cab565b604051610282919061401c565b60405180910390f35b34801561029757600080fd5b506102b260048036038101906102ad9190613dac565b610ccb565b6040516102bf9190613dfb565b60405180910390f35b3480156102d457600080fd5b506102ef60048036038101906102ea9190613fd4565b610cfa565b6040516102fc919061416b565b60405180910390f35b34801561031157600080fd5b5061031a610f0c565b60405161032791906142e6565b60405180910390f35b34801561033c57600080fd5b5061035760048036038101906103529190613fd4565b6111d5565b604051610364919061401c565b60405180910390f35b34801561037957600080fd5b506103826111f5565b60405161038f9190613dfb565b60405180910390f35b3480156103a457600080fd5b506103bf60048036038101906103ba9190613dac565b6111fb565b6040516103d196959493929190614352565b60405180910390f35b3480156103e657600080fd5b5061040160048036038101906103fc9190613dac565b6113f9565b005b34801561040f57600080fd5b5061042a60048036038101906104259190613fd4565b6119e4565b604051610437919061401c565b60405180910390f35b34801561044c57600080fd5b5061046760048036038101906104629190613fd4565b611a04565b604051610478959493929190614409565b60405180910390f35b34801561048d57600080fd5b506104a860048036038101906104a391906144a8565b611b77565b6040516104b59190614584565b60405180910390f35b3480156104ca57600080fd5b506104e560048036038101906104e091906145a6565b611c0e565b6040516104f29190613dfb565b60405180910390f35b34801561050757600080fd5b50610522600480360381019061051d91906145e6565b611c3f565b005b34801561053057600080fd5b5061053961211d565b6040516105469190613dfb565b60405180910390f35b34801561055b57600080fd5b5061057660048036038101906105719190613fd4565b612123565b60405161058391906142e6565b60405180910390f35b34801561059857600080fd5b506105b360048036038101906105ae91906144a8565b61237a565b6040516105c4959493929190614409565b60405180910390f35b6105e760048036038101906105e29190613dac565b6124ed565b005b3480156105f557600080fd5b50610610600480360381019061060b91906146b5565b612949565b60405161062296959493929190614352565b60405180910390f35b34801561063757600080fd5b50610652600480360381019061064d9190613fd4565b612b40565b60405161065f9190613dfb565b60405180910390f35b34801561067457600080fd5b5061067d612b64565b60405161068a9190613dfb565b60405180910390f35b34801561069f57600080fd5b506106ba60048036038101906106b59190613fd4565b612b6a565b6040516106c79190613dfb565b60405180910390f35b3480156106dc57600080fd5b506106f760048036038101906106f29190613fd4565b612b8e565b60405161070996959493929190614352565b60405180910390f35b34801561071e57600080fd5b5061073960048036038101906107349190613fd4565b612d6f565b005b34801561074757600080fd5b50610750612fb3565b60405161075d919061401c565b60405180910390f35b34801561077257600080fd5b5061077b612fc6565b604051610788919061484c565b60405180910390f35b34801561079d57600080fd5b506107b860048036038101906107b39190613fd4565b613249565b6040516107c9959493929190614409565b60405180910390f35b3480156107de57600080fd5b506107f960048036038101906107f49190613dac565b6133cc565b005b34801561080757600080fd5b50610822600480360381019061081d91906144a8565b61359b565b604051610832949392919061487d565b60405180910390f35b34801561084757600080fd5b50610862600480360381019061085d9190613fd4565b6137b3565b005b34801561087057600080fd5b5061088b600480360381019061088691906146b5565b613a19565b604051610898919061416b565b60405180910390f35b600d602052816000526040600020602052806000526040600020600091509150505481565b6108ce613c36565b6000600960003373ffffffffffffffffffffffffffffffffffffffff1673ffffffffffffffffffffffffffffffffffffffff1681526020019081526020016000206003015414610953576040517f08c379a000000000000000000000000000000000000000000000000000000000815260040161094a9061493b565b60405180910390fd5b6001600554610962919061498a565b6006819055506005600081548092919061097b906149be565b91905055505b600a6000600654815260200190815260200160002060009054906101000a900460ff16156109c657600660008154809291906109bc906149be565b9190505550610981565b7f4c54c5cfb62c09c63a793214270d1b3d37f5c9093d3a033d1e9144d94e2904a1600654836040516109f9929190614a06565b60405180910390a160006040518060a001604052803373ffffffffffffffffffffffffffffffffffffffff168152602001848152602001838152602001600654815260200160011515815250905080600960003373ffffffffffffffffffffffffffffffffffffffff1673ffffffffffffffffffffffffffffffffffffffff16815260200190815260200160002060008201518160000160006101000a81548173ffffffffffffffffffffffffffffffffffffffff021916908373ffffffffffffffffffffffffffffffffffffffff1602179055506020820151816001019081610ae39190614c42565b506040820151816002019081610af99190614c42565b506060820151816003015560808201518160040160006101000a81548160ff0219169083151502179055509050508060106000600654815260200190815260200160002060008201518160000160006101000a81548173ffffffffffffffffffffffffffffffffffffffff021916908373ffffffffffffffffffffffffffffffffffffffff1602179055506020820151816001019081610b999190614c42565b506040820151816002019081610baf9190614c42565b506060820151816003015560808201518160040160006101000a81548160ff021916908315150217905550905050600b60003373ffffffffffffffffffffffffffffffffffffffff1673ffffffffffffffffffffffffffffffffffffffff168152602001908152602001600020600654908060018154018082558091505060019003906000526020600020016000909190919091505560116006549080600181540180825580915050600190039060005260206000200160009091909190915055600160146000600654815260200190815260200160002060006101000a81548160ff02191690831515021790555050610ca7613c7c565b5050565b60136020528060005260406000206000915054906101000a900460ff1681565b6000600d6000848152602001908152602001600020600083815260200190815260200160002054905092915050565b610d02613c86565b600e60008381526020019081526020016000206040518060c0016040529081600082018054610d3090614a65565b80601f0160208091040260200160405190810160405280929190818152602001828054610d5c90614a65565b8015610da95780601f10610d7e57610100808354040283529160200191610da9565b820191906000526020600020905b815481529060010190602001808311610d8c57829003601f168201915b5050505050815260200160018201548152602001600282018054610dcc90614a65565b80601f0160208091040260200160405190810160405280929190818152602001828054610df890614a65565b8015610e455780601f10610e1a57610100808354040283529160200191610e45565b820191906000526020600020905b815481529060010190602001808311610e2857829003601f168201915b50505050508152602001600382018054610e5e90614a65565b80601f0160208091040260200160405190810160405280929190818152602001828054610e8a90614a65565b8015610ed75780601f10610eac57610100808354040283529160200191610ed7565b820191906000526020600020905b815481529060010190602001808311610eba57829003601f168201915b50505050508152602001600482015481526020016005820160009054906101000a900460ff1615151515815250509050919050565b6060600060128054905067ffffffffffffffff811115610f2f57610f2e613e31565b5b604051908082528060200260200182016040528015610f6857816020015b610f55613c86565b815260200190600190039081610f4d5790505b50905060005b6012805490508110156111cd57600e600060128381548110610f9357610f92614d14565b5b906000526020600020015481526020019081526020016000206040518060c0016040529081600082018054610fc790614a65565b80601f0160208091040260200160405190810160405280929190818152602001828054610ff390614a65565b80156110405780601f1061101557610100808354040283529160200191611040565b820191906000526020600020905b81548152906001019060200180831161102357829003601f168201915b505050505081526020016001820154815260200160028201805461106390614a65565b80601f016020809104026020016040519081016040528092919081815260200182805461108f90614a65565b80156110dc5780601f106110b1576101008083540402835291602001916110dc565b820191906000526020600020905b8154815290600101906020018083116110bf57829003601f168201915b505050505081526020016003820180546110f590614a65565b80601f016020809104026020016040519081016040528092919081815260200182805461112190614a65565b801561116e5780601f106111435761010080835404028352916020019161116e565b820191906000526020600020905b81548152906001019060200180831161115157829003601f168201915b50505050508152602001600482015481526020016005820160009054906101000a900460ff1615151515815250508282815181106111af576111ae614d14565b5b602002602001018190525080806111c5906149be565b915050610f6e565b508091505090565b60146020528060005260406000206000915054906101000a900460ff1681565b60055481565b600c602052816000526040600020818154811061121757600080fd5b90600052602060002090600602016000915091505080600001805461123b90614a65565b80601f016020809104026020016040519081016040528092919081815260200182805461126790614a65565b80156112b45780601f10611289576101008083540402835291602001916112b4565b820191906000526020600020905b81548152906001019060200180831161129757829003601f168201915b5050505050908060010154908060020180546112cf90614a65565b80601f01602080910402602001604051908101604052809291908181526020018280546112fb90614a65565b80156113485780601f1061131d57610100808354040283529160200191611348565b820191906000526020600020905b81548152906001019060200180831161132b57829003601f168201915b50505050509080600301805461135d90614a65565b80601f016020809104026020016040519081016040528092919081815260200182805461138990614a65565b80156113d65780601f106113ab576101008083540402835291602001916113d6565b820191906000526020600020905b8154815290600101906020018083116113b957829003601f168201915b5050505050908060040154908060050160009054906101000a900460ff16905086565b816010600082815260200190815260200160002060000160009054906101000a900473ffffffffffffffffffffffffffffffffffffffff1673ffffffffffffffffffffffffffffffffffffffff163373ffffffffffffffffffffffffffffffffffffffff1614611495576040517f251c9d6300000000000000000000000000000000000000000000000000000000815260040160405180910390fd5b600073ffffffffffffffffffffffffffffffffffffffff163373ffffffffffffffffffffffffffffffffffffffff16036114fb576040517f251c9d6300000000000000000000000000000000000000000000000000000000815260040160405180910390fd5b816000600e6000838152602001908152602001600020600401540361154c576040517f14a9b56c00000000000000000000000000000000000000000000000000000000815260040160405180910390fd5b611554613c36565b7fe204ab41a209a3ddaa6602f52d300a3adf8b7f1baf8d7c36564d7000af556567836040516115839190613dfb565b60405180910390a1600e6000848152602001908152602001600020600080820160006115af9190613cbe565b60018201600090556002820160006115c79190613cbe565b6003820160006115d79190613cbe565b60048201600090556005820160006101000a81549060ff021916905550506000600d6000868152602001908152602001600020600085815260200190815260200160002054905060006001600c6000888152602001908152602001600020805490506116439190614d43565b90506000600c6000888152602001908152602001600020828154811061166c5761166b614d14565b5b90600052602060002090600602016040518060c001604052908160008201805461169590614a65565b80601f01602080910402602001604051908101604052809291908181526020018280546116c190614a65565b801561170e5780601f106116e35761010080835404028352916020019161170e565b820191906000526020600020905b8154815290600101906020018083116116f157829003601f168201915b505050505081526020016001820154815260200160028201805461173190614a65565b80601f016020809104026020016040519081016040528092919081815260200182805461175d90614a65565b80156117aa5780601f1061177f576101008083540402835291602001916117aa565b820191906000526020600020905b81548152906001019060200180831161178d57829003601f168201915b505050505081526020016003820180546117c390614a65565b80601f01602080910402602001604051908101604052809291908181526020018280546117ef90614a65565b801561183c5780601f106118115761010080835404028352916020019161183c565b820191906000526020600020905b81548152906001019060200180831161181f57829003601f168201915b50505050508152602001600482015481526020016005820160009054906101000a900460ff161515151581525050905080600c6000898152602001908152602001600020848154811061189257611891614d14565b5b906000526020600020906006020160008201518160000190816118b59190614c42565b506020820151816001015560408201518160020190816118d59190614c42565b5060608201518160030190816118eb9190614c42565b506080820151816004015560a08201518160050160006101000a81548160ff021916908315150217905550905050600c600088815260200190815260200160002080548061193c5761193b614d77565b5b6001900381819060005260206000209060060201600080820160006119619190613cbe565b60018201600090556002820160006119799190613cbe565b6003820160006119899190613cbe565b60048201600090556005820160006101000a81549060ff0219169055505090556000600d60008981526020019081526020016000206000888152602001908152602001600020819055505050506119de613c7c565b50505050565b600a6020528060005260406000206000915054906101000a900460ff1681565b60106020528060005260406000206000915090508060000160009054906101000a900473ffffffffffffffffffffffffffffffffffffffff1690806001018054611a4d90614a65565b80601f0160208091040260200160405190810160405280929190818152602001828054611a7990614a65565b8015611ac65780601f10611a9b57610100808354040283529160200191611ac6565b820191906000526020600020905b815481529060010190602001808311611aa957829003601f168201915b505050505090806002018054611adb90614a65565b80601f0160208091040260200160405190810160405280929190818152602001828054611b0790614a65565b8015611b545780601f10611b2957610100808354040283529160200191611b54565b820191906000526020600020905b815481529060010190602001808311611b3757829003601f168201915b5050505050908060030154908060040160009054906101000a900460ff16905085565b6060600b60008373ffffffffffffffffffffffffffffffffffffffff1673ffffffffffffffffffffffffffffffffffffffff168152602001908152602001600020805480602002602001604051908101604052809291908181526020018280548015611c0257602002820191906000526020600020905b815481526020019060010190808311611bee575b50505050509050919050565b600b6020528160005260406000208181548110611c2a57600080fd5b90600052602060002001600091509150505481565b846010600082815260200190815260200160002060000160009054906101000a900473ffffffffffffffffffffffffffffffffffffffff1673ffffffffffffffffffffffffffffffffffffffff163373ffffffffffffffffffffffffffffffffffffffff1614611cdb576040517f251c9d6300000000000000000000000000000000000000000000000000000000815260040160405180910390fd5b600073ffffffffffffffffffffffffffffffffffffffff163373ffffffffffffffffffffffffffffffffffffffff1603611d41576040517f251c9d6300000000000000000000000000000000000000000000000000000000815260040160405180910390fd5b611d49613c36565b85600073ffffffffffffffffffffffffffffffffffffffff166010600083815260200190815260200160002060000160009054906101000a900473ffffffffffffffffffffffffffffffffffffffff1673ffffffffffffffffffffffffffffffffffffffff1603611def576040517f08c379a0000000000000000000000000000000000000000000000000000000008152600401611de690614df2565b60405180910390fd5b60008311611e32576040517f08c379a0000000000000000000000000000000000000000000000000000000008152600401611e2990614e5e565b60405180910390fd5b60076000815480929190611e45906149be565b919050555060136000600754815260200190815260200160002060009054906101000a900460ff1615611ead576040517f08c379a0000000000000000000000000000000000000000000000000000000008152600401611ea490614eca565b60405180910390fd5b6007547fd0cd45effc79c4ce29820a43a252c040616d6be251e8f1448fb7f2d9cc26adc7878786604051611ee393929190614eea565b60405180910390a260006040518060c00160405280888152602001600754815260200187815260200186815260200185815260200160011515815250905080600e600060075481526020019081526020016000206000820151816000019081611f4c9190614c42565b50602082015181600101556040820151816002019081611f6c9190614c42565b506060820151816003019081611f829190614c42565b506080820151816004015560a08201518160050160006101000a81548160ff021916908315150217905550905050600160136000600754815260200190815260200160002060006101000a81548160ff02191690831515021790555060126007549080600181540180825580915050600190039060005260206000200160009091909190915055600c6000898152602001908152602001600020819080600181540180825580915050600190039060005260206000209060060201600090919091909150600082015181600001908161205b9190614c42565b5060208201518160010155604082015181600201908161207b9190614c42565b5060608201518160030190816120919190614c42565b506080820151816004015560a08201518160050160006101000a81548160ff02191690831515021790555050506001600c60008a8152602001908152602001600020805490506120e19190614d43565b600d60008a815260200190815260200160002060006007548152602001908152602001600020819055505050612115613c7c565b505050505050565b60075481565b6060600c6000838152602001908152602001600020805480602002602001604051908101604052809291908181526020016000905b8282101561236f57838290600052602060002090600602016040518060c001604052908160008201805461218b90614a65565b80601f01602080910402602001604051908101604052809291908181526020018280546121b790614a65565b80156122045780601f106121d957610100808354040283529160200191612204565b820191906000526020600020905b8154815290600101906020018083116121e757829003601f168201915b505050505081526020016001820154815260200160028201805461222790614a65565b80601f016020809104026020016040519081016040528092919081815260200182805461225390614a65565b80156122a05780601f10612275576101008083540402835291602001916122a0565b820191906000526020600020905b81548152906001019060200180831161228357829003601f168201915b505050505081526020016003820180546122b990614a65565b80601f01602080910402602001604051908101604052809291908181526020018280546122e590614a65565b80156123325780601f1061230757610100808354040283529160200191612332565b820191906000526020600020905b81548152906001019060200180831161231557829003601f168201915b50505050508152602001600482015481526020016005820160009054906101000a900460ff16151515158152505081526020019060010190612158565b505050509050919050565b60096020528060005260406000206000915090508060000160009054906101000a900473ffffffffffffffffffffffffffffffffffffffff16908060010180546123c390614a65565b80601f01602080910402602001604051908101604052809291908181526020018280546123ef90614a65565b801561243c5780601f106124115761010080835404028352916020019161243c565b820191906000526020600020905b81548152906001019060200180831161241f57829003601f168201915b50505050509080600201805461245190614a65565b80601f016020809104026020016040519081016040528092919081815260200182805461247d90614a65565b80156124ca5780601f1061249f576101008083540402835291602001916124ca565b820191906000526020600020905b8154815290600101906020018083116124ad57829003601f168201915b5050505050908060030154908060040160009054906101000a900460ff16905085565b8160001515600e600083815260200190815260200160002060050160009054906101000a900460ff1615150361254f576040517feaa7e69800000000000000000000000000000000000000000000000000000000815260040160405180910390fd5b81600115156010600083815260200190815260200160002060040160009054906101000a900460ff161515146125ba576040517f08c379a00000000000000000000000000000000000000000000000000000000081526004016125b190614f7b565b60405180910390fd5b82600073ffffffffffffffffffffffffffffffffffffffff166010600083815260200190815260200160002060000160009054906101000a900473ffffffffffffffffffffffffffffffffffffffff1673ffffffffffffffffffffffffffffffffffffffff1603612660576040517f08c379a000000000000000000000000000000000000000000000000000000000815260040161265790614df2565b60405180910390fd5b600e60008681526020019081526020016000206004015434146126b8576040517f08c379a00000000000000000000000000000000000000000000000000000000081526004016126af90614fe7565b60405180910390fd5b6010600085815260200190815260200160002060000160009054906101000a900473ffffffffffffffffffffffffffffffffffffffff1673ffffffffffffffffffffffffffffffffffffffff163373ffffffffffffffffffffffffffffffffffffffff160361275c576040517f08c379a000000000000000000000000000000000000000000000000000000000815260040161275390615079565b60405180910390fd5b6008600081548092919061276f906149be565b91905055507f1965d406518972c927ab5b9b0814c8f4a9c364ec5b149ed3dcba9db02eae008233346040516127a5929190615099565b60405180910390a1600160009054906101000a900473ffffffffffffffffffffffffffffffffffffffff1673ffffffffffffffffffffffffffffffffffffffff16630b98912b33600260009054906101000a900473ffffffffffffffffffffffffffffffffffffffff166010600089815260200190815260200160002060000160009054906101000a900473ffffffffffffffffffffffffffffffffffffffff16600e60008b8152602001908152602001600020600401546008546040518663ffffffff1660e01b81526004016128809594939291906150c2565b600060405180830381600087803b15801561289a57600080fd5b505af11580156128ae573d6000803e3d6000fd5b50505050600160009054906101000a900473ffffffffffffffffffffffffffffffffffffffff1673ffffffffffffffffffffffffffffffffffffffff166365714f63346008546040518363ffffffff1660e01b81526004016129109190613dfb565b6000604051808303818588803b15801561292957600080fd5b505af115801561293d573d6000803e3d6000fd5b50505050505050505050565b600f8180516020810182018051848252602083016020850120818352809550505050505060009150905080600001805461298290614a65565b80601f01602080910402602001604051908101604052809291908181526020018280546129ae90614a65565b80156129fb5780601f106129d0576101008083540402835291602001916129fb565b820191906000526020600020905b8154815290600101906020018083116129de57829003601f168201915b505050505090806001015490806002018054612a1690614a65565b80601f0160208091040260200160405190810160405280929190818152602001828054612a4290614a65565b8015612a8f5780601f10612a6457610100808354040283529160200191612a8f565b820191906000526020600020905b815481529060010190602001808311612a7257829003601f168201915b505050505090806003018054612aa490614a65565b80601f0160208091040260200160405190810160405280929190818152602001828054612ad090614a65565b8015612b1d5780601f10612af257610100808354040283529160200191612b1d565b820191906000526020600020905b815481529060010190602001808311612b0057829003601f168201915b5050505050908060040154908060050160009054906101000a900460ff16905086565b60118181548110612b5057600080fd5b906000526020600020016000915090505481565b60065481565b60128181548110612b7a57600080fd5b906000526020600020016000915090505481565b600e602052806000526040600020600091509050806000018054612bb190614a65565b80601f0160208091040260200160405190810160405280929190818152602001828054612bdd90614a65565b8015612c2a5780601f10612bff57610100808354040283529160200191612c2a565b820191906000526020600020905b815481529060010190602001808311612c0d57829003601f168201915b505050505090806001015490806002018054612c4590614a65565b80601f0160208091040260200160405190810160405280929190818152602001828054612c7190614a65565b8015612cbe5780601f10612c9357610100808354040283529160200191612cbe565b820191906000526020600020905b815481529060010190602001808311612ca157829003601f168201915b505050505090806003018054612cd390614a65565b80601f0160208091040260200160405190810160405280929190818152602001828054612cff90614a65565b8015612d4c5780601f10612d2157610100808354040283529160200191612d4c565b820191906000526020600020905b815481529060010190602001808311612d2f57829003601f168201915b5050505050908060040154908060050160009054906101000a900460ff16905086565b806010600082815260200190815260200160002060000160009054906101000a900473ffffffffffffffffffffffffffffffffffffffff1673ffffffffffffffffffffffffffffffffffffffff163373ffffffffffffffffffffffffffffffffffffffff1614612e0b576040517f251c9d6300000000000000000000000000000000000000000000000000000000815260040160405180910390fd5b600073ffffffffffffffffffffffffffffffffffffffff163373ffffffffffffffffffffffffffffffffffffffff1603612e71576040517f251c9d6300000000000000000000000000000000000000000000000000000000815260040160405180910390fd5b81600073ffffffffffffffffffffffffffffffffffffffff166010600083815260200190815260200160002060000160009054906101000a900473ffffffffffffffffffffffffffffffffffffffff1673ffffffffffffffffffffffffffffffffffffffff1603612f17576040517f08c379a0000000000000000000000000000000000000000000000000000000008152600401612f0e90614df2565b60405180910390fd5b612f1f613c36565b7f21ba22a4b53fc10d2239528ac0be6d1ce58d46d91c5e41cef202787629c8206760405160405180910390a16000600960003373ffffffffffffffffffffffffffffffffffffffff1673ffffffffffffffffffffffffffffffffffffffff16815260200190815260200160002060040160006101000a81548160ff021916908315150217905550612fae613c7c565b505050565b600460009054906101000a900460ff1681565b6060600060118054905067ffffffffffffffff811115612fe957612fe8613e31565b5b60405190808252806020026020018201604052801561302257816020015b61300f613cfe565b8152602001906001900390816130075790505b50905060005b60118054905081101561324157601060006011838154811061304d5761304c614d14565b5b906000526020600020015481526020019081526020016000206040518060a00160405290816000820160009054906101000a900473ffffffffffffffffffffffffffffffffffffffff1673ffffffffffffffffffffffffffffffffffffffff1673ffffffffffffffffffffffffffffffffffffffff1681526020016001820180546130d790614a65565b80601f016020809104026020016040519081016040528092919081815260200182805461310390614a65565b80156131505780601f1061312557610100808354040283529160200191613150565b820191906000526020600020905b81548152906001019060200180831161313357829003601f168201915b5050505050815260200160028201805461316990614a65565b80601f016020809104026020016040519081016040528092919081815260200182805461319590614a65565b80156131e25780601f106131b7576101008083540402835291602001916131e2565b820191906000526020600020905b8154815290600101906020018083116131c557829003601f168201915b50505050508152602001600382015481526020016004820160009054906101000a900460ff16151515158152505082828151811061322357613222614d14565b5b60200260200101819052508080613239906149be565b915050613028565b508091505090565b6003818154811061325957600080fd5b90600052602060002090600502016000915090508060000160009054906101000a900473ffffffffffffffffffffffffffffffffffffffff16908060010180546132a290614a65565b80601f01602080910402602001604051908101604052809291908181526020018280546132ce90614a65565b801561331b5780601f106132f05761010080835404028352916020019161331b565b820191906000526020600020905b8154815290600101906020018083116132fe57829003601f168201915b50505050509080600201805461333090614a65565b80601f016020809104026020016040519081016040528092919081815260200182805461335c90614a65565b80156133a95780601f1061337e576101008083540402835291602001916133a9565b820191906000526020600020905b81548152906001019060200180831161338c57829003601f168201915b5050505050908060030154908060040160009054906101000a900460ff16905085565b816010600082815260200190815260200160002060000160009054906101000a900473ffffffffffffffffffffffffffffffffffffffff1673ffffffffffffffffffffffffffffffffffffffff163373ffffffffffffffffffffffffffffffffffffffff1614613468576040517f251c9d6300000000000000000000000000000000000000000000000000000000815260040160405180910390fd5b600073ffffffffffffffffffffffffffffffffffffffff163373ffffffffffffffffffffffffffffffffffffffff16036134ce576040517f251c9d6300000000000000000000000000000000000000000000000000000000815260040160405180910390fd5b816000600e6000838152602001908152602001600020600401540361351f576040517f14a9b56c00000000000000000000000000000000000000000000000000000000815260040160405180910390fd5b613527613c36565b7f4d40977c6efde61c6064e8c4679d77fb9b6116f3fb24fa090522f6e263f0fa34836040516135569190613dfb565b60405180910390a16000600e600085815260200190815260200160002060050160006101000a81548160ff021916908315150217905550613595613c7c565b50505050565b600060606000806000600960008773ffffffffffffffffffffffffffffffffffffffff1673ffffffffffffffffffffffffffffffffffffffff1681526020019081526020016000206040518060a00160405290816000820160009054906101000a900473ffffffffffffffffffffffffffffffffffffffff1673ffffffffffffffffffffffffffffffffffffffff1673ffffffffffffffffffffffffffffffffffffffff16815260200160018201805461365490614a65565b80601f016020809104026020016040519081016040528092919081815260200182805461368090614a65565b80156136cd5780601f106136a2576101008083540402835291602001916136cd565b820191906000526020600020905b8154815290600101906020018083116136b057829003601f168201915b505050505081526020016002820180546136e690614a65565b80601f016020809104026020016040519081016040528092919081815260200182805461371290614a65565b801561375f5780601f106137345761010080835404028352916020019161375f565b820191906000526020600020905b81548152906001019060200180831161374257829003601f168201915b50505050508152602001600382015481526020016004820160009054906101000a900460ff161515151581525050905080600001518160200151826060015183608001519450945094509450509193509193565b806010600082815260200190815260200160002060000160009054906101000a900473ffffffffffffffffffffffffffffffffffffffff1673ffffffffffffffffffffffffffffffffffffffff163373ffffffffffffffffffffffffffffffffffffffff161461384f576040517f251c9d6300000000000000000000000000000000000000000000000000000000815260040160405180910390fd5b600073ffffffffffffffffffffffffffffffffffffffff163373ffffffffffffffffffffffffffffffffffffffff16036138b5576040517f251c9d6300000000000000000000000000000000000000000000000000000000815260040160405180910390fd5b81600073ffffffffffffffffffffffffffffffffffffffff166010600083815260200190815260200160002060000160009054906101000a900473ffffffffffffffffffffffffffffffffffffffff1673ffffffffffffffffffffffffffffffffffffffff160361395b576040517f08c379a000000000000000000000000000000000000000000000000000000000815260040161395290614df2565b60405180910390fd5b7fc83ae5a4794989f3b7101d3e8f1ddf5f3b51f5e4904f42575c17e424b2da1b328360405161398a9190613dfb565b60405180910390a1600a600084815260200190815260200160002060006101000a81549060ff0219169055600b60003373ffffffffffffffffffffffffffffffffffffffff1673ffffffffffffffffffffffffffffffffffffffff1681526020019081526020016000208381548110613a0657613a05614d14565b5b9060005260206000200160009055505050565b613a21613c86565b600f82604051613a319190615151565b90815260200160405180910390206040518060c0016040529081600082018054613a5a90614a65565b80601f0160208091040260200160405190810160405280929190818152602001828054613a8690614a65565b8015613ad35780601f10613aa857610100808354040283529160200191613ad3565b820191906000526020600020905b815481529060010190602001808311613ab657829003601f168201915b5050505050815260200160018201548152602001600282018054613af690614a65565b80601f0160208091040260200160405190810160405280929190818152602001828054613b2290614a65565b8015613b6f5780601f10613b4457610100808354040283529160200191613b6f565b820191906000526020600020905b815481529060010190602001808311613b5257829003601f168201915b50505050508152602001600382018054613b8890614a65565b80601f0160208091040260200160405190810160405280929190818152602001828054613bb490614a65565b8015613c015780601f10613bd657610100808354040283529160200191613c01565b820191906000526020600020905b815481529060010190602001808311613be457829003601f168201915b50505050508152602001600482015481526020016005820160009054906101000a900460ff1615151515815250509050919050565b600260005403613c72576040517f3ee5aeb500000000000000000000000000000000000000000000000000000000815260040160405180910390fd5b6002600081905550565b6001600081905550565b6040518060c0016040528060608152602001600081526020016060815260200160608152602001600081526020016000151581525090565b508054613cca90614a65565b6000825580601f10613cdc5750613cfb565b601f016020900490600052602060002090810190613cfa9190613d45565b5b50565b6040518060a00160405280600073ffffffffffffffffffffffffffffffffffffffff1681526020016060815260200160608152602001600081526020016000151581525090565b5b80821115613d5e576000816000905550600101613d46565b5090565b6000604051905090565b600080fd5b600080fd5b6000819050919050565b613d8981613d76565b8114613d9457600080fd5b50565b600081359050613da681613d80565b92915050565b60008060408385031215613dc357613dc2613d6c565b5b6000613dd185828601613d97565b9250506020613de285828601613d97565b9150509250929050565b613df581613d76565b82525050565b6000602082019050613e106000830184613dec565b92915050565b600080fd5b600080fd5b6000601f19601f8301169050919050565b7f4e487b7100000000000000000000000000000000000000000000000000000000600052604160045260246000fd5b613e6982613e20565b810181811067ffffffffffffffff82111715613e8857613e87613e31565b5b80604052505050565b6000613e9b613d62565b9050613ea78282613e60565b919050565b600067ffffffffffffffff821115613ec757613ec6613e31565b5b613ed082613e20565b9050602081019050919050565b82818337600083830152505050565b6000613eff613efa84613eac565b613e91565b905082815260208101848484011115613f1b57613f1a613e1b565b5b613f26848285613edd565b509392505050565b600082601f830112613f4357613f42613e16565b5b8135613f53848260208601613eec565b91505092915050565b60008060408385031215613f7357613f72613d6c565b5b600083013567ffffffffffffffff811115613f9157613f90613d71565b5b613f9d85828601613f2e565b925050602083013567ffffffffffffffff811115613fbe57613fbd613d71565b5b613fca85828601613f2e565b9150509250929050565b600060208284031215613fea57613fe9613d6c565b5b6000613ff884828501613d97565b91505092915050565b60008115159050919050565b61401681614001565b82525050565b6000602082019050614031600083018461400d565b92915050565b600081519050919050565b600082825260208201905092915050565b60005b83811015614071578082015181840152602081019050614056565b60008484015250505050565b600061408882614037565b6140928185614042565b93506140a2818560208601614053565b6140ab81613e20565b840191505092915050565b6140bf81613d76565b82525050565b6140ce81614001565b82525050565b600060c08301600083015184820360008601526140f1828261407d565b915050602083015161410660208601826140b6565b506040830151848203604086015261411e828261407d565b91505060608301518482036060860152614138828261407d565b915050608083015161414d60808601826140b6565b5060a083015161416060a08601826140c5565b508091505092915050565b6000602082019050818103600083015261418581846140d4565b905092915050565b600081519050919050565b600082825260208201905092915050565b6000819050602082019050919050565b600060c08301600083015184820360008601526141d6828261407d565b91505060208301516141eb60208601826140b6565b5060408301518482036040860152614203828261407d565b9150506060830151848203606086015261421d828261407d565b915050608083015161423260808601826140b6565b5060a083015161424560a08601826140c5565b508091505092915050565b600061425c83836141b9565b905092915050565b6000602082019050919050565b600061427c8261418d565b6142868185614198565b935083602082028501614298856141a9565b8060005b858110156142d457848403895281516142b58582614250565b94506142c083614264565b925060208a0199505060018101905061429c565b50829750879550505050505092915050565b600060208201905081810360008301526143008184614271565b905092915050565b600082825260208201905092915050565b600061432482614037565b61432e8185614308565b935061433e818560208601614053565b61434781613e20565b840191505092915050565b600060c082019050818103600083015261436c8189614319565b905061437b6020830188613dec565b818103604083015261438d8187614319565b905081810360608301526143a18186614319565b90506143b06080830185613dec565b6143bd60a083018461400d565b979650505050505050565b600073ffffffffffffffffffffffffffffffffffffffff82169050919050565b60006143f3826143c8565b9050919050565b614403816143e8565b82525050565b600060a08201905061441e60008301886143fa565b81810360208301526144308187614319565b905081810360408301526144448186614319565b90506144536060830185613dec565b614460608083018461400d565b9695505050505050565b6000614475826143c8565b9050919050565b6144858161446a565b811461449057600080fd5b50565b6000813590506144a28161447c565b92915050565b6000602082840312156144be576144bd613d6c565b5b60006144cc84828501614493565b91505092915050565b600081519050919050565b600082825260208201905092915050565b6000819050602082019050919050565b600061450d83836140b6565b60208301905092915050565b6000602082019050919050565b6000614531826144d5565b61453b81856144e0565b9350614546836144f1565b8060005b8381101561457757815161455e8882614501565b975061456983614519565b92505060018101905061454a565b5085935050505092915050565b6000602082019050818103600083015261459e8184614526565b905092915050565b600080604083850312156145bd576145bc613d6c565b5b60006145cb85828601614493565b92505060206145dc85828601613d97565b9150509250929050565b600080600080600060a0868803121561460257614601613d6c565b5b600061461088828901613d97565b955050602086013567ffffffffffffffff81111561463157614630613d71565b5b61463d88828901613f2e565b945050604086013567ffffffffffffffff81111561465e5761465d613d71565b5b61466a88828901613f2e565b935050606086013567ffffffffffffffff81111561468b5761468a613d71565b5b61469788828901613f2e565b92505060806146a888828901613d97565b9150509295509295909350565b6000602082840312156146cb576146ca613d6c565b5b600082013567ffffffffffffffff8111156146e9576146e8613d71565b5b6146f584828501613f2e565b91505092915050565b600081519050919050565b600082825260208201905092915050565b6000819050602082019050919050565b614733816143e8565b82525050565b600060a083016000830151614751600086018261472a565b5060208301518482036020860152614769828261407d565b91505060408301518482036040860152614783828261407d565b915050606083015161479860608601826140b6565b5060808301516147ab60808601826140c5565b508091505092915050565b60006147c28383614739565b905092915050565b6000602082019050919050565b60006147e2826146fe565b6147ec8185614709565b9350836020820285016147fe8561471a565b8060005b8581101561483a578484038952815161481b85826147b6565b9450614826836147ca565b925060208a01995050600181019050614802565b50829750879550505050505092915050565b6000602082019050818103600083015261486681846147d7565b905092915050565b6148778161446a565b82525050565b6000608082019050614892600083018761486e565b81810360208301526148a48186614319565b90506148b36040830185613dec565b6148c0606083018461400d565b95945050505050565b7f53686f7020616c72656164792065786973747320666f722074686973206f776e60008201527f6572000000000000000000000000000000000000000000000000000000000000602082015250565b6000614925602283614308565b9150614930826148c9565b604082019050919050565b6000602082019050818103600083015261495481614918565b9050919050565b7f4e487b7100000000000000000000000000000000000000000000000000000000600052601160045260246000fd5b600061499582613d76565b91506149a083613d76565b92508282019050808211156149b8576149b761495b565b5b92915050565b60006149c982613d76565b91507fffffffffffffffffffffffffffffffffffffffffffffffffffffffffffffffff82036149fb576149fa61495b565b5b600182019050919050565b6000604082019050614a1b6000830185613dec565b8181036020830152614a2d8184614319565b90509392505050565b7f4e487b7100000000000000000000000000000000000000000000000000000000600052602260045260246000fd5b60006002820490506001821680614a7d57607f821691505b602082108103614a9057614a8f614a36565b5b50919050565b60008190508160005260206000209050919050565b60006020601f8301049050919050565b600082821b905092915050565b600060088302614af87fffffffffffffffffffffffffffffffffffffffffffffffffffffffffffffffff82614abb565b614b028683614abb565b95508019841693508086168417925050509392505050565b6000819050919050565b6000614b3f614b3a614b3584613d76565b614b1a565b613d76565b9050919050565b6000819050919050565b614b5983614b24565b614b6d614b6582614b46565b848454614ac8565b825550505050565b600090565b614b82614b75565b614b8d818484614b50565b505050565b5b81811015614bb157614ba6600082614b7a565b600181019050614b93565b5050565b601f821115614bf657614bc781614a96565b614bd084614aab565b81016020851015614bdf578190505b614bf3614beb85614aab565b830182614b92565b50505b505050565b600082821c905092915050565b6000614c1960001984600802614bfb565b1980831691505092915050565b6000614c328383614c08565b9150826002028217905092915050565b614c4b82614037565b67ffffffffffffffff811115614c6457614c63613e31565b5b614c6e8254614a65565b614c79828285614bb5565b600060209050601f831160018114614cac5760008415614c9a578287015190505b614ca48582614c26565b865550614d0c565b601f198416614cba86614a96565b60005b82811015614ce257848901518255600182019150602085019450602081019050614cbd565b86831015614cff5784890151614cfb601f891682614c08565b8355505b6001600288020188555050505b505050505050565b7f4e487b7100000000000000000000000000000000000000000000000000000000600052603260045260246000fd5b6000614d4e82613d76565b9150614d5983613d76565b9250828203905081811115614d7157614d7061495b565b5b92915050565b7f4e487b7100000000000000000000000000000000000000000000000000000000600052603160045260246000fd5b7f53686f7020646f65736e27742065786973740000000000000000000000000000600082015250565b6000614ddc601283614308565b9150614de782614da6565b602082019050919050565b60006020820190508181036000830152614e0b81614dcf565b9050919050565b7f536574206974656d207072696365000000000000000000000000000000000000600082015250565b6000614e48600e83614308565b9150614e5382614e12565b602082019050919050565b60006020820190508181036000830152614e7781614e3b565b9050919050565b7f4974656d2077697468207468652073616d65206974656d494420657869737473600082015250565b6000614eb4602083614308565b9150614ebf82614e7e565b602082019050919050565b60006020820190508181036000830152614ee381614ea7565b9050919050565b60006060820190508181036000830152614f048186614319565b90508181036020830152614f188185614319565b9050614f276040830184613dec565b949350505050565b7f53686f7020697320636c6f736564000000000000000000000000000000000000600082015250565b6000614f65600e83614308565b9150614f7082614f2f565b602082019050919050565b60006020820190508181036000830152614f9481614f58565b9050919050565b7f496e73756666696369656e742066756e64730000000000000000000000000000600082015250565b6000614fd1601283614308565b9150614fdc82614f9b565b602082019050919050565b6000602082019050818103600083015261500081614fc4565b9050919050565b7f53686f70206f776e65722063616e6e6f7420627579207468656972206f776e2060008201527f6974656d00000000000000000000000000000000000000000000000000000000602082015250565b6000615063602483614308565b915061506e82615007565b604082019050919050565b6000602082019050818103600083015261509281615056565b9050919050565b60006040820190506150ae600083018561486e565b6150bb6020830184613dec565b9392505050565b600060a0820190506150d760008301886143fa565b6150e460208301876143fa565b6150f160408301866143fa565b6150fe6060830185613dec565b61510b6080830184613dec565b9695505050505050565b600081905092915050565b600061512b82614037565b6151358185615115565b9350615145818560208601614053565b80840191505092915050565b600061515d8284615120565b91508190509291505056fea2646970667358221220c162d3a20c5751efd8760684d82df321c95ffcd5be2f7c66cedb2f11e768899a64736f6c63430008140033",
  "linkReferences": {},
  "deployedLinkReferences": {}
}