{
  "_format": "hh-sol-artifact-1",
  "contractName": "ExchangeSite",
  "sourceName": "contracts/Exchange.sol",
  "abi": [
    {
      "inputs": [
        {
          "internalType": "address",
          "name": "_escrow",
          "type": "address"
        }
      ],
      "stateMutability": "nonpayable",
      "type": "constructor"
    },
    {
      "inputs": [],
      "name": "ReentrancyGuardReentrantCall",
      "type": "error"
    },
    {
      "inputs": [],
      "name": "itemDoesntExist",
      "type": "error"
    },
    {
      "inputs": [],
      "name": "itemNotListed",
      "type": "error"
    },
    {
      "inputs": [],
      "name": "notOwner",
      "type": "error"
    },
    {
      "inputs": [],
      "name": "shopDoesntExist",
      "type": "error"
    },
    {
      "anonymous": false,
      "inputs": [
        {
          "indexed": false,
          "internalType": "address",
          "name": "buyer",
          "type": "address"
        },
        {
          "indexed": false,
          "internalType": "uint256",
          "name": "value",
          "type": "uint256"
        }
      ],
      "name": "buyerBought",
      "type": "event"
    },
    {
      "anonymous": false,
      "inputs": [
        {
          "indexed": true,
          "internalType": "uint256",
          "name": "shopID",
          "type": "uint256"
        },
        {
          "indexed": false,
          "internalType": "string",
          "name": "name",
          "type": "string"
        },
        {
          "indexed": false,
          "internalType": "string",
          "name": "description",
          "type": "string"
        },
        {
          "indexed": false,
          "internalType": "uint256",
          "name": "price",
          "type": "uint256"
        }
      ],
      "name": "itemAdded",
      "type": "event"
    },
    {
      "anonymous": false,
      "inputs": [
        {
          "indexed": false,
          "internalType": "uint256",
          "name": "itemID",
          "type": "uint256"
        }
      ],
      "name": "itemDeleted",
      "type": "event"
    },
    {
      "anonymous": false,
      "inputs": [
        {
          "indexed": false,
          "internalType": "uint256",
          "name": "itemID",
          "type": "uint256"
        }
      ],
      "name": "itemUnlisted",
      "type": "event"
    },
    {
      "anonymous": false,
      "inputs": [],
      "name": "ownerClosedShop",
      "type": "event"
    },
    {
      "anonymous": false,
      "inputs": [
        {
          "indexed": false,
          "internalType": "uint256",
          "name": "_shopID",
          "type": "uint256"
        }
      ],
      "name": "ownerForeverClosedShop",
      "type": "event"
    },
    {
      "anonymous": false,
      "inputs": [
        {
          "indexed": false,
          "internalType": "uint256",
          "name": "newShopID",
          "type": "uint256"
        },
        {
          "indexed": false,
          "internalType": "string",
          "name": "name",
          "type": "string"
        }
      ],
      "name": "ownerOpenedShop",
      "type": "event"
    },
    {
      "inputs": [
        {
          "internalType": "uint256",
          "name": "_shopID",
          "type": "uint256"
        },
        {
          "internalType": "string",
          "name": "_name",
          "type": "string"
        },
        {
          "internalType": "string",
          "name": "_description",
          "type": "string"
        },
        {
          "internalType": "string",
          "name": "_item_im",
          "type": "string"
        },
        {
          "internalType": "uint256",
          "name": "_price",
          "type": "uint256"
        }
      ],
      "name": "addItem",
      "outputs": [],
      "stateMutability": "nonpayable",
      "type": "function"
    },
    {
      "inputs": [
        {
          "internalType": "address",
          "name": "",
          "type": "address"
        },
        {
          "internalType": "uint256",
          "name": "",
          "type": "uint256"
        }
      ],
      "name": "addressToShopIds",
      "outputs": [
        {
          "internalType": "uint256",
          "name": "",
          "type": "uint256"
        }
      ],
      "stateMutability": "view",
      "type": "function"
    },
    {
      "inputs": [
        {
          "internalType": "uint256",
          "name": "_itemID",
          "type": "uint256"
        },
        {
          "internalType": "uint256",
          "name": "_shopID",
          "type": "uint256"
        }
      ],
      "name": "buyItem",
      "outputs": [],
      "stateMutability": "payable",
      "type": "function"
    },
    {
      "inputs": [
        {
          "internalType": "uint256",
          "name": "_shopID",
          "type": "uint256"
        }
      ],
      "name": "closeShop",
      "outputs": [],
      "stateMutability": "nonpayable",
      "type": "function"
    },
    {
      "inputs": [
        {
          "internalType": "uint256",
          "name": "_shopID",
          "type": "uint256"
        },
        {
          "internalType": "uint256",
          "name": "_itemID",
          "type": "uint256"
        }
      ],
      "name": "deleteItem",
      "outputs": [],
      "stateMutability": "nonpayable",
      "type": "function"
    },
    {
      "inputs": [
        {
          "internalType": "uint256",
          "name": "_shopID",
          "type": "uint256"
        }
      ],
      "name": "foreverCloseShop",
      "outputs": [],
      "stateMutability": "nonpayable",
      "type": "function"
    },
    {
      "inputs": [
        {
          "internalType": "uint256",
          "name": "_itemID",
          "type": "uint256"
        }
      ],
      "name": "getItemByID",
      "outputs": [
        {
          "components": [
            {
              "internalType": "string",
              "name": "name",
              "type": "string"
            },
            {
              "internalType": "uint256",
              "name": "itemID",
              "type": "uint256"
            },
            {
              "internalType": "string",
              "name": "description",
              "type": "string"
            },
            {
              "internalType": "string",
              "name": "item_im",
              "type": "string"
            },
            {
              "internalType": "uint256",
              "name": "price",
              "type": "uint256"
            },
            {
              "internalType": "bool",
              "name": "listed",
              "type": "bool"
            }
          ],
          "internalType": "struct ExchangeSite.Item",
          "name": "",
          "type": "tuple"
        }
      ],
      "stateMutability": "view",
      "type": "function"
    },
    {
      "inputs": [
        {
          "internalType": "string",
          "name": "_itemName",
          "type": "string"
        }
      ],
      "name": "getItemByName",
      "outputs": [
        {
          "components": [
            {
              "internalType": "string",
              "name": "name",
              "type": "string"
            },
            {
              "internalType": "uint256",
              "name": "itemID",
              "type": "uint256"
            },
            {
              "internalType": "string",
              "name": "description",
              "type": "string"
            },
            {
              "internalType": "string",
              "name": "item_im",
              "type": "string"
            },
            {
              "internalType": "uint256",
              "name": "price",
              "type": "uint256"
            },
            {
              "internalType": "bool",
              "name": "listed",
              "type": "bool"
            }
          ],
          "internalType": "struct ExchangeSite.Item",
          "name": "",
          "type": "tuple"
        }
      ],
      "stateMutability": "view",
      "type": "function"
    },
    {
      "inputs": [
        {
          "internalType": "uint256",
          "name": "_shopID",
          "type": "uint256"
        },
        {
          "internalType": "uint256",
          "name": "_itemID",
          "type": "uint256"
        }
      ],
      "name": "getItemIndex",
      "outputs": [
        {
          "internalType": "uint256",
          "name": "",
          "type": "uint256"
        }
      ],
      "stateMutability": "view",
      "type": "function"
    },
    {
      "inputs": [
        {
          "internalType": "uint256",
          "name": "_shopID",
          "type": "uint256"
        }
      ],
      "name": "getItemsForShop",
      "outputs": [
        {
          "components": [
            {
              "internalType": "string",
              "name": "name",
              "type": "string"
            },
            {
              "internalType": "uint256",
              "name": "itemID",
              "type": "uint256"
            },
            {
              "internalType": "string",
              "name": "description",
              "type": "string"
            },
            {
              "internalType": "string",
              "name": "item_im",
              "type": "string"
            },
            {
              "internalType": "uint256",
              "name": "price",
              "type": "uint256"
            },
            {
              "internalType": "bool",
              "name": "listed",
              "type": "bool"
            }
          ],
          "internalType": "struct ExchangeSite.Item[]",
          "name": "",
          "type": "tuple[]"
        }
      ],
      "stateMutability": "view",
      "type": "function"
    },
    {
      "inputs": [
        {
          "internalType": "address",
          "name": "_shopAddress",
          "type": "address"
        }
      ],
      "name": "getShopDetails",
      "outputs": [
        {
          "internalType": "address",
          "name": "",
          "type": "address"
        },
        {
          "internalType": "string",
          "name": "",
          "type": "string"
        },
        {
          "internalType": "uint256",
          "name": "",
          "type": "uint256"
        },
        {
          "internalType": "bool",
          "name": "",
          "type": "bool"
        }
      ],
      "stateMutability": "view",
      "type": "function"
    },
    {
      "inputs": [
        {
          "internalType": "address",
          "name": "_owner",
          "type": "address"
        }
      ],
      "name": "getShopIDs",
      "outputs": [
        {
          "internalType": "uint256[]",
          "name": "",
          "type": "uint256[]"
        }
      ],
      "stateMutability": "view",
      "type": "function"
    },
    {
      "inputs": [
        {
          "internalType": "string",
          "name": "",
          "type": "string"
        }
      ],
      "name": "itemNames",
      "outputs": [
        {
          "internalType": "string",
          "name": "name",
          "type": "string"
        },
        {
          "internalType": "uint256",
          "name": "itemID",
          "type": "uint256"
        },
        {
          "internalType": "string",
          "name": "description",
          "type": "string"
        },
        {
          "internalType": "string",
          "name": "item_im",
          "type": "string"
        },
        {
          "internalType": "uint256",
          "name": "price",
          "type": "uint256"
        },
        {
          "internalType": "bool",
          "name": "listed",
          "type": "bool"
        }
      ],
      "stateMutability": "view",
      "type": "function"
    },
    {
      "inputs": [
        {
          "internalType": "uint256",
          "name": "",
          "type": "uint256"
        }
      ],
      "name": "items",
      "outputs": [
        {
          "internalType": "string",
          "name": "name",
          "type": "string"
        },
        {
          "internalType": "uint256",
          "name": "itemID",
          "type": "uint256"
        },
        {
          "internalType": "string",
          "name": "description",
          "type": "string"
        },
        {
          "internalType": "string",
          "name": "item_im",
          "type": "string"
        },
        {
          "internalType": "uint256",
          "name": "price",
          "type": "uint256"
        },
        {
          "internalType": "bool",
          "name": "listed",
          "type": "bool"
        }
      ],
      "stateMutability": "view",
      "type": "function"
    },
    {
      "inputs": [
        {
          "internalType": "uint256",
          "name": "",
          "type": "uint256"
        },
        {
          "internalType": "uint256",
          "name": "",
          "type": "uint256"
        }
      ],
      "name": "itemsIndex",
      "outputs": [
        {
          "internalType": "uint256",
          "name": "",
          "type": "uint256"
        }
      ],
      "stateMutability": "view",
      "type": "function"
    },
    {
      "inputs": [],
      "name": "newShopID",
      "outputs": [
        {
          "internalType": "uint256",
          "name": "",
          "type": "uint256"
        }
      ],
      "stateMutability": "view",
      "type": "function"
    },
    {
      "inputs": [
        {
          "internalType": "string",
          "name": "_name",
          "type": "string"
        },
        {
          "internalType": "string",
          "name": "_shop_profile",
          "type": "string"
        }
      ],
      "name": "openShop",
      "outputs": [],
      "stateMutability": "nonpayable",
      "type": "function"
    },
    {
      "inputs": [
        {
          "internalType": "uint256",
          "name": "",
          "type": "uint256"
        }
      ],
      "name": "s_availableShopIDs",
      "outputs": [
        {
          "internalType": "bool",
          "name": "",
          "type": "bool"
        }
      ],
      "stateMutability": "view",
      "type": "function"
    },
    {
      "inputs": [
        {
          "internalType": "address",
          "name": "",
          "type": "address"
        }
      ],
      "name": "s_availableShops",
      "outputs": [
        {
          "internalType": "address payable",
          "name": "shopAddress",
          "type": "address"
        },
        {
          "internalType": "string",
          "name": "name",
          "type": "string"
        },
        {
          "internalType": "string",
          "name": "shop_profile",
          "type": "string"
        },
        {
          "internalType": "uint256",
          "name": "shopID",
          "type": "uint256"
        },
        {
          "internalType": "bool",
          "name": "isOpen",
          "type": "bool"
        }
      ],
      "stateMutability": "view",
      "type": "function"
    },
    {
      "inputs": [],
      "name": "s_isOpen",
      "outputs": [
        {
          "internalType": "bool",
          "name": "",
          "type": "bool"
        }
      ],
      "stateMutability": "view",
      "type": "function"
    },
    {
      "inputs": [],
      "name": "s_itemID",
      "outputs": [
        {
          "internalType": "uint256",
          "name": "",
          "type": "uint256"
        }
      ],
      "stateMutability": "view",
      "type": "function"
    },
    {
      "inputs": [
        {
          "internalType": "uint256",
          "name": "",
          "type": "uint256"
        }
      ],
      "name": "s_shops",
      "outputs": [
        {
          "internalType": "address payable",
          "name": "shopAddress",
          "type": "address"
        },
        {
          "internalType": "string",
          "name": "name",
          "type": "string"
        },
        {
          "internalType": "string",
          "name": "shop_profile",
          "type": "string"
        },
        {
          "internalType": "uint256",
          "name": "shopID",
          "type": "uint256"
        },
        {
          "internalType": "bool",
          "name": "isOpen",
          "type": "bool"
        }
      ],
      "stateMutability": "view",
      "type": "function"
    },
    {
      "inputs": [],
      "name": "shopID",
      "outputs": [
        {
          "internalType": "uint256",
          "name": "",
          "type": "uint256"
        }
      ],
      "stateMutability": "view",
      "type": "function"
    },
    {
      "inputs": [
        {
          "internalType": "uint256",
          "name": "",
          "type": "uint256"
        },
        {
          "internalType": "uint256",
          "name": "",
          "type": "uint256"
        }
      ],
      "name": "shopIDToItems",
      "outputs": [
        {
          "internalType": "string",
          "name": "name",
          "type": "string"
        },
        {
          "internalType": "uint256",
          "name": "itemID",
          "type": "uint256"
        },
        {
          "internalType": "string",
          "name": "description",
          "type": "string"
        },
        {
          "internalType": "string",
          "name": "item_im",
          "type": "string"
        },
        {
          "internalType": "uint256",
          "name": "price",
          "type": "uint256"
        },
        {
          "internalType": "bool",
          "name": "listed",
          "type": "bool"
        }
      ],
      "stateMutability": "view",
      "type": "function"
    },
    {
      "inputs": [
        {
          "internalType": "uint256",
          "name": "",
          "type": "uint256"
        }
      ],
      "name": "shops",
      "outputs": [
        {
          "internalType": "address payable",
          "name": "shopAddress",
          "type": "address"
        },
        {
          "internalType": "string",
          "name": "name",
          "type": "string"
        },
        {
          "internalType": "string",
          "name": "shop_profile",
          "type": "string"
        },
        {
          "internalType": "uint256",
          "name": "shopID",
          "type": "uint256"
        },
        {
          "internalType": "bool",
          "name": "isOpen",
          "type": "bool"
        }
      ],
      "stateMutability": "view",
      "type": "function"
    },
    {
      "inputs": [
        {
          "internalType": "uint256",
          "name": "_shopID",
          "type": "uint256"
        },
        {
          "internalType": "uint256",
          "name": "_itemID",
          "type": "uint256"
        }
      ],
      "name": "unlistItem",
      "outputs": [],
      "stateMutability": "nonpayable",
      "type": "function"
    }
  ],
  "bytecode": "0x60806040523480156200001157600080fd5b506040516200490938038062004909833981810160405281019062000037919062000132565b600160008190555033600260006101000a81548173ffffffffffffffffffffffffffffffffffffffff021916908373ffffffffffffffffffffffffffffffffffffffff16021790555080600160006101000a81548173ffffffffffffffffffffffffffffffffffffffff021916908373ffffffffffffffffffffffffffffffffffffffff1602179055505062000164565b600080fd5b600073ffffffffffffffffffffffffffffffffffffffff82169050919050565b6000620000fa82620000cd565b9050919050565b6200010c81620000ed565b81146200011857600080fd5b50565b6000815190506200012c8162000101565b92915050565b6000602082840312156200014b576200014a620000c8565b5b60006200015b848285016200011b565b91505092915050565b61479580620001746000396000f3fe6080604052600436106101815760003560e01c806391e03cd8116100d1578063c8c87f341161008a578063e55d06bd11610064578063e55d06bd14610626578063e653ae141461064f578063f120dfe81461068f578063f7d85c05146106b857610181565b8063c8c87f3414610591578063cae227a8146105ba578063d74679de146105e557610181565b806391e03cd814610448578063994d08e3146104855780639979c009146104c6578063a6bddea4146104e2578063b066bc6614610524578063bfb231d21461054f57610181565b8063618a7e1d1161013e57806372cb14461161011857806372cb14461461037a5780637aa6d13f146103b7578063849a6f6e146103f457806388c40b1c1461041d57610181565b8063618a7e1d146102d35780636733db9b146102fc578063713aca741461033957610181565b8063224e632e146101865780633970d3eb146101c35780633aaaa781146101ec578063433ea747146102295780635473240c146102665780635b22c76714610291575b600080fd5b34801561019257600080fd5b506101ad60048036038101906101a89190613513565b6106f5565b6040516101ba9190613562565b60405180910390f35b3480156101cf57600080fd5b506101ea60048036038101906101e591906136c3565b61071a565b005b3480156101f857600080fd5b50610213600480360381019061020e9190613513565b610a8e565b6040516102209190613562565b60405180910390f35b34801561023557600080fd5b50610250600480360381019061024b919061373b565b610abd565b60405161025d91906138a8565b60405180910390f35b34801561027257600080fd5b5061027b610ccf565b6040516102889190613562565b60405180910390f35b34801561029d57600080fd5b506102b860048036038101906102b39190613513565b610cd5565b6040516102ca96959493929190613923565b60405180910390f35b3480156102df57600080fd5b506102fa60048036038101906102f59190613513565b610ed3565b005b34801561030857600080fd5b50610323600480360381019061031e919061373b565b6114be565b6040516103309190613999565b60405180910390f35b34801561034557600080fd5b50610360600480360381019061035b919061373b565b6114de565b6040516103719594939291906139f5565b60405180910390f35b34801561038657600080fd5b506103a1600480360381019061039c9190613a94565b611651565b6040516103ae9190613b70565b60405180910390f35b3480156103c357600080fd5b506103de60048036038101906103d99190613b92565b6116e8565b6040516103eb9190613562565b60405180910390f35b34801561040057600080fd5b5061041b60048036038101906104169190613bd2565b611719565b005b34801561042957600080fd5b50610432611b96565b60405161043f9190613562565b60405180910390f35b34801561045457600080fd5b5061046f600480360381019061046a919061373b565b611b9c565b60405161047c9190613dfa565b60405180910390f35b34801561049157600080fd5b506104ac60048036038101906104a79190613a94565b611df3565b6040516104bd9594939291906139f5565b60405180910390f35b6104e060048036038101906104db9190613513565b611f66565b005b3480156104ee57600080fd5b5061050960048036038101906105049190613e1c565b6123c2565b60405161051b96959493929190613923565b60405180910390f35b34801561053057600080fd5b506105396125b9565b6040516105469190613562565b60405180910390f35b34801561055b57600080fd5b506105766004803603810190610571919061373b565b6125bf565b60405161058896959493929190613923565b60405180910390f35b34801561059d57600080fd5b506105b860048036038101906105b3919061373b565b6127a0565b005b3480156105c657600080fd5b506105cf6129e4565b6040516105dc9190613999565b60405180910390f35b3480156105f157600080fd5b5061060c6004803603810190610607919061373b565b6129f7565b60405161061d9594939291906139f5565b60405180910390f35b34801561063257600080fd5b5061064d60048036038101906106489190613513565b612b7a565b005b34801561065b57600080fd5b5061067660048036038101906106719190613a94565b612d49565b6040516106869493929190613e74565b60405180910390f35b34801561069b57600080fd5b506106b660048036038101906106b1919061373b565b612f61565b005b3480156106c457600080fd5b506106df60048036038101906106da9190613e1c565b6131c7565b6040516106ec91906138a8565b60405180910390f35b600d602052816000526040600020602052806000526040600020600091509150505481565b6107226133e4565b6000600960003373ffffffffffffffffffffffffffffffffffffffff1673ffffffffffffffffffffffffffffffffffffffff16815260200190815260200160002060030154146107a7576040517f08c379a000000000000000000000000000000000000000000000000000000000815260040161079e90613f32565b60405180910390fd5b60016005546107b69190613f81565b6006819055505b600a6000600654815260200190815260200160002060009054906101000a900460ff161561080257600660008154809291906107f890613fb5565b91905055506107bd565b7f4c54c5cfb62c09c63a793214270d1b3d37f5c9093d3a033d1e9144d94e2904a160065483604051610835929190613ffd565b60405180910390a160006040518060a001604052803373ffffffffffffffffffffffffffffffffffffffff168152602001848152602001838152602001600654815260200160011515815250905080600960003373ffffffffffffffffffffffffffffffffffffffff1673ffffffffffffffffffffffffffffffffffffffff16815260200190815260200160002060008201518160000160006101000a81548173ffffffffffffffffffffffffffffffffffffffff021916908373ffffffffffffffffffffffffffffffffffffffff160217905550602082015181600101908161091f9190614239565b5060408201518160020190816109359190614239565b506060820151816003015560808201518160040160006101000a81548160ff0219169083151502179055509050508060106000600654815260200190815260200160002060008201518160000160006101000a81548173ffffffffffffffffffffffffffffffffffffffff021916908373ffffffffffffffffffffffffffffffffffffffff16021790555060208201518160010190816109d59190614239565b5060408201518160020190816109eb9190614239565b506060820151816003015560808201518160040160006101000a81548160ff021916908315150217905550905050600b60003373ffffffffffffffffffffffffffffffffffffffff1673ffffffffffffffffffffffffffffffffffffffff168152602001908152602001600020600654908060018154018082558091505060019003906000526020600020016000909190919091505550610a8a61342a565b5050565b6000600d6000848152602001908152602001600020600083815260200190815260200160002054905092915050565b610ac5613434565b600e60008381526020019081526020016000206040518060c0016040529081600082018054610af39061405c565b80601f0160208091040260200160405190810160405280929190818152602001828054610b1f9061405c565b8015610b6c5780601f10610b4157610100808354040283529160200191610b6c565b820191906000526020600020905b815481529060010190602001808311610b4f57829003601f168201915b5050505050815260200160018201548152602001600282018054610b8f9061405c565b80601f0160208091040260200160405190810160405280929190818152602001828054610bbb9061405c565b8015610c085780601f10610bdd57610100808354040283529160200191610c08565b820191906000526020600020905b815481529060010190602001808311610beb57829003601f168201915b50505050508152602001600382018054610c219061405c565b80601f0160208091040260200160405190810160405280929190818152602001828054610c4d9061405c565b8015610c9a5780601f10610c6f57610100808354040283529160200191610c9a565b820191906000526020600020905b815481529060010190602001808311610c7d57829003601f168201915b50505050508152602001600482015481526020016005820160009054906101000a900460ff1615151515815250509050919050565b60055481565b600c6020528160005260406000208181548110610cf157600080fd5b906000526020600020906006020160009150915050806000018054610d159061405c565b80601f0160208091040260200160405190810160405280929190818152602001828054610d419061405c565b8015610d8e5780601f10610d6357610100808354040283529160200191610d8e565b820191906000526020600020905b815481529060010190602001808311610d7157829003601f168201915b505050505090806001015490806002018054610da99061405c565b80601f0160208091040260200160405190810160405280929190818152602001828054610dd59061405c565b8015610e225780601f10610df757610100808354040283529160200191610e22565b820191906000526020600020905b815481529060010190602001808311610e0557829003601f168201915b505050505090806003018054610e379061405c565b80601f0160208091040260200160405190810160405280929190818152602001828054610e639061405c565b8015610eb05780601f10610e8557610100808354040283529160200191610eb0565b820191906000526020600020905b815481529060010190602001808311610e9357829003601f168201915b5050505050908060040154908060050160009054906101000a900460ff16905086565b816010600082815260200190815260200160002060000160009054906101000a900473ffffffffffffffffffffffffffffffffffffffff1673ffffffffffffffffffffffffffffffffffffffff163373ffffffffffffffffffffffffffffffffffffffff1614610f6f576040517f251c9d6300000000000000000000000000000000000000000000000000000000815260040160405180910390fd5b600073ffffffffffffffffffffffffffffffffffffffff163373ffffffffffffffffffffffffffffffffffffffff1603610fd5576040517f251c9d6300000000000000000000000000000000000000000000000000000000815260040160405180910390fd5b816000600e60008381526020019081526020016000206004015403611026576040517f14a9b56c00000000000000000000000000000000000000000000000000000000815260040160405180910390fd5b61102e6133e4565b7fe204ab41a209a3ddaa6602f52d300a3adf8b7f1baf8d7c36564d7000af5565678360405161105d9190613562565b60405180910390a1600e600084815260200190815260200160002060008082016000611089919061346c565b60018201600090556002820160006110a1919061346c565b6003820160006110b1919061346c565b60048201600090556005820160006101000a81549060ff021916905550506000600d6000868152602001908152602001600020600085815260200190815260200160002054905060006001600c60008881526020019081526020016000208054905061111d919061430b565b90506000600c600088815260200190815260200160002082815481106111465761114561433f565b5b90600052602060002090600602016040518060c001604052908160008201805461116f9061405c565b80601f016020809104026020016040519081016040528092919081815260200182805461119b9061405c565b80156111e85780601f106111bd576101008083540402835291602001916111e8565b820191906000526020600020905b8154815290600101906020018083116111cb57829003601f168201915b505050505081526020016001820154815260200160028201805461120b9061405c565b80601f01602080910402602001604051908101604052809291908181526020018280546112379061405c565b80156112845780601f1061125957610100808354040283529160200191611284565b820191906000526020600020905b81548152906001019060200180831161126757829003601f168201915b5050505050815260200160038201805461129d9061405c565b80601f01602080910402602001604051908101604052809291908181526020018280546112c99061405c565b80156113165780601f106112eb57610100808354040283529160200191611316565b820191906000526020600020905b8154815290600101906020018083116112f957829003601f168201915b50505050508152602001600482015481526020016005820160009054906101000a900460ff161515151581525050905080600c6000898152602001908152602001600020848154811061136c5761136b61433f565b5b9060005260206000209060060201600082015181600001908161138f9190614239565b506020820151816001015560408201518160020190816113af9190614239565b5060608201518160030190816113c59190614239565b506080820151816004015560a08201518160050160006101000a81548160ff021916908315150217905550905050600c60008881526020019081526020016000208054806114165761141561436e565b5b60019003818190600052602060002090600602016000808201600061143b919061346c565b6001820160009055600282016000611453919061346c565b600382016000611463919061346c565b60048201600090556005820160006101000a81549060ff0219169055505090556000600d60008981526020019081526020016000206000888152602001908152602001600020819055505050506114b861342a565b50505050565b600a6020528060005260406000206000915054906101000a900460ff1681565b60106020528060005260406000206000915090508060000160009054906101000a900473ffffffffffffffffffffffffffffffffffffffff16908060010180546115279061405c565b80601f01602080910402602001604051908101604052809291908181526020018280546115539061405c565b80156115a05780601f10611575576101008083540402835291602001916115a0565b820191906000526020600020905b81548152906001019060200180831161158357829003601f168201915b5050505050908060020180546115b59061405c565b80601f01602080910402602001604051908101604052809291908181526020018280546115e19061405c565b801561162e5780601f106116035761010080835404028352916020019161162e565b820191906000526020600020905b81548152906001019060200180831161161157829003601f168201915b5050505050908060030154908060040160009054906101000a900460ff16905085565b6060600b60008373ffffffffffffffffffffffffffffffffffffffff1673ffffffffffffffffffffffffffffffffffffffff1681526020019081526020016000208054806020026020016040519081016040528092919081815260200182805480156116dc57602002820191906000526020600020905b8154815260200190600101908083116116c8575b50505050509050919050565b600b602052816000526040600020818154811061170457600080fd5b90600052602060002001600091509150505481565b846010600082815260200190815260200160002060000160009054906101000a900473ffffffffffffffffffffffffffffffffffffffff1673ffffffffffffffffffffffffffffffffffffffff163373ffffffffffffffffffffffffffffffffffffffff16146117b5576040517f251c9d6300000000000000000000000000000000000000000000000000000000815260040160405180910390fd5b600073ffffffffffffffffffffffffffffffffffffffff163373ffffffffffffffffffffffffffffffffffffffff160361181b576040517f251c9d6300000000000000000000000000000000000000000000000000000000815260040160405180910390fd5b6118236133e4565b85600073ffffffffffffffffffffffffffffffffffffffff166010600083815260200190815260200160002060000160009054906101000a900473ffffffffffffffffffffffffffffffffffffffff1673ffffffffffffffffffffffffffffffffffffffff16036118c9576040517f08c379a00000000000000000000000000000000000000000000000000000000081526004016118c0906143e9565b60405180910390fd5b6000600e600060075481526020019081526020016000206004015414611924576040517f08c379a000000000000000000000000000000000000000000000000000000000815260040161191b90614455565b60405180910390fd5b60008311611967576040517f08c379a000000000000000000000000000000000000000000000000000000000815260040161195e906144c1565b60405180910390fd5b6007600081548092919061197a90613fb5565b91905055506007547fd0cd45effc79c4ce29820a43a252c040616d6be251e8f1448fb7f2d9cc26adc78787866040516119b5939291906144e1565b60405180910390a260006040518060c00160405280888152602001600754815260200187815260200186815260200185815260200160011515815250905080600e600060075481526020019081526020016000206000820151816000019081611a1e9190614239565b50602082015181600101556040820151816002019081611a3e9190614239565b506060820151816003019081611a549190614239565b506080820151816004015560a08201518160050160006101000a81548160ff021916908315150217905550905050600c60008981526020019081526020016000208190806001815401808255809150506001900390600052602060002090600602016000909190919091506000820151816000019081611ad49190614239565b50602082015181600101556040820151816002019081611af49190614239565b506060820151816003019081611b0a9190614239565b506080820151816004015560a08201518160050160006101000a81548160ff02191690831515021790555050506001600c60008a815260200190815260200160002080549050611b5a919061430b565b600d60008a815260200190815260200160002060006007548152602001908152602001600020819055505050611b8e61342a565b505050505050565b60075481565b6060600c6000838152602001908152602001600020805480602002602001604051908101604052809291908181526020016000905b82821015611de857838290600052602060002090600602016040518060c0016040529081600082018054611c049061405c565b80601f0160208091040260200160405190810160405280929190818152602001828054611c309061405c565b8015611c7d5780601f10611c5257610100808354040283529160200191611c7d565b820191906000526020600020905b815481529060010190602001808311611c6057829003601f168201915b5050505050815260200160018201548152602001600282018054611ca09061405c565b80601f0160208091040260200160405190810160405280929190818152602001828054611ccc9061405c565b8015611d195780601f10611cee57610100808354040283529160200191611d19565b820191906000526020600020905b815481529060010190602001808311611cfc57829003601f168201915b50505050508152602001600382018054611d329061405c565b80601f0160208091040260200160405190810160405280929190818152602001828054611d5e9061405c565b8015611dab5780601f10611d8057610100808354040283529160200191611dab565b820191906000526020600020905b815481529060010190602001808311611d8e57829003601f168201915b50505050508152602001600482015481526020016005820160009054906101000a900460ff16151515158152505081526020019060010190611bd1565b505050509050919050565b60096020528060005260406000206000915090508060000160009054906101000a900473ffffffffffffffffffffffffffffffffffffffff1690806001018054611e3c9061405c565b80601f0160208091040260200160405190810160405280929190818152602001828054611e689061405c565b8015611eb55780601f10611e8a57610100808354040283529160200191611eb5565b820191906000526020600020905b815481529060010190602001808311611e9857829003601f168201915b505050505090806002018054611eca9061405c565b80601f0160208091040260200160405190810160405280929190818152602001828054611ef69061405c565b8015611f435780601f10611f1857610100808354040283529160200191611f43565b820191906000526020600020905b815481529060010190602001808311611f2657829003601f168201915b5050505050908060030154908060040160009054906101000a900460ff16905085565b8160001515600e600083815260200190815260200160002060050160009054906101000a900460ff16151503611fc8576040517feaa7e69800000000000000000000000000000000000000000000000000000000815260040160405180910390fd5b81600115156010600083815260200190815260200160002060040160009054906101000a900460ff16151514612033576040517f08c379a000000000000000000000000000000000000000000000000000000000815260040161202a90614572565b60405180910390fd5b82600073ffffffffffffffffffffffffffffffffffffffff166010600083815260200190815260200160002060000160009054906101000a900473ffffffffffffffffffffffffffffffffffffffff1673ffffffffffffffffffffffffffffffffffffffff16036120d9576040517f08c379a00000000000000000000000000000000000000000000000000000000081526004016120d0906143e9565b60405180910390fd5b600e6000868152602001908152602001600020600401543414612131576040517f08c379a0000000000000000000000000000000000000000000000000000000008152600401612128906145de565b60405180910390fd5b6010600085815260200190815260200160002060000160009054906101000a900473ffffffffffffffffffffffffffffffffffffffff1673ffffffffffffffffffffffffffffffffffffffff163373ffffffffffffffffffffffffffffffffffffffff16036121d5576040517f08c379a00000000000000000000000000000000000000000000000000000000081526004016121cc90614670565b60405180910390fd5b600860008154809291906121e890613fb5565b91905055507f1965d406518972c927ab5b9b0814c8f4a9c364ec5b149ed3dcba9db02eae0082333460405161221e929190614690565b60405180910390a1600160009054906101000a900473ffffffffffffffffffffffffffffffffffffffff1673ffffffffffffffffffffffffffffffffffffffff16630b98912b33600260009054906101000a900473ffffffffffffffffffffffffffffffffffffffff166010600089815260200190815260200160002060000160009054906101000a900473ffffffffffffffffffffffffffffffffffffffff16600e60008b8152602001908152602001600020600401546008546040518663ffffffff1660e01b81526004016122f99594939291906146b9565b600060405180830381600087803b15801561231357600080fd5b505af1158015612327573d6000803e3d6000fd5b50505050600160009054906101000a900473ffffffffffffffffffffffffffffffffffffffff1673ffffffffffffffffffffffffffffffffffffffff166365714f63346008546040518363ffffffff1660e01b81526004016123899190613562565b6000604051808303818588803b1580156123a257600080fd5b505af11580156123b6573d6000803e3d6000fd5b50505050505050505050565b600f818051602081018201805184825260208301602085012081835280955050505050506000915090508060000180546123fb9061405c565b80601f01602080910402602001604051908101604052809291908181526020018280546124279061405c565b80156124745780601f1061244957610100808354040283529160200191612474565b820191906000526020600020905b81548152906001019060200180831161245757829003601f168201915b50505050509080600101549080600201805461248f9061405c565b80601f01602080910402602001604051908101604052809291908181526020018280546124bb9061405c565b80156125085780601f106124dd57610100808354040283529160200191612508565b820191906000526020600020905b8154815290600101906020018083116124eb57829003601f168201915b50505050509080600301805461251d9061405c565b80601f01602080910402602001604051908101604052809291908181526020018280546125499061405c565b80156125965780601f1061256b57610100808354040283529160200191612596565b820191906000526020600020905b81548152906001019060200180831161257957829003601f168201915b5050505050908060040154908060050160009054906101000a900460ff16905086565b60065481565b600e6020528060005260406000206000915090508060000180546125e29061405c565b80601f016020809104026020016040519081016040528092919081815260200182805461260e9061405c565b801561265b5780601f106126305761010080835404028352916020019161265b565b820191906000526020600020905b81548152906001019060200180831161263e57829003601f168201915b5050505050908060010154908060020180546126769061405c565b80601f01602080910402602001604051908101604052809291908181526020018280546126a29061405c565b80156126ef5780601f106126c4576101008083540402835291602001916126ef565b820191906000526020600020905b8154815290600101906020018083116126d257829003601f168201915b5050505050908060030180546127049061405c565b80601f01602080910402602001604051908101604052809291908181526020018280546127309061405c565b801561277d5780601f106127525761010080835404028352916020019161277d565b820191906000526020600020905b81548152906001019060200180831161276057829003601f168201915b5050505050908060040154908060050160009054906101000a900460ff16905086565b806010600082815260200190815260200160002060000160009054906101000a900473ffffffffffffffffffffffffffffffffffffffff1673ffffffffffffffffffffffffffffffffffffffff163373ffffffffffffffffffffffffffffffffffffffff161461283c576040517f251c9d6300000000000000000000000000000000000000000000000000000000815260040160405180910390fd5b600073ffffffffffffffffffffffffffffffffffffffff163373ffffffffffffffffffffffffffffffffffffffff16036128a2576040517f251c9d6300000000000000000000000000000000000000000000000000000000815260040160405180910390fd5b81600073ffffffffffffffffffffffffffffffffffffffff166010600083815260200190815260200160002060000160009054906101000a900473ffffffffffffffffffffffffffffffffffffffff1673ffffffffffffffffffffffffffffffffffffffff1603612948576040517f08c379a000000000000000000000000000000000000000000000000000000000815260040161293f906143e9565b60405180910390fd5b6129506133e4565b7f21ba22a4b53fc10d2239528ac0be6d1ce58d46d91c5e41cef202787629c8206760405160405180910390a16000600960003373ffffffffffffffffffffffffffffffffffffffff1673ffffffffffffffffffffffffffffffffffffffff16815260200190815260200160002060040160006101000a81548160ff0219169083151502179055506129df61342a565b505050565b600460009054906101000a900460ff1681565b60038181548110612a0757600080fd5b90600052602060002090600502016000915090508060000160009054906101000a900473ffffffffffffffffffffffffffffffffffffffff1690806001018054612a509061405c565b80601f0160208091040260200160405190810160405280929190818152602001828054612a7c9061405c565b8015612ac95780601f10612a9e57610100808354040283529160200191612ac9565b820191906000526020600020905b815481529060010190602001808311612aac57829003601f168201915b505050505090806002018054612ade9061405c565b80601f0160208091040260200160405190810160405280929190818152602001828054612b0a9061405c565b8015612b575780601f10612b2c57610100808354040283529160200191612b57565b820191906000526020600020905b815481529060010190602001808311612b3a57829003601f168201915b5050505050908060030154908060040160009054906101000a900460ff16905085565b816010600082815260200190815260200160002060000160009054906101000a900473ffffffffffffffffffffffffffffffffffffffff1673ffffffffffffffffffffffffffffffffffffffff163373ffffffffffffffffffffffffffffffffffffffff1614612c16576040517f251c9d6300000000000000000000000000000000000000000000000000000000815260040160405180910390fd5b600073ffffffffffffffffffffffffffffffffffffffff163373ffffffffffffffffffffffffffffffffffffffff1603612c7c576040517f251c9d6300000000000000000000000000000000000000000000000000000000815260040160405180910390fd5b816000600e60008381526020019081526020016000206004015403612ccd576040517f14a9b56c00000000000000000000000000000000000000000000000000000000815260040160405180910390fd5b612cd56133e4565b7f4d40977c6efde61c6064e8c4679d77fb9b6116f3fb24fa090522f6e263f0fa3483604051612d049190613562565b60405180910390a16000600e600085815260200190815260200160002060050160006101000a81548160ff021916908315150217905550612d4361342a565b50505050565b600060606000806000600960008773ffffffffffffffffffffffffffffffffffffffff1673ffffffffffffffffffffffffffffffffffffffff1681526020019081526020016000206040518060a00160405290816000820160009054906101000a900473ffffffffffffffffffffffffffffffffffffffff1673ffffffffffffffffffffffffffffffffffffffff1673ffffffffffffffffffffffffffffffffffffffff168152602001600182018054612e029061405c565b80601f0160208091040260200160405190810160405280929190818152602001828054612e2e9061405c565b8015612e7b5780601f10612e5057610100808354040283529160200191612e7b565b820191906000526020600020905b815481529060010190602001808311612e5e57829003601f168201915b50505050508152602001600282018054612e949061405c565b80601f0160208091040260200160405190810160405280929190818152602001828054612ec09061405c565b8015612f0d5780601f10612ee257610100808354040283529160200191612f0d565b820191906000526020600020905b815481529060010190602001808311612ef057829003601f168201915b50505050508152602001600382015481526020016004820160009054906101000a900460ff161515151581525050905080600001518160200151826060015183608001519450945094509450509193509193565b806010600082815260200190815260200160002060000160009054906101000a900473ffffffffffffffffffffffffffffffffffffffff1673ffffffffffffffffffffffffffffffffffffffff163373ffffffffffffffffffffffffffffffffffffffff1614612ffd576040517f251c9d6300000000000000000000000000000000000000000000000000000000815260040160405180910390fd5b600073ffffffffffffffffffffffffffffffffffffffff163373ffffffffffffffffffffffffffffffffffffffff1603613063576040517f251c9d6300000000000000000000000000000000000000000000000000000000815260040160405180910390fd5b81600073ffffffffffffffffffffffffffffffffffffffff166010600083815260200190815260200160002060000160009054906101000a900473ffffffffffffffffffffffffffffffffffffffff1673ffffffffffffffffffffffffffffffffffffffff1603613109576040517f08c379a0000000000000000000000000000000000000000000000000000000008152600401613100906143e9565b60405180910390fd5b7fc83ae5a4794989f3b7101d3e8f1ddf5f3b51f5e4904f42575c17e424b2da1b32836040516131389190613562565b60405180910390a1600a600084815260200190815260200160002060006101000a81549060ff0219169055600b60003373ffffffffffffffffffffffffffffffffffffffff1673ffffffffffffffffffffffffffffffffffffffff16815260200190815260200160002083815481106131b4576131b361433f565b5b9060005260206000200160009055505050565b6131cf613434565b600f826040516131df9190614748565b90815260200160405180910390206040518060c00160405290816000820180546132089061405c565b80601f01602080910402602001604051908101604052809291908181526020018280546132349061405c565b80156132815780601f1061325657610100808354040283529160200191613281565b820191906000526020600020905b81548152906001019060200180831161326457829003601f168201915b50505050508152602001600182015481526020016002820180546132a49061405c565b80601f01602080910402602001604051908101604052809291908181526020018280546132d09061405c565b801561331d5780601f106132f25761010080835404028352916020019161331d565b820191906000526020600020905b81548152906001019060200180831161330057829003601f168201915b505050505081526020016003820180546133369061405c565b80601f01602080910402602001604051908101604052809291908181526020018280546133629061405c565b80156133af5780601f10613384576101008083540402835291602001916133af565b820191906000526020600020905b81548152906001019060200180831161339257829003601f168201915b50505050508152602001600482015481526020016005820160009054906101000a900460ff1615151515815250509050919050565b600260005403613420576040517f3ee5aeb500000000000000000000000000000000000000000000000000000000815260040160405180910390fd5b6002600081905550565b6001600081905550565b6040518060c0016040528060608152602001600081526020016060815260200160608152602001600081526020016000151581525090565b5080546134789061405c565b6000825580601f1061348a57506134a9565b601f0160209004906000526020600020908101906134a891906134ac565b5b50565b5b808211156134c55760008160009055506001016134ad565b5090565b6000604051905090565b600080fd5b600080fd5b6000819050919050565b6134f0816134dd565b81146134fb57600080fd5b50565b60008135905061350d816134e7565b92915050565b6000806040838503121561352a576135296134d3565b5b6000613538858286016134fe565b9250506020613549858286016134fe565b9150509250929050565b61355c816134dd565b82525050565b60006020820190506135776000830184613553565b92915050565b600080fd5b600080fd5b6000601f19601f8301169050919050565b7f4e487b7100000000000000000000000000000000000000000000000000000000600052604160045260246000fd5b6135d082613587565b810181811067ffffffffffffffff821117156135ef576135ee613598565b5b80604052505050565b60006136026134c9565b905061360e82826135c7565b919050565b600067ffffffffffffffff82111561362e5761362d613598565b5b61363782613587565b9050602081019050919050565b82818337600083830152505050565b600061366661366184613613565b6135f8565b90508281526020810184848401111561368257613681613582565b5b61368d848285613644565b509392505050565b600082601f8301126136aa576136a961357d565b5b81356136ba848260208601613653565b91505092915050565b600080604083850312156136da576136d96134d3565b5b600083013567ffffffffffffffff8111156136f8576136f76134d8565b5b61370485828601613695565b925050602083013567ffffffffffffffff811115613725576137246134d8565b5b61373185828601613695565b9150509250929050565b600060208284031215613751576137506134d3565b5b600061375f848285016134fe565b91505092915050565b600081519050919050565b600082825260208201905092915050565b60005b838110156137a2578082015181840152602081019050613787565b60008484015250505050565b60006137b982613768565b6137c38185613773565b93506137d3818560208601613784565b6137dc81613587565b840191505092915050565b6137f0816134dd565b82525050565b60008115159050919050565b61380b816137f6565b82525050565b600060c083016000830151848203600086015261382e82826137ae565b915050602083015161384360208601826137e7565b506040830151848203604086015261385b82826137ae565b9150506060830151848203606086015261387582826137ae565b915050608083015161388a60808601826137e7565b5060a083015161389d60a0860182613802565b508091505092915050565b600060208201905081810360008301526138c28184613811565b905092915050565b600082825260208201905092915050565b60006138e682613768565b6138f081856138ca565b9350613900818560208601613784565b61390981613587565b840191505092915050565b61391d816137f6565b82525050565b600060c082019050818103600083015261393d81896138db565b905061394c6020830188613553565b818103604083015261395e81876138db565b9050818103606083015261397281866138db565b90506139816080830185613553565b61398e60a0830184613914565b979650505050505050565b60006020820190506139ae6000830184613914565b92915050565b600073ffffffffffffffffffffffffffffffffffffffff82169050919050565b60006139df826139b4565b9050919050565b6139ef816139d4565b82525050565b600060a082019050613a0a60008301886139e6565b8181036020830152613a1c81876138db565b90508181036040830152613a3081866138db565b9050613a3f6060830185613553565b613a4c6080830184613914565b9695505050505050565b6000613a61826139b4565b9050919050565b613a7181613a56565b8114613a7c57600080fd5b50565b600081359050613a8e81613a68565b92915050565b600060208284031215613aaa57613aa96134d3565b5b6000613ab884828501613a7f565b91505092915050565b600081519050919050565b600082825260208201905092915050565b6000819050602082019050919050565b6000613af983836137e7565b60208301905092915050565b6000602082019050919050565b6000613b1d82613ac1565b613b278185613acc565b9350613b3283613add565b8060005b83811015613b63578151613b4a8882613aed565b9750613b5583613b05565b925050600181019050613b36565b5085935050505092915050565b60006020820190508181036000830152613b8a8184613b12565b905092915050565b60008060408385031215613ba957613ba86134d3565b5b6000613bb785828601613a7f565b9250506020613bc8858286016134fe565b9150509250929050565b600080600080600060a08688031215613bee57613bed6134d3565b5b6000613bfc888289016134fe565b955050602086013567ffffffffffffffff811115613c1d57613c1c6134d8565b5b613c2988828901613695565b945050604086013567ffffffffffffffff811115613c4a57613c496134d8565b5b613c5688828901613695565b935050606086013567ffffffffffffffff811115613c7757613c766134d8565b5b613c8388828901613695565b9250506080613c94888289016134fe565b9150509295509295909350565b600081519050919050565b600082825260208201905092915050565b6000819050602082019050919050565b600060c0830160008301518482036000860152613cea82826137ae565b9150506020830151613cff60208601826137e7565b5060408301518482036040860152613d1782826137ae565b91505060608301518482036060860152613d3182826137ae565b9150506080830151613d4660808601826137e7565b5060a0830151613d5960a0860182613802565b508091505092915050565b6000613d708383613ccd565b905092915050565b6000602082019050919050565b6000613d9082613ca1565b613d9a8185613cac565b935083602082028501613dac85613cbd565b8060005b85811015613de85784840389528151613dc98582613d64565b9450613dd483613d78565b925060208a01995050600181019050613db0565b50829750879550505050505092915050565b60006020820190508181036000830152613e148184613d85565b905092915050565b600060208284031215613e3257613e316134d3565b5b600082013567ffffffffffffffff811115613e5057613e4f6134d8565b5b613e5c84828501613695565b91505092915050565b613e6e81613a56565b82525050565b6000608082019050613e896000830187613e65565b8181036020830152613e9b81866138db565b9050613eaa6040830185613553565b613eb76060830184613914565b95945050505050565b7f53686f7020616c72656164792065786973747320666f722074686973206f776e60008201527f6572000000000000000000000000000000000000000000000000000000000000602082015250565b6000613f1c6022836138ca565b9150613f2782613ec0565b604082019050919050565b60006020820190508181036000830152613f4b81613f0f565b9050919050565b7f4e487b7100000000000000000000000000000000000000000000000000000000600052601160045260246000fd5b6000613f8c826134dd565b9150613f97836134dd565b9250828201905080821115613faf57613fae613f52565b5b92915050565b6000613fc0826134dd565b91507fffffffffffffffffffffffffffffffffffffffffffffffffffffffffffffffff8203613ff257613ff1613f52565b5b600182019050919050565b60006040820190506140126000830185613553565b818103602083015261402481846138db565b90509392505050565b7f4e487b7100000000000000000000000000000000000000000000000000000000600052602260045260246000fd5b6000600282049050600182168061407457607f821691505b6020821081036140875761408661402d565b5b50919050565b60008190508160005260206000209050919050565b60006020601f8301049050919050565b600082821b905092915050565b6000600883026140ef7fffffffffffffffffffffffffffffffffffffffffffffffffffffffffffffffff826140b2565b6140f986836140b2565b95508019841693508086168417925050509392505050565b6000819050919050565b600061413661413161412c846134dd565b614111565b6134dd565b9050919050565b6000819050919050565b6141508361411b565b61416461415c8261413d565b8484546140bf565b825550505050565b600090565b61417961416c565b614184818484614147565b505050565b5b818110156141a85761419d600082614171565b60018101905061418a565b5050565b601f8211156141ed576141be8161408d565b6141c7846140a2565b810160208510156141d6578190505b6141ea6141e2856140a2565b830182614189565b50505b505050565b600082821c905092915050565b6000614210600019846008026141f2565b1980831691505092915050565b600061422983836141ff565b9150826002028217905092915050565b61424282613768565b67ffffffffffffffff81111561425b5761425a613598565b5b614265825461405c565b6142708282856141ac565b600060209050601f8311600181146142a35760008415614291578287015190505b61429b858261421d565b865550614303565b601f1984166142b18661408d565b60005b828110156142d9578489015182556001820191506020850194506020810190506142b4565b868310156142f657848901516142f2601f8916826141ff565b8355505b6001600288020188555050505b505050505050565b6000614316826134dd565b9150614321836134dd565b925082820390508181111561433957614338613f52565b5b92915050565b7f4e487b7100000000000000000000000000000000000000000000000000000000600052603260045260246000fd5b7f4e487b7100000000000000000000000000000000000000000000000000000000600052603160045260246000fd5b7f53686f7020646f65736e27742065786973740000000000000000000000000000600082015250565b60006143d36012836138ca565b91506143de8261439d565b602082019050919050565b60006020820190508181036000830152614402816143c6565b9050919050565b7f4974656d2077697468207468652073616d65206974656d494420657869737473600082015250565b600061443f6020836138ca565b915061444a82614409565b602082019050919050565b6000602082019050818103600083015261446e81614432565b9050919050565b7f536574206974656d207072696365000000000000000000000000000000000000600082015250565b60006144ab600e836138ca565b91506144b682614475565b602082019050919050565b600060208201905081810360008301526144da8161449e565b9050919050565b600060608201905081810360008301526144fb81866138db565b9050818103602083015261450f81856138db565b905061451e6040830184613553565b949350505050565b7f53686f7020697320636c6f736564000000000000000000000000000000000000600082015250565b600061455c600e836138ca565b915061456782614526565b602082019050919050565b6000602082019050818103600083015261458b8161454f565b9050919050565b7f496e73756666696369656e742066756e64730000000000000000000000000000600082015250565b60006145c86012836138ca565b91506145d382614592565b602082019050919050565b600060208201905081810360008301526145f7816145bb565b9050919050565b7f53686f70206f776e65722063616e6e6f7420627579207468656972206f776e2060008201527f6974656d00000000000000000000000000000000000000000000000000000000602082015250565b600061465a6024836138ca565b9150614665826145fe565b604082019050919050565b600060208201905081810360008301526146898161464d565b9050919050565b60006040820190506146a56000830185613e65565b6146b26020830184613553565b9392505050565b600060a0820190506146ce60008301886139e6565b6146db60208301876139e6565b6146e860408301866139e6565b6146f56060830185613553565b6147026080830184613553565b9695505050505050565b600081905092915050565b600061472282613768565b61472c818561470c565b935061473c818560208601613784565b80840191505092915050565b60006147548284614717565b91508190509291505056fea2646970667358221220a025f260ed9cd970662712b87a35a64fb828960e7199f785d97fd281d9bea8c864736f6c63430008140033",
  "linkReferences": {},
  "deployedLinkReferences": {}
}